:020000040800F2
:1000000000060020E1020008E3020008E302000805
:10001000E3020008E3020008E3020008E30200082C
:10002000E3020008E3020008E3020008953200083A
:10003000E3020008E3020008E3020008E30200080C
:10004000E3020008E3020008E3020008E3020008FC
:10005000E3020008E30200081D4B0008494B0008BA
:10006000754B0008A14B0008CD4B00083D1200085D
:100070006512000891120008BD120008E91200087C
:10008000111300083D130008E3020008E302000812
:10009000E3020008E3020008E3020008F94B00084D
:1000A000E3020008E3020008E3020008E30200089C
:1000B000E3020008E3020008E3020008E30200088C
:1000C000E3020008E3020008E3020008E30200087C
:1000D000E3020008E3020008E3020008E30200086C
:1000E0005D4C0008E3020008E3020008E302000898
:1000F000E3020008E3020008E302000869130008B5
:10010000E3020008D14C0008F94C0008E3020008A3
:10011000E3020008E3020008E3020008E30200082B
:1001200095130008BD130008E91300081514000812
:1001300041140008E3020008E3020008E30200089B
:10014000E3020008E3020008E3020008E3020008FB
:100150006914000895140008C1140008E30200089F
:10016000E3020008E3020008E3020008E3020008DB
:10017000E3020008813E0008E3020008E3020008F1
:10018000E3020008E3020008E54C0008E30200086F
:10019000E3020008E3020008E3020008E3020008AB
:1001A000E3020008E3020008E3020008E30200089B
:1001B000E3020008E3020008E3020008E30200088B
:1001C000E3020008E3020008E3020008E30200087B
:1001D000E30200086D3E0008E3020008E3020008A5
:1001E000E3020008E3020008E3020008E30200085B
:1001F000E3020008E3020008E3020008E30200084B
:10020000E3020008E3020008E3020008E30200083A
:10021000E3020008E3020008E3020008E30200082A
:10022000E3020008E3020008E3020008E30200081A
:10023000E3020008E3020008E3020008E30200080A
:10024000E3020008E3020008E3020008E3020008FA
:10025000E3020008E3020008E3020008E3020008EA
:10026000E3020008E3020008E3020008E3020008DA
:10027000E3020008E3020008E3020008E3020008CA
:10028000E3020008E3020008E3020008E3020008BA
:10029000E3020008E3020008E3020008E3020008AA
:1002A000E3020008E3020008E3020008E30200089A
:1002B000E3020008E3020008E3020008E30200088A
:1002C000E3020008E3020008E3020008E30200087A
:1002D000E3020008E3020008E3020008E30200086A
:1002E00002E000F000F8FEE772B6374880F30888B5
:1002F000364880F3098836483649086040F20000E5
:10030000CCF200004EF63471CEF200010860BFF36B
:100310004F8FBFF36F8F40F20000C0F2F0004EF637
:100320008851CEF200010860BFF34F8FBFF36F8F8B
:100330004FF00000E1EE100A4EF63C71CEF20001E3
:100340000860062080F31488BFF36F8F03F004F871
:1003500004F09AF94FF055301F491B4A91423CBFB7
:1003600041F8040BFAE71D49184A91423CBF41F895
:10037000040BFAE71A491B4A1B4B9A423EBF51F83D
:10038000040B42F8040BF8E700201849184A914280
:100390003CBF41F8040BFAE703F01CF804F0F8F94D
:1003A000144C154DAC4203DA54F8041B8847F9E7A6
:1003B00000F0D2F8114C124DAC4203DA54F8041B91
:1003C0008847F9E703F004B8000600200022002067
:1003D0000000000808ED00E00000002000060020FA
:1003E000D85D00080022002064220020682200203E
:1003F000E44B0020E0020008E0020008E0020008F0
:10040000E00200082DE9F04F2DED108AC1F80CD064
:10041000D0F80CD0BDEC108ABDE8F08F002383F338
:1004200011882846A047002002F0AEF9FEE702F04E
:1004300007F900DFFEE70000032A70B515D940EA8E
:10044000010C1CF0030F04460B4621D1194620462F
:100450000E680568B54204F1040403F1040317D1E2
:10046000043A032A20461946F0D8541EA2B100F1DE
:10047000FF3C013901E0C3180CD01CF801EF11F862
:10048000012F9645A4EB0C03F5D0AEEB020070BD36
:10049000541EECE7184670BD104670BD80EA01029C
:1004A000844612F0030F4FD111F0030F32D14DF8F3
:1004B000044D11F0040F51F8043B0BD0A3F10132AD
:1004C0009A4312F0803F04BF4CF8043B51F8043BC0
:1004D00016D100BF51F8044BA3F101329A4312F038
:1004E000803FA4F101320BD14CF8043BA24312F03F
:1004F000803F04BF51F8043B4CF8044BEAD023463C
:100500000CF8013B13F0FF0F4FEA3323F8D15DF8ED
:10051000044B704711F0010F06D011F8012B0CF8B5
:10052000012B002A08BF704711F0020FBFD031F82D
:10053000022B12F0FF0F16BF2CF8022B8CF80020B4
:1005400012F47F4FB3D1704711F8012B0CF8012B37
:10055000002AF9D1704700BF38B500F045FC00F023
:1005600001FE02F045FE054602F08AFE0446C0B9CF
:100570000E4B9D4217D001339D4241F2883512BF88
:10058000044600250124002002F03CFE0CB100F0DE
:1005900075F800F085FD284600F01EF900F06EF8B1
:1005A000F9E70025EFE70546EDE700BF010007B0DA
:1005B00008B500F0E5FBA0F120035842584108BD02
:1005C00007B541F21203022101A8ADF8043000F092
:1005D000F5FB03B05DF804FB38B5302383F31188D5
:1005E000174803680BB102F0B3F90023154A4FF422
:1005F0007A71134802F0A2F9002383F31188124C98
:10060000236813B12368013B2360636813B16368F7
:10061000013B63600D4D2B7833B963687BB90220D1
:1006200000F0A8FC322363602B78032B07D16368AA
:100630002BB9022000F09EFC4FF47A73636038BD42
:1006400068220020D905000888230020802200208D
:10065000084B187003280CD8DFE800F008050208E2
:10066000022000F07FBC022000F072BC024B00228E
:100670005A6070478022002088230020F8B5504B34
:10068000504A1C461968013100F0998004339342A6
:10069000F8D162684C4B9A4240F291804B4B9B6878
:1006A00003F1006303F500339A4280F08880002054
:1006B00000F0C0FB0220FFF7CBFF454B0021D3F831
:1006C000E820C3F8E810D3F81021C3F81011D3F8CC
:1006D0001021D3F8EC20C3F8EC10D3F81421C3F8A0
:1006E0001411D3F81421D3F8F020C3F8F010D3F884
:1006F0001821C3F81811D3F81821D3F8802042F03C
:100700000062C3F88020D3F8802022F00062C3F892
:100710008020D3F88020D3F8802042F00072C3F804
:100720008020D3F8802022F00072C3F88020D3F814
:10073000803072B64FF0E023C3F8084DD4E90004CE
:10074000BFF34F8FBFF36F8F224AC2F88410BFF3FD
:100750004F8F536923F480335361BFF34F8FD2F827
:10076000803043F6E076C3F3C905C3F34E335B0133
:1007700003EA060C29464CEA81770139C2F8747203
:10078000F9D2203B13F1200FF2D1BFF34F8FBFF30B
:100790006F8FBFF34F8FBFF36F8F536923F4003315
:1007A00053610023C2F85032BFF34F8FBFF36F8FF6
:1007B000302383F31188854680F308882047F8BDED
:1007C0000000020820000208FFFF010800220020AC
:1007D0000044025800ED00E02DE9F04F93B0B44B17
:1007E0002022FF2100900AA89D6800F003FCB14A76
:1007F0001378A3B90121B04811700360302383F34B
:10080000118803680BB102F0A3F80023AB4A4FF440
:100810007A71A94802F092F8002383F31188009BB3
:1008200013B1A74B009A1A60A64A1378032B03D082
:1008300000231370A24A53604FF0000A009CD34675
:100840005646D146012000F08DFB24B19C4B1B681D
:10085000002B00F02682002000F092FA0390039B08
:10086000002BF2DB012000F073FB039B213B1F2BCD
:10087000E8D801A252F823F0F9080008210900087D
:10088000B5090008450800084508000845080008A3
:10089000470A0008170C0008310B0008930B0008EA
:1008A000BB0B0008E10B000845080008F30B00082B
:1008B00045080008650C000899090008450800086B
:1008C000A90C000805090008990900084508000856
:1008D000930B000845080008450800084508000873
:1008E00045080008450800084508000845080008B4
:1008F00045080008B50900080220FFF759FE002846
:1009000040F0F981009B022105A8BAF1000F08BF51
:100910001C4641F21233ADF8143000F04FFA91E763
:100920004FF47A7000F02CFA071EEBDB0220FFF781
:100930003FFE0028E6D0013F052F00F2DE81DFE810
:1009400007F0030A0D1013360523042105A80593AB
:1009500000F034FA17E004215548F9E704215A4819
:10096000F6E704215948F3E74FF01C08404608F128
:10097000040800F061FA0421059005A800F01EFAB1
:10098000B8F12C0FF2D101204FF0000900FA07F75F
:1009900047EA0B0B5FFA8BFB00F078FB26B10BF0FC
:1009A0000B030B2B08BF0024FFF70AFE4AE70421C4
:1009B0004748CDE7002EA5D00BF00B030B2BA1D1A0
:1009C0000220FFF7F5FD074600289BD001200026F6
:1009D00000F030FA0220FFF73BFE1FFA86F840468F
:1009E00000F038FA0446B0B1039940460136A1F14F
:1009F00040025142514100F03DFA0028EDD1BA4683
:100A0000044641F21213022105A83E46ADF8143007
:100A100000F0D4F916E725460120FFF719FE244B14
:100A20009B68AB4207D9284600F006FA013040F037
:100A300067810435F3E70025224BBA463E461D7018
:100A40001F4B5D60A8E7002E3FF45CAF0BF00B037B
:100A50000B2B7FF457AF0220FFF7FAFD322000F096
:100A60008FF9B0F10008FFF64DAF18F003077FF4DF
:100A700049AF0F4A08EB0503926893423FF642AF35
:100A8000B8F5807F3FF73EAF124BB845019323DDA9
:100A90004FF47A7000F074F90390039A002AFFF67D
:100AA00031AF039A0137019B03F8012BEDE700BF3B
:100AB000002200208423002068220020D90500089D
:100AC0008823002080220020042200200822002009
:100AD0000C22002084220020C820FFF769FD074671
:100AE00000283FF40FAF1F2D11D8C5F120020AAB2B
:100AF00025F0030084494245184428BF424601922C
:100B000000F052FA019AFF217F4800F073FA4FEA91
:100B1000A803C8F387027C492846019300F072FAC3
:100B2000064600283FF46DAF019B05EB830533E7D4
:100B30000220FFF73DFD00283FF4E4AE00F0B8F9D5
:100B400000283FF4DFAE0027B846704B9B68BB42DD
:100B500018D91F2F11D80A9B01330ED027F0030399
:100B600048336B4453F8203C05934046042205A9C2
:100B7000043700F04DFB8046E7E7384600F05CF9AB
:100B80000590F2E7CDF81480042105A800F016F9CD
:100B900002E70023642104A8049300F005F900286B
:100BA0007FF4B0AE0220FFF703FD00283FF4AAAEA9
:100BB000049800F073F90590E6E70023642104A887
:100BC000049300F0F1F800287FF49CAE0220FFF7B8
:100BD000EFFC00283FF496AE049800F061F9EAE7D4
:100BE0000220FFF7E5FC00283FF48CAE00F070F91E
:100BF000E1E70220FFF7DCFC00283FF483AE05A903
:100C0000142000F06BF907460421049004A800F0BA
:100C1000D5F83946B9E7322000F0B2F8071EFFF6E2
:100C200071AEBB077FF46EAE384A07EB09039268DA
:100C300093423FF667AE0220FFF7BAFC00283FF46C
:100C400061AE27F003074F44B9453FF4A5AE4846CF
:100C500009F1040900F0F0F80421059005A800F05E
:100C6000ADF8F1E74FF47A70FFF7A2FC00283FF4EB
:100C700049AE00F01DF9002844D00A9B01330BD087
:100C800008220AA9002000F0BDF900283AD020224D
:100C9000FF210AA800F0AEF9FFF792FC1C4801F012
:100CA00079FD13B0BDE8F08F002E3FF42BAE0BF0B2
:100CB0000B030B2B7FF426AE0023642105A80593BC
:100CC00000F072F8074600287FF41CAE0220FFF700
:100CD0006FFC804600283FF415AEFFF771FC41F22F
:100CE000883001F057FD059800F01AFA46463C4658
:100CF00000F0CCF9A6E506464EE64FF0000901E605
:100D0000BA467EE637467CE6842200200022002098
:100D1000A08601002DE9F84F4FF47A7306460D4680
:100D2000002402FB03F7DFF85080DFF8509098F9B9
:100D300000305FFA84FA5A1C01D0A34212D159F84C
:100D400024002A4631460368D3F820B03B46D847F2
:100D5000854207D1074B012083F800A0BDE8F88F3A
:100D60000124E4E7002CFBD04FF4FA7001F012FDEF
:100D70000020F3E7D42300201022002014220020BA
:100D8000002307B5024601210DF107008DF8073059
:100D9000FFF7C0FF20B19DF8070003B05DF804FB2A
:100DA0004FF0FF30F9E700000A46042108B5FFF7CD
:100DB000B1FF80F00100C0B2404208BD074B0A46B7
:100DC00030B41978064B53F8214001462368204679
:100DD000DD69044BAC4630BC604700BFD423002023
:100DE00014220020A086010070B5104C0025104E82
:100DF00002F006F820803068238883420CD8002552
:100E00002088013801F0F8FF23880544013BB5F53F
:100E1000802F2380F4D370BD01F0EEFF33680544CA
:100E20000133B5F5003F3360E5D3E8E7D623002072
:100E30009023002002F0B2B800F1006000F500300D
:100E40000068704700F10060920000F5003002F089
:100E500033B80000054B1A68054B1B889B1A834268
:100E600002D9104401F0C8BF002070479023002031
:100E7000D623002038B50446074D29B12868204400
:100E8000BDE8384001F0D0BF2868204401F0BAFF27
:100E90000028F3D038BD00BF902300200020704709
:100EA00000F1FF5000F58F10D0F8000870470000E7
:100EB000064991F8243033B100230822086A81F8EA
:100EC0002430FFF7BFBF0120704700BF94230020EC
:100ED000014B1868704700BF0010005C194B0138C7
:100EE0000322084470B51D68174BC5F30B042D0C85
:100EF0001E88A6420BD15C680A46013C824213461A
:100F00000FD214F9016F4EB102F8016BF6E7013A06
:100F100003F10803ECD181420B4602D22C2203F8E4
:100F2000012B0424094A1688AE4204D1984284BF9A
:100F3000967803F8016B013C02F10402F3D1581AD0
:100F400070BD00BF0010005C1C2200201859000872
:100F5000022803D1024B4FF480129A61704700BF00
:100F600000100258022802D1014B10229A617047EA
:100F700000100258022804D1024A536983F010037A
:100F8000536170470010025870B504464FF47A76EA
:100F90004CB1412C254628BF412506FB05F0641BBA
:100FA00001F0F8FBF4E770BD002310B5934203D0C5
:100FB000CC5CC4540133F9E710BD0000013810B512
:100FC00010F9013F3BB191F900409C4203D11AB1A5
:100FD0000131013AF4E71AB191F90020981A10BDD5
:100FE0001046FCE703460246D01A12F9011B0029FD
:100FF000FAD1704702440346934202D003F8011B22
:10100000FAE770472DE9F8431F4D14460746884616
:1010100095F8242052BBDFF870909CB395F82430EB
:101020002BB92022FF2148462F62FFF7E3FF95F8F6
:1010300024004146C0F1080205EB8000A24228BF0F
:101040002246D6B29200FFF7AFFF95F82430A41BDA
:1010500017441E449044E4B2F6B2082E85F824608A
:10106000DBD1FFF725FF0028D7D108E02B6A03EB7F
:1010700082038342CFD0FFF71BFF0028CBD1002093
:10108000BDE8F8830120FBE794230020024B1A7887
:10109000024B1A70704700BFD4230020102200209A
:1010A00038B51A4C1A4D204600F07CFE29462046E1
:1010B00000F0A4FE2D684FF47A70D5F89020D2F895
:1010C000043843F00203C2F80438FFF75DFF11490A
:1010D000284600F0A1FFD5F890200F4DD2F8043833
:1010E000286823F002030D49A042C2F804384FF4E7
:1010F000E1330B6001D000F0B3FD6868A04204D07A
:101100000649BDE8384000F0ABBD38BD782B002063
:101110001C5B0008245B000814220020BC23002074
:101120000C4B70B50C4D04461E780C4B55F8262020
:101130009A420DD00A4B002118221846FFF75AFF99
:101140000460014655F82600BDE8704000F088BDF7
:1011500070BD00BFD423002014220020782B002073
:10116000BC230020F0B5A1B071B6002301200024FB
:1011700080261A46194600F04BFA4FF4D067214AF0
:101180003D25136923BBD2F810310BBB036804F172
:10119000006199600368C3F80CD003685E6003685F
:1011A0001F6001680B6843F001030B6001680B6866
:1011B00023F01E030B6001680B68DB07FCD4037B84
:1011C0008034416805FA03F3B4F5001F0B60D8D1F1
:1011D00000F05EFAB4F5001F11D000240A4E0B4D4A
:1011E000012001F0DBFE3388A34205D928682044A2
:1011F000013401F019FEF6E7002001F0CFFE61B6E0
:1012000021B0F0BD00200052D62300209023002002
:1012100030B50A44084D91420DD011F8013B5840B9
:10122000082340F30004013B2C4013F0FF0384EA41
:101230005000F6D1EFE730BD2083B8ED08B5074B7D
:10124000074A196801F03D01996053680BB1906835
:101250009847BDE8084002F055B800BF00000240C2
:10126000D823002008B5084B1968890901F03D0111
:101270008A019A60054AD3680BB110699847BDE8A6
:10128000084002F03FB800BF00000240D823002011
:1012900008B5084B1968090C01F03D010A049A6071
:1012A000054A53690BB190699847BDE8084002F0C0
:1012B00029B800BF00000240D823002008B5084B21
:1012C0001968890D01F03D018A059A60054AD369C4
:1012D0000BB1106A9847BDE8084002F013B800BF90
:1012E00000000240D823002008B5074B074A596880
:1012F00001F03D01D960536A0BB1906A9847BDE88F
:10130000084001F0FFBF00BF00000240D8230020CA
:1013100008B5084B5968890901F03D018A01DA6076
:10132000054AD36A0BB1106B9847BDE8084001F03D
:10133000E9BF00BF00000240D823002008B5084BD9
:101340005968090C01F03D010A04DA60054A536B43
:101350000BB1906B9847BDE8084001F0D3BF00BFC8
:1013600000000240D823002008B5084B5968890DB9
:1013700001F03D018A05DA60054AD36B0BB1106CB0
:101380009847BDE8084001F0BDBF00BF0000024023
:10139000D823002008B5074B074A196801F03D0122
:1013A0009960536C0BB1906C9847BDE8084001F010
:1013B000A9BF00BF00040240D823002008B5084B95
:1013C0001968890901F03D018A019A60054AD36CC8
:1013D0000BB1106D9847BDE8084001F093BF00BF06
:1013E00000040240D823002008B5084B1968090CF6
:1013F00001F03D010A049A60054A536D0BB1906DEE
:101400009847BDE8084001F07DBF00BF00040240DE
:10141000D823002008B5084B1968890D01F03D015B
:101420008A059A60054AD36D0BB1106E9847BDE8E6
:10143000084001F067BF00BF00040240D82300202D
:1014400008B5074B074A596801F03D01D960536E52
:101450000BB1906E9847BDE8084001F053BF00BF44
:1014600000040240D823002008B5084B59688909B8
:1014700001F03D018A01DA60054AD36E0BB1106FAD
:101480009847BDE8084001F03DBF00BF000402409E
:10149000D823002008B5084B5968090C01F03D011C
:1014A0000A04DA60054A536F0BB1906F9847BDE8A4
:1014B000084001F027BF00BF00040240D8230020ED
:1014C00008B5084B5968890D01F03D018A05DA60BD
:1014D000054AD36F13B1D2F880009847BDE80840A1
:1014E00001F010BF00040240D823002000230C4963
:1014F00010B51A460B4C0B6054F82300026001EB48
:10150000430004334260402BF6D1074A4FF0FF33CB
:101510009360D360C2F80834C2F80C3410BD00BF29
:10152000D823002028590008000002400F28F8B5F1
:1015300010D9102810D0112811D0122808D10F244A
:101540000720DFF8C8E00126DEF80050A04208D9E5
:10155000002653E00446F4E70F240020F1E70724B7
:10156000FBE706FA00F73D424AD1264C4FEA001C41
:101570003D4304EB00160EEBC000CEF80050C0E96E
:101580000123FBB273B12048D0F8D83043F00103F7
:10159000C0F8D830D0F8003143F00103C0F8003172
:1015A000D0F8003117F47F4F0ED01748D0F8D8305C
:1015B00043F00203C0F8D830D0F8003143F0020302
:1015C000C0F80031D0F8003154F80C00036823F063
:1015D0001F030360056815F00105FBD104EB0C0344
:1015E0003D2493F80CC05F6804FA0CF43C6021249D
:1015F0000560446112B1987B00F066F93046F8BD91
:101600000130A3E72859000800440258D8230020DD
:1016100010B5302484F31188FFF788FF002383F38B
:10162000118810BD10B50446807B00F063F90123DA
:101630001549627B03FA02F20B6823EA0203DAB26D
:101640000B6072B9114AD2F8D81021F00101C2F82A
:10165000D810D2F8001121F00101C2F80011D2F81F
:10166000002113F47F4F0ED1084BD3F8D82022F07D
:101670000202C3F8D820D3F8002122F00202C3F8F6
:101680000021D3F8003110BDD823002000440258B7
:1016900008B5302383F31188FFF7C4FF002383F3D9
:1016A000118808BD026843681143016003B11847FF
:1016B00070470000024A136843F0C003136070478C
:1016C0000078004013B50E4C204600F0BDFA04F13E
:1016D000140000234FF400720A49009400F07AF9D4
:1016E000094B4FF40072094904F13800009400F0EE
:1016F000F3F9074A074BC4E9172302B010BD00BF36
:101700005C240020C8240020B5160008C82600204C
:101710000078004000E1F505037C30B5244C002939
:1017200018BF0C46012B11D1224B98420ED1224BEF
:10173000D3F8E82042F08042C3F8E820D3F8102123
:1017400042F08042C3F81021D3F810312268036EB2
:10175000C16D03EB52038466B3FBF2F362681504B8
:1017600042BF23F0070503F0070343EA4503CB60BC
:10177000A36843F040034B60E36843F001038B60D0
:1017800042F4967343F001030B604FF0FF330B629A
:10179000510505D512F0102205D0B2F1805F04D0BA
:1017A00080F8643030BD7F23FAE73F23F8E700BFBD
:1017B000285A00085C240020004402582DE9F04714
:1017C000C66D05463768F469210734621AD014F0F3
:1017D000080118BF4FF48071E20748BF41F02001B3
:1017E000A3074FF0300348BF41F04001600748BFF6
:1017F00041F0800183F31188281DFFF753FF002378
:1018000083F31188E2050AD5302383F311884FF45E
:101810008061281DFFF746FF002383F311884FF0F6
:1018200030094FF0000A14F0200838D13B0616D5D5
:101830004FF0300905F1380A200610D589F31188D8
:10184000504600F07DF9002836DA0821281DFFF700
:1018500029FF27F080033360002383F31188790682
:1018600014D5620612D5302383F31188D5E91323EA
:101870009A4208D12B6C33B127F040071021281D64
:10188000FFF710FF3760002383F31188E30618D5B4
:10189000AA6E1369ABB15069BDE8F047184789F3E8
:1018A0001188736A284695F86410194000F0E6F92B
:1018B0008AF31188F469B6E7B06288F31188F46995
:1018C000BAE7BDE8F0870000090100F1604301229A
:1018D00003F56143C9B283F8001300F01F039A4077
:1018E00043099B0003F1604303F56143C3F8802182
:1018F0001A60704700F01F0301229A40430900F16B
:1019000060409B0000F5614003F1604303F56143D3
:10191000C3F88020C3F88021002380F8003370478B
:10192000F8B51546826804460B46AA4200D285687F
:10193000A1692669761AB5420BD218462A46FFF7E6
:1019400033FBA3692B44A3612846A3685B1BA360F8
:10195000F8BD0CD9AF1B18463246FFF725FB3A46B7
:10196000E1683044FFF720FBE3683B44EBE71846AF
:101970002A46FFF719FBE368E5E700008368934216
:10198000F7B50446154600D28568D4E90460361AD6
:10199000B5420BD22A46FFF707FB63692B4463610C
:1019A0002846A3685B1BA36003B0F0BD0DD9324687
:1019B000AF1B0191FFF7F8FA01993A46E06831440C
:1019C000FFF7F2FAE3683B44E9E72A46FFF7ECFA4F
:1019D000E368E4E710B50A440024C361029B846015
:1019E000C16002610362C0E90000C0E9051110BDD9
:1019F00008B5D0E90532934201D1826882B9826884
:101A0000013282605A1C426119700021D0E904320F
:101A10009A4224BFC368436100F0F0FE002008BD75
:101A20004FF0FF30FBE7000070B5302304460E4650
:101A300083F31188A568A5B1A368A269013BA360DF
:101A4000531CA36115782269934224BFE368A36104
:101A5000E3690BB120469847002383F31188284699
:101A600007E03146204600F0B9FE0028E2DA85F3AF
:101A7000118870BD2DE9F74F04460E46174698466B
:101A8000D0F81C904FF0300A8AF311884FF0000B09
:101A9000154665B12A4631462046FFF741FF034609
:101AA00060B94146204600F099FE0028F1D000239D
:101AB00083F31188781B03B0BDE8F08FB9F1000FF4
:101AC00003D001902046C847019B8BF31188ED1A83
:101AD0001E448AF31188DCE7C160C361009B826009
:101AE0000362C0E905111144C0E9000001617047BB
:101AF000F8B504460D461646302383F31188A768CF
:101B0000A7B1A368013BA36063695A1C62611D70A1
:101B1000D4E904329A4224BFE3686361E3690BB1FC
:101B200020469847002080F3118807E03146204680
:101B300000F054FE0028E2DA87F31188F8BD0000B7
:101B4000D0E9052310B59A4201D182687AB982683A
:101B50000021013282605A1C82611C7803699A421A
:101B600024BFC368836100F049FE204610BD4FF0DA
:101B7000FF30FBE72DE9F74F04460E46174698461F
:101B8000D0F81C904FF0300A8AF311884FF0000B08
:101B9000154665B12A4631462046FFF7EFFE03465B
:101BA00060B94146204600F019FE0028F1D000231C
:101BB00083F31188781B03B0BDE8F08FB9F1000FF3
:101BC00003D001902046C847019B8BF31188ED1A82
:101BD0001E448AF31188DCE7026843681143016000
:101BE00003B11847704700001430FFF743BF0000EF
:101BF0004FF0FF331430FFF73DBF00003830FFF7E0
:101C0000B9BF00004FF0FF333830FFF7B3BF00001B
:101C10001430FFF709BF00004FF0FF311430FFF719
:101C200003BF00003830FFF763BF00004FF0FF3202
:101C30003830FFF75DBF0000012914BF6FF01300BB
:101C400000207047FFF73EBD044B03600023436054
:101C5000C0E9023301230374704700BF405A0008F3
:101C600010B53023044683F31188FFF755FD022396
:101C70000020237480F3118810BD000038B5C369BB
:101C800004460D461BB904210844FFF7A5FF294669
:101C900004F11400FFF7ACFE002806DA201D4FF413
:101CA0000061BDE83840FFF797BF38BD0268436860
:101CB0001143016003B118477047000013B5406B32
:101CC00000F58054D4F8A4381A681178042914D186
:101CD000017C022911D11979012312898B40134209
:101CE0000BD101A94C3002F0FDF9D4F8A44802460A
:101CF000019B2179206800F0DFF902B010BD0000DF
:101D0000143002F07FB900004FF0FF33143002F0BE
:101D100079B900004C3002F051BA00004FF0FF33A7
:101D20004C3002F04BBA0000143002F04DB9000004
:101D30004FF0FF31143002F047B900004C3002F090
:101D40001DBA00004FF0FF324C3002F017BA00000D
:101D50000020704710B500F58054D4F8A4381A68F4
:101D60001178042917D1017C022914D15979012352
:101D700052898B4013420ED1143002F0DFF8024634
:101D800048B1D4F8A4484FF4407361792068BDE8A5
:101D9000104000F07FB910BD406BFFF7DBBF0000C3
:101DA000704700007FB5124B0125042604460360EE
:101DB0000023057400F1840243602946C0E9023320
:101DC0000C4B0290143001934FF44073009602F0D4
:101DD00091F8094B04F69442294604F14C00029410
:101DE000CDE900634FF4407302F058F904B070BDC0
:101DF000685A0008991D0008BD1C00080A683023B5
:101E000083F311880B790B3342F823004B7913339A
:101E100042F823008B7913B10B3342F8230000F50D
:101E20008053C3F8A41802230374002080F31188A0
:101E30007047000038B5037F044613B190F8543062
:101E4000ABB90125201D0221FFF730FF04F114007A
:101E50006FF00101257700F0DDFC04F14C0084F8FF
:101E600054506FF00101BDE8384000F0D3BC38BDDC
:101E700010B5012104460430FFF718FF0023237733
:101E800084F8543010BD000038B5044600251430E5
:101E900002F048F804F14C00257702F017F9201DF4
:101EA00084F854500121FFF701FF2046BDE8384077
:101EB000FFF750BF90F8803003F06003202B06D16D
:101EC00090F881200023212A03D81F2A06D8002059
:101ED0007047222AFBD1C0E91D3303E0034A426761
:101EE00007228267C3670120704700BF34220020A9
:101EF00037B500F58055D5F8A4381A68117804294B
:101F00001AD1017C022917D11979012312898B403A
:101F1000134211D100F14C04204602F097F958B158
:101F200001A9204602F0DEF8D5F8A4480246019B3C
:101F30002179206800F0C0F803B030BD01F10B0337
:101F4000F0B550F8236085B004460D46FEB130234D
:101F500083F3118804EB8507301D0821FFF7A6FEE7
:101F6000FB6806F14C005B691B681BB1019002F035
:101F7000C7F8019803A902F0B5F8024648B1039BDF
:101F80002946204600F098F8002383F3118805B015
:101F9000F0BDFB685A691268002AF5D01B8A013B24
:101FA0001340F1D104F18002EAE70000133138B5A3
:101FB00050F82140ECB1302383F3118804F58053AD
:101FC000D3F8A4281368527903EB8203DB689B697A
:101FD0005D6845B104216018FFF768FE294604F1E9
:101FE000140001F0B5FF2046FFF7B4FE002383F391
:101FF000118838BD7047000001F082BA01234022E9
:10200000002110B5044600F8303BFEF7F3FF002333
:10201000C4E9013310BD000010B53023044683F33A
:1020200011882422416000210C30FEF7E3FF204696
:1020300001F088FA02230020237080F3118810BD7C
:1020400070B500EB8103054650690E461446DA6010
:1020500018B110220021FEF7CDFFA06918B110229F
:102060000021FEF7C7FF31462846BDE8704001F069
:102070006FBB000083682022002103F0011310B51C
:10208000044683601030FEF7B5FF2046BDE81040DF
:1020900001F0EABBF0B4012500EB810447898D40D3
:1020A000E4683D43A469458123600023A260636026
:1020B000F0BC01F007BC0000F0B4012500EB810486
:1020C00007898D40E4683D436469058123600023EE
:1020D000A2606360F0BC01F07DBC000070B502231B
:1020E00000250446242203702946C0F888500C308D
:1020F00040F8045CFEF77EFF204684F8705001F043
:10210000BBFA63681B6823B129462046BDE87040CE
:10211000184770BD0378052B10B504460AD080F827
:102120008C300523037043681B680BB1042198476A
:102130000023A36010BD00000178052906D190F8A6
:102140008C20436802701B6803B118477047000079
:1021500070B590F87030044613B1002380F87030E9
:1021600004F18002204601F0A3FB63689B68B3B9C9
:1021700094F8803013F0600535D00021204601F03E
:1021800095FE0021204601F085FE63681B6813B1AF
:10219000062120469847062384F8703070BD2046FB
:1021A00098470028E4D0B4F88630A26F9A4288BFDE
:1021B000A36794F98030A56F002B4FF0300380F2B5
:1021C0000381002D00F0F280092284F8702083F34F
:1021D000118800212046D4E91D23FFF76DFF00235D
:1021E00083F31188DAE794F8812003F07F0343EA50
:1021F000022340F20232934200F0C58021D8B3F5A9
:10220000807F48D00DD8012B3FD0022B00F0938067
:10221000002BB2D104F1880262670222A267E36751
:10222000C1E7B3F5817F00F09B80B3F5407FA4D177
:1022300094F88230012BA0D1B4F8883043F0020327
:1022400032E0B3F5006F4DD017D8B3F5A06F31D0A1
:10225000A3F5C063012B90D86368204694F88220D0
:102260005E6894F88310B4F88430B047002884D0B6
:10227000436863670368A3671AE0B3F5106F36D04D
:1022800040F6024293427FF478AF5C4B63670223CF
:10229000A3670023C3E794F88230012B7FF46DAF6E
:1022A000B4F8883023F00203A4F88830C4E91D553F
:1022B000E56778E7B4F88030B3F5A06F0ED194F8F5
:1022C0008230204684F88A3001F034FA63681B6853
:1022D00013B1012120469847032323700023C4E94A
:1022E0001D339CE704F18B0363670123C3E7237865
:1022F000042B10D1302383F311882046FFF7BAFE58
:1023000085F311880321636884F88B5021701B6862
:102310000BB12046984794F88230002BDED084F829
:102320008B300423237063681B68002BD6D00221F6
:1023300020469847D2E794F8843020461D0603F0E3
:102340000F010AD501F0A6FA012804D002287FF473
:1023500014AF2B4B9AE72B4B98E701F08DFAF3E77C
:1023600094F88230002B7FF408AF94F8843013F097
:102370000F01B3D01A06204602D501F0AFFDADE73C
:1023800001F0A0FDAAE794F88230002B7FF4F5AEAF
:1023900094F8843013F00F01A0D01B06204602D51C
:1023A00001F084FD9AE701F075FD97E7142284F8A7
:1023B000702083F311882B462A4629462046FFF7D2
:1023C00069FE85F31188E9E65DB1152284F8702075
:1023D00083F3118800212046D4E91D23FFF75AFE1C
:1023E000FDE60B2284F8702083F311882B462A46E1
:1023F00029462046FFF760FEE3E700BF985A000831
:10240000905A0008945A000838B590F87030044685
:10241000002B3ED0063BDAB20F2A34D80F2B32D82D
:10242000DFE803F0373131082232313131313131D7
:1024300031313737856FB0F886309D4214D2C3688A
:102440001B8AB5FBF3F203FB12556DB9302383F3FE
:1024500011882B462A462946FFF72EFE85F3118860
:102460000A2384F870300EE0142384F8703030238F
:1024700083F31188002320461A461946FFF70AFE07
:10248000002383F3118838BDC36F03B1984700233D
:10249000E7E70021204601F009FD0021204601F078
:1024A000F9FC63681B6813B1062120469847062390
:1024B000D7E7000010B590F870300446142B29D0EF
:1024C00017D8062B05D001D81BB110BD093B022B34
:1024D000FBD80021204601F0E9FC0021204601F054
:1024E000D9FC63681B6813B1062120469847062370
:1024F00019E0152BE9D10B2380F87030302383F3DA
:10250000118800231A461946FFF7D6FD002383F3EE
:102510001188DAE7C3689B695B68002BD5D1C36F6C
:1025200003B19847002384F87030CEE70023826817
:1025300080F8243083691B6899689142FBD25A68FD
:10254000036042601060586070470000002382689A
:1025500080F8243083691B6899689142FBD85A68D7
:1025600003604260106058607047000008B508467C
:10257000302383F3118891F82430032B05D0042BEA
:102580000DD02BB983F3118808BD8B6A00221A6025
:102590004FF0FF338362FFF7C9FF0023F2E7D1E971
:1025A000003213605A60F3E7034610B51B68984287
:1025B00003D09C688A689442F8D25A680B604A60DB
:1025C0001160596010BD0000FFF7B0BF064BD9681D
:1025D00081F824001868026853601A600122D860EC
:1025E00080F82420FDF70EBFC82800200C4B30B522
:1025F000DD684B1C87B004460FD02B46094A68465D
:1026000000F09CF92046FFF7E1FF009B13B16846FC
:1026100000F09EF9A86A07B030BDFFF7D7FFF9E7D1
:10262000C82800206D250008044B1A68DB689068F4
:102630009B68984294BF002001207047C828002062
:10264000094B10B51C68D868226853601A600122D3
:10265000DC6084F82420FFF779FF01462046BDE8BE
:102660001040FDF7CFBE00BFC8280020044B1A68F9
:10267000DB6892689B689A4201D9FFF7E1BF704717
:10268000C828002038B50123084C00252370656058
:1026900001F018FE01F03EFE0549064801F014FF66
:1026A0000223237085F3118838BD00BF702B0020F2
:1026B000A05A0008C828002000F080B9034A5168D9
:1026C00053685B1A9842FBD8704700BF001000E0C7
:1026D0008B604B630023CA6100F128020B63022365
:1026E0000A618B840123886181F8263001F110038F
:1026F000C26A4A611360C36201F12C030846CB62CF
:1027000070470000D0E90131026841F8183CA1F19E
:102710009C033839CB60036941F8243C436941F894
:10272000203C034B41F8043CC3680248FFF7D0BF8C
:102730001D040008C828002008B5FFF7E3FFBDE826
:102740000840FFF741BF000038B50E4BDC6804F1CC
:102750002C05A062E06AA8420FD194F826303BB95C
:1027600094F825309B0702BFD4E9043213605A6005
:102770000F20BDE83840FFF729BF0368E362FFF789
:1027800023FFE7E7C8280020302383F31188FFF7F1
:10279000DBBF000008B50146302383F31188082011
:1027A000FFF724FF002383F3118808BD054BDB6886
:1027B00021B1036098620320FFF718BF4FF0FF308C
:1027C000704700BFC828002003682BB100220260B8
:1027D00018469962FFF7F8BE70470000064BDB68A9
:1027E00039B1426818605A60136043600420FFF7F3
:1027F000FDBE4FF0FF307047C828002003689842A4
:1028000006D01A680260506018469962FFF7DCBE75
:102810007047000038B504460D462068844200D158
:1028200038BD036823605C608562FFF7CDFEF4E786
:10283000036810B59C68A2420CD85C688A600B6083
:102840004C602160596099688A1A9A604FF0FF3392
:10285000836010BD121B1B68ECE700000A2938BF1B
:102860000A2170B504460D460A26601901F024FDC0
:1028700001F00CFD041BA54203D8751C04462E462E
:10288000F3E70A2E04D90120BDE8704001F0E4BE50
:1028900070BD0000F8B5144B0D460A2A4FF00A0728
:1028A000D96103F11001826038BF0A2241601969C1
:1028B0001446016048601861A81801F0EDFC01F0B1
:1028C000E5FC431B0646A34206D37C1C2819274679
:1028D000354601F0F1FCF2E70A2F04D90120BDE8EA
:1028E000F84001F0B9BEF8BDC8280020F8B506468A
:1028F0000D4601F0CBFC0F4A134653F8107F9F4260
:1029000006D12A4601463046BDE8F840FFF7C2BF6F
:10291000D169BB68441A2C1928BF2C46A34202D99E
:102920002946FFF79BFF224631460348BDE8F840A1
:10293000FFF77EBFC8280020D8280020C0E9032365
:10294000002310B45DF8044B4361FFF7CFBF0000D4
:1029500010B5194C236998420DD08168D0E9003236
:1029600013605A609A680A449A60002303604FF02B
:10297000FF33A36110BD0268234643F8102F536054
:102980000022026022699A4203D1BDE8104001F0A2
:102990008DBC936881680B44936001F077FC2269D9
:1029A000E1699268441AA242E4D91144BDE810409A
:1029B000091AFFF753BF00BFC82800202DE9F047D0
:1029C000DFF8BC8008F110072C4ED8F8105001F049
:1029D0005DFCD8F81C40AA68031B9A423ED81444F8
:1029E0004FF00009D5E90032C8F81C4013605A6066
:1029F000C5F80090D8F81030B34201D101F056FC70
:102A000089F31188D5E9033128469847302383F3A9
:102A100011886B69002BD8D001F038FC6A69A0EBF3
:102A2000040982464A450DD2022001F015FE00221B
:102A3000D8F81030B34208D151462846BDE8F047D7
:102A4000FFF728BF121A2244F2E712EB09092946C0
:102A5000384638BF4A46FFF7EBFEB5E7D8F81030E6
:102A6000B34208D01444C8F81C00211AA960BDE87C
:102A7000F047FFF7F3BEBDE8F08700BFD82800207D
:102A8000C828002000207047FEE7000070470000C3
:102A90004FF0FF307047000002290CD0032904D00A
:102AA0000129074818BF00207047032A05D80548A8
:102AB00000EBC2007047044870470020704700BF19
:102AC000805B000844220020345B000870B59AB097
:102AD00005460846144601A900F0C2F801A8FEF711
:102AE00081FA431C0022C6B25B001046C5E90034DF
:102AF00023700323023404F8013C01ABD1B2023449
:102B00008E4201D81AB070BD13F8011B013204F8CF
:102B1000010C04F8021CF1E708B5302383F3118897
:102B20000348FFF7E5F9002383F3118808BD00BFD0
:102B3000782B002090F8803003F01F02012A07D183
:102B400090F881200B2A03D10023C0E91D3315E042
:102B500003F06003202B08D1B0F884302BB990F833
:102B60008120212A03D81F2A04D8FFF7A3B9222ADB
:102B7000EBD0FAE7034A426707228267C367012066
:102B8000704700BF3B22002007B5052917D8DFE8B2
:102B900001F0191603191920302383F31188104A04
:102BA00001210190FFF74CFA019802210D4AFFF72D
:102BB00047FA0D48FFF768F9002383F3118803B043
:102BC0005DF804FB302383F311880748FFF732F9DF
:102BD000F2E7302383F311880348FFF749F9EBE765
:102BE000D45A0008F85A0008782B002038B50C4D4C
:102BF0000C4C2A460C4904F10800FFF767FF05F169
:102C0000CA0204F110000949FFF760FF05F5CA7216
:102C100004F118000649BDE83840FFF757BF00BF70
:102C20005044002044220020B45A0008BE5A000834
:102C3000C95A000870B5044608460D46FEF7D2F999
:102C4000C6B22046013403780BB9184670BD32462F
:102C50002946FEF7B3F90028F3D10120F6E700007A
:102C60002DE9F84F05460C46FEF7BCF92C49C6B2D3
:102C70002846FFF7DFFF08B10536F6B22949284696
:102C8000FFF7D8FF08B11036F6B2632E0DD8DFF883
:102C90009080DFF89090244FDFF894A0DFF894B094
:102CA0002E7846B92670BDE8F88F29462046BDE843
:102CB000F84FFDF7F3BB252E2ED1072241462846BB
:102CC000FEF77CF970B9DBF8003007350C3444F8B6
:102CD0000C3CDBF8043044F8083CDBF8083044F8DE
:102CE000043CDDE7082249462846FEF767F998B913
:102CF000A21C0E4B197802320909C95D02F8041CA6
:102D000013F8011B01F00F015345C95D02F8031CC4
:102D1000F0D118340835C3E7013504F8016BBFE77B
:102D2000A05B0008C95A0008B55B000800E8F11F65
:102D30000CE8F11FA85B0008BFF34F8F044B1A6922
:102D40005107FCD1D3F810215207F8D1704700BFCA
:102D50000020005208B50D4B1B78ABB9FFF7ECFF14
:102D60000B4BDA68D10704D50A4A5A6002F188325F
:102D70005A60D3F80C21D20706D5064AC3F80421BD
:102D800002F18832C3F8042108BD00BFAE4600201E
:102D9000002000522301674508B5114B1B78F3B999
:102DA000104B1A69510703D5DA6842F04002DA6025
:102DB000D3F81021520705D5D3F80C2142F0400278
:102DC000C3F80C21FFF7B8FF064BDA6842F00102A6
:102DD000DA60D3F80C2142F00102C3F80C2108BDDF
:102DE000AE460020002000520F289ABF00F58060F8
:102DF00040040020704700004FF40030704700008E
:102E0000102070470F2808B50BD8FFF7EDFF00F52D
:102E100000330268013204D104308342F9D1012029
:102E200008BD0020FCE700000F2838B505463FD854
:102E3000FFF782FF1F4CFFF78DFF4FF0FF3307288E
:102E40006361C4F814311DD82361FFF775FF0302D5
:102E500043F02403E360E36843F08003E360236905
:102E60005A07FCD42846FFF767FFFFF7BDFF4FF472
:102E7000003100F0D5F92846FFF78EFFBDE8384055
:102E8000FFF7C0BFC4F81031FFF756FFA0F10803E9
:102E90001B0243F02403C4F80C31D4F80C3143F086
:102EA0008003C4F80C31D4F810315B07FBD4D9E7A8
:102EB000002038BD002000522DE9F84F05460C4691
:102EC000104645EA0203DE0602D00020BDE8F88F76
:102ED00020F01F00DFF8BCB0DFF8BCA0FFF73AFF1E
:102EE00004EB0008444503D10120FFF755FFEDE74F
:102EF000202229462046FDF79FFA10B920352034BC
:102F0000F0E72B4605F120021F68791CDDD1043360
:102F10009A42F9D105F178431B481C4EB3F5801F46
:102F20001B4B38BF184603F1F80332BFD946D146D0
:102F30001E46FFF701FF0760A5EB040C336804F1A0
:102F40001C0143F002033360231FD9F8007017F00F
:102F50000507FAD153F8042F8B424CF80320F4D123
:102F6000BFF34F8FFFF7E8FE4FF0FF3320222146DB
:102F700003602846336823F002033360FDF75CFAF0
:102F80000028BBD03846B0E7142100520C20005274
:102F900014200052102000521021005210B5084C8D
:102FA000237828B11BB9FFF7D5FE0123237010BD8C
:102FB000002BFCD02070BDE81040FFF7EDBE00BF35
:102FC000AE4600202DE9F04F0D4685B0814658B140
:102FD00011F00D0614BF2022082211F008030193FE
:102FE00004D0431E034269D0002435E0002E37D0C0
:102FF00009F11F0121F01F094FF00108314F05F0C1
:103000000403DFF8CCA005EA080BBBF1000F32D0B7
:103010007869C0072FD408F101080C37B8F1060F02
:10302000F3D19EB9284D4946A819019201F094F9AF
:103030000446002839D12036019AA02EF3D1494602
:1030400001F08AF9044600282FD1019A49461F4809
:1030500001F082F9044660BB204605B0BDE8F08F60
:103060000029C9D101462846029201F075F90446AB
:10307000D8B9029AC0E713B178694107CBD5AC073C
:1030800002D578698007C6D5019911B17869010721
:10309000C1D549460AEB4810CDE9022301F05CF99D
:1030A0000446DDE902230028B5D04A460021204627
:1030B00001E04A460021FDF79DFFCDE70246002EC4
:1030C00096D199E7C85B0008F0460020B046002082
:1030D000D04600200121FFF775BF000070B5144DE8
:1030E0000124144E40F2FF3200210120FDF782FF3F
:1030F00006EB441001342A6955F80C1F01F018F949
:10310000062CF5D137254FF4C0542046FFF7E2FFD7
:10311000014628B122460848BDE8704001F008B9D0
:10312000C4EBC404013D4FEAD404EED170BD00BF2E
:10313000C85B0008D0460020B04600200421FFF7FD
:1031400041BF000008B101F079B9704770B5AAB16C
:1031500040EA010313F01F030FD1094C0144A56895
:103160006D0706D52568A84203D366683544A94291
:1031700004D903330C34122BF1D10022104670BD58
:10318000C85B00080244074BD2B210B5904200D190
:1031900010BD441C00B253F8200041F8040BE0B20B
:1031A000F4E700BF504000580E4B30B51C6F2404AC
:1031B00005D41C6F1C671C6F44F400441C670A4C48
:1031C00002442368D2B243F480732360074B9042D9
:1031D00000D130BD441C51F8045B00B243F82050CC
:1031E000E0B2F4E70044025800480258504000584A
:1031F00007B5012201A90020FFF7C4FF019803B021
:103200005DF804FB13B50446FFF7F2FFA04205D0BA
:10321000012201A900200194FFF7C6FF02B010BDF2
:103220000144BFF34F8F064B884204D3BFF34F8F47
:10323000BFF36F8F7047C3F85C022030F4E700BF24
:1032400000ED00E00144BFF34F8F064B884204D3EA
:10325000BFF34F8FBFF36F8F7047C3F870022030FA
:10326000F4E700BF00ED00E0034B1A681AB9034A07
:10327000D2F8D0241A6070479047002000400258CE
:1032800008B5FFF7F1FF024B1868C0F3806008BD76
:1032900090470020EFF30983054968334A6B22F019
:1032A00001024A6383F30988002383F3118870477E
:1032B00000EF00E0302080F3118862B60D4B0E4A1B
:1032C000D96821F4E0610904090C0A430B49DA606A
:1032D000D3F8FC2042F08072C3F8FC20084AC2F800
:1032E000B01F116841F0010111602022DA7783F8E4
:1032F0002200704700ED00E00003FA0555CEACC592
:10330000001000E0302310B583F311880E4B5B688A
:1033100013F4006314D0F1EE103AEFF309844FF088
:103320008073683CE361094BDB6B236684F3098897
:10333000FFF77AF910B1064BA36110BD054BFBE70F
:1033400083F31188F9E700BF00ED00E000EF00E033
:103350002F0400083204000870B5BFF34F8FBFF38D
:103360006F8F1A4A0021C2F85012BFF34F8FBFF37C
:103370006F8F536943F400335361BFF34F8FBFF333
:103380006F8FC2F88410BFF34F8FD2F8803043F6AE
:10339000E074C3F3C900C3F34E335B0103EA0406D0
:1033A000014646EA81750139C2F86052F9D2203BE4
:1033B00013F1200FF2D1BFF34F8F536943F48033E1
:1033C0005361BFF34F8FBFF36F8F70BD00ED00E00F
:1033D000FEE70000214B2248224A70B5904237D3C5
:1033E000214BC11EDA1C121A22F003028B4238BF95
:1033F00000220021FDF7FEFD1C4A0023C2F88430A4
:10340000BFF34F8FD2F8803043F6E074C3F3C900A6
:10341000C3F34E335B0103EA0406014646EA8175B5
:103420000139C2F86C52F9D2203B13F1200FF2D1CE
:10343000BFF34F8FBFF36F8FBFF34F8FBFF36F8F0C
:103440000023C2F85032BFF34F8FBFF36F8F70BDB0
:1034500053F8041B40F8041BC0E700BF3C5E0008A3
:10346000E44B0020E44B0020E44B002000ED00E0A2
:10347000074BD3F8D81021EA0001C3F8D810D3F8CD
:10348000002122EA0002C3F80021D3F8003170477E
:103490000044025870B5D0E9244300224FF0FF35B4
:1034A0009E6804EB42135101D3F80009002805DAA5
:1034B000D3F8000940F08040C3F80009D3F8000BAE
:1034C000002805DAD3F8000B40F08040C3F8000B69
:1034D000013263189642C3F80859C3F8085BE0D27A
:1034E0004FF00113C4F81C3870BD0000890141F091
:1034F0002001016103699B06FCD41220FFF7DEB8AE
:1035000010B50A4C2046FEF779FD094BC4F89030FF
:10351000084BC4F89430084C2046FEF76FFD074B6B
:10352000C4F89030064BC4F8943010BD9447002086
:1035300000000840345C00083048002000000440CF
:10354000405C000870B503780546012B5CD1434B05
:10355000D0F89040984258D1414B0E216520D3F8C5
:10356000D82042F00062C3F8D820D3F8002142F0FE
:103570000062C3F80021D3F80021D3F8802042F084
:103580000062C3F88020D3F8802022F00062C3F8E4
:103590008020D3F88030FEF797F9324BE360324B4E
:1035A000C4F800380023D5F89060C4F8003EC0236A
:1035B00023604FF40413A3633369002BFCDA012367
:1035C0000C203361FFF77AF83369DB07FCD4122053
:1035D000FFF774F83369002BFCDA00262846A66052
:1035E000FFF758FF6B68C4F81068DB68C4F814680C
:1035F000C4F81C6883BB1D4BA3614FF0FF336361AC
:10360000A36843F00103A36070BD194B9842C9D170
:10361000134B4FF08060D3F8D82042F00072C3F80B
:10362000D820D3F8002142F00072C3F80021D3F86B
:103630000021D3F8802042F00072C3F88020D3F834
:10364000802022F00072C3F88020D3F88030FFF78A
:103650000FFF0E214D209EE7064BCDE7944700203B
:10366000004402584014004003002002003C30C0D7
:1036700030480020083C30C0F8B5D0F890400546EE
:1036800000214FF000662046FFF730FFD5F8941078
:1036900000234FF001128F684FF0FF30C4F8343828
:1036A000C4F81C2804EB431201339F42C2F800699E
:1036B000C2F8006BC2F80809C2F8080BF2D20B6816
:1036C000D5F89020C5F8983063621023136116690D
:1036D00016F01006FBD11220FEF7F0FFD4F80038E8
:1036E00023F4FE63C4F80038A36943F4402343F095
:1036F0001003A3610923C4F81038C4F814380B4B25
:10370000EB604FF0C043C4F8103B094BC4F8003BDA
:10371000C4F81069C4F80039D5F8983003F11002E4
:1037200043F48013C5F89820A362F8BD105C00082C
:1037300040800010D0F8902090F88A10D2F800381D
:1037400023F4FE6343EA0113C2F800387047000017
:103750002DE9F84300EB8103D0F890500C468046E9
:10376000DA680FFA81F94801166806F00306731E3D
:10377000022B05EB41134FF0000194BFB604384E05
:10378000C3F8101B4FF0010104F1100398BF06F1BC
:10379000805601FA03F3916998BF06F500460029A7
:1037A0003AD0578A04F15801374349016F50D5F890
:1037B0001C180B430021C5F81C382B180127C3F82F
:1037C0001019A7405369611E9BB3138A928B9B0803
:1037D000012A88BF5343D8F89820981842EA034337
:1037E00001F140022146C8F89800284605EB820204
:1037F0005360FFF77BFE08EB8900C3681B8A43EA2E
:10380000845348341E4364012E51D5F81C381F439D
:10381000C5F81C78BDE8F88305EB4917D7F8001BFD
:1038200021F40041C7F8001BD5F81C1821EA030356
:10383000C0E704F13F030B4A2846214605EB83030A
:103840005A60FFF753FE05EB4910D0F8003923F416
:103850000043C0F80039D5F81C3823EA0707D7E73A
:103860000080001000040002D0F894201268C0F814
:103870009820FFF70FBE00005831D0F89030490172
:103880005B5813F4004004D013F4001F0CBF022057
:10389000012070474831D0F8903049015B5813F44B
:1038A000004004D013F4001F0CBF02200120704719
:1038B00000EB8101CB68196A0B6813604B68536099
:1038C0007047000000EB810330B5DD68AA6913681A
:1038D000D36019B9402B84BF402313606B8A1468EE
:1038E000D0F890201C4402EB4110013C09B2B4FB1B
:1038F000F3F46343033323F0030343EAC44343F085
:10390000C043C0F8103B2B6803F00303012B0ED11A
:10391000D2F8083802EB411013F4807FD0F8003B56
:1039200014BF43F0805343F00053C0F8003B02EB58
:103930004112D2F8003B43F00443C2F8003B30BDD3
:103940002DE9F041D0F8906005460C4606EB411396
:10395000D3F8087B3A07C3F8087B08D5D6F81438A3
:103960001B0704D500EB8103DB685B689847FA0707
:103970001FD5D6F81438DB071BD505EB8403D968AF
:10398000CCB98B69488A5A68B2FBF0F600FB162264
:103990008AB91868DA6890420DD2121AC3E9002475
:1039A000302383F3118821462846FFF78BFF84F3E9
:1039B0001188BDE8F081012303FA04F26B8923EA40
:1039C00002036B81CB68002BF3D021462846BDE86B
:1039D000F041184700EB81034A0170B5DD68D0F86B
:1039E00090306C692668E66056BB1A444FF400209C
:1039F000C2F810092A6802F00302012A0AB20ED1A5
:103A0000D3F8080803EB421410F4807FD4F80009BF
:103A100014BF40F0805040F00050C4F8000903EBA0
:103A20004212D2F8000940F00440C2F80009012215
:103A3000D3F8340802FA01F10143C3F8341870BD19
:103A400019B9402E84BF4020206020681A442E8A75
:103A50008419013CB4FBF6F440EAC44040F0005045
:103A6000C6E700002DE9F843D0F8906005460C4603
:103A70004F0106EB4113D3F8088918F0010FC3F882
:103A800008891CD0D6F81038DB0718D500EB810365
:103A9000D3F80CC0DCF81430D3F800E0DA689645AF
:103AA00030D2A2EB0E024FF000091A60C3F8049066
:103AB000302383F31188FFF78DFF89F3118818F005
:103AC000800F1DD0D6F834380126A640334217D0D7
:103AD00005EB84030134D5F89050D3F80CC0E4B260
:103AE0002F44DCF8142005EB0434D2F800E05168D0
:103AF000714514D3D5F8343823EA0606C5F834687E
:103B0000BDE8F883012303FA01F2038923EA0203E3
:103B10000381DCF80830002BD1D09847CFE7AEEB1B
:103B20000103BCF81000834228BF0346D7F81809E8
:103B300080B2B3EB800FE3D89068A0F1040959F884
:103B4000048FC4F80080A0EB09089844B8F1040F72
:103B5000F5D818440B4490605360C8E72DE9F84F3E
:103B6000D0F8905004466E69AB691E4016F4805838
:103B70006E6103D0BDE8F84FFEF7B0BA002E12DA3E
:103B8000D5F8003E9B0705D0D5F8003E23F003038F
:103B9000C5F8003ED5F80438204623F00103C5F8E7
:103BA0000438FEF7C9FA370505D52046FFF772FC41
:103BB0002046FEF7AFFAB0040CD5D5F8083813F05C
:103BC000060FEB6823F470530CBF43F4105343F417
:103BD000A053EB6031071BD56368DB681BB9AB6989
:103BE00023F00803AB612378052B0CD1D5F8003EF8
:103BF0009A0705D0D5F8003E23F00303C5F8003E30
:103C00002046FEF799FA6368DB680BB120469847B7
:103C1000F30200F1BA80B70226D5D4F890900027BD
:103C20004FF0010A09EB4712D2F8003B03F440239E
:103C3000B3F5802F11D1D2F8003B002B0DDA628949
:103C40000AFA07F322EA0303638104EB8703DB68C4
:103C5000DB6813B13946204698470137D4F89430D1
:103C6000FFB29B689F42DDD9F00619D5D4F89000C9
:103C7000026AC2F30A1702F00F0302F4F012B2F55F
:103C8000802F00F0CA80B2F5402F09D104EB8303E6
:103C9000002200F58050DB681B6A974240F0B0803C
:103CA0003003D5F8185835D5E90303D5002120464F
:103CB000FFF746FEAA0303D501212046FFF740FE89
:103CC0006B0303D502212046FFF73AFE2F0303D5ED
:103CD00003212046FFF734FEE80203D504212046E5
:103CE000FFF72EFEA90203D505212046FFF728FE87
:103CF0006A0203D506212046FFF722FE2B0203D5D8
:103D000007212046FFF71CFEEF0103D508212046BE
:103D1000FFF716FE700340F1A780E90703D50021E5
:103D20002046FFF79FFEAA0703D501212046FFF793
:103D300099FE6B0703D502212046FFF793FE2F075C
:103D400003D503212046FFF78DFEEE0603D504219F
:103D50002046FFF787FEA80603D505212046FFF77A
:103D600081FE690603D506212046FFF77BFE2A0661
:103D700003D507212046FFF775FEEB0574D52046D5
:103D80000821BDE8F84FFFF76DBED4F890904FF0D2
:103D9000000B4FF0010AD4F894305FFA8BF79B6860
:103DA0009F423FF638AF09EB4713D3F8002902F4DE
:103DB0004022B2F5802F20D1D3F80029002A1CDA46
:103DC000D3F8002942F09042C3F80029D3F8002923
:103DD000002AFBDB3946D4F89000FFF787FB2289E5
:103DE0000AFA07F322EA0303238104EB8703DB6863
:103DF0009B6813B13946204698470BF1010BCAE77F
:103E0000910701D1D0F80080072A02F101029CBF7E
:103E100003F8018B4FEA18283FE704EB830300F512
:103E20008050DA68D2F818C0DCF80820DCE9001C01
:103E3000A1EB0C0C00218F4208D1DB689B699A68CA
:103E40003A449A605A683A445A6029E711F0030FDD
:103E500001D1D0F800808C4501F1010184BF02F846
:103E6000018B4FEA1828E6E7BDE8F88F08B503484C
:103E7000FFF774FEBDE80840FFF744BA94470020FE
:103E800008B50348FFF76AFEBDE80840FFF73ABAF5
:103E900030480020D0F8903003EB4111D1F8003BBE
:103EA00043F40013C1F8003B70470000D0F8903095
:103EB00003EB4111D1F8003943F40013C1F8003984
:103EC00070470000D0F8903003EB4111D1F8003B6F
:103ED00023F40013C1F8003B70470000D0F8903085
:103EE00003EB4111D1F8003923F40013C1F8003974
:103EF0007047000030B50433039C0172002104FBBD
:103F00000325C160C0E90653049B0363059BC0E918
:103F10000000C0E90422C0E90842C0E90A11436375
:103F200030BD00000022416AC260C0E90411C0E94E
:103F30000A226FF00101FEF76DBC0000D0E90432E7
:103F4000934201D1C2680AB9181D7047002070471A
:103F5000036919600021C2680132C260C26913445A
:103F600082699342036124BF436A0361FEF746BC42
:103F700038B504460D46E3683BB162690020131D65
:103F80001268A3621344E36207E0237A33B9294637
:103F90002046FEF723FC0028EDDA38BD6FF0010063
:103FA000FBE70000C368C269013BC3604369134477
:103FB00082699342436124BF436A43610023836261
:103FC000036B03B11847704770B53023044683F381
:103FD0001188866A3EB9FFF7CBFF054618B186F314
:103FE0001188284670BDA36AE26A13F8015B934208
:103FF000A36202D32046FFF7D5FF002383F3118885
:10400000EFE700002DE9F84F04460E4617469846A4
:104010004FF0300989F311880025AA46D4F828B05A
:10402000BBF1000F09D141462046FFF7A1FF20B1A7
:104030008BF311882846BDE8F88FD4E90A12A7EB64
:10404000050B521A934528BF9346BBF1400F1BD96D
:10405000334601F1400251F8040B914243F8040B3E
:10406000F9D1A36A403640354033A362D4E90A232C
:104070009A4202D32046FFF795FF8AF31188BD428A
:10408000D8D289F31188C9E730465A46FCF78CFF2D
:10409000A36A5E445D445B44A362E7E710B5029CFB
:1040A0000433017203FB0421C460C0E9061300233A
:1040B000C0E90A33039B0363049BC0E90000C0E925
:1040C0000422C0E90842436310BD0000026A6FF099
:1040D0000101C260426AC0E904220022C0E90A224A
:1040E000FEF798BBD0E904239A4201D1C26822B9F5
:1040F000184650F8043B0B60704700231846FAE757
:10410000C3680021C2690133C360436913448269F3
:104110009342436124BF436A4361FEF76FBB0000D3
:1041200038B504460D46E3683BB1236900201A1DEB
:10413000A262E2691344E36207E0237A33B92946B5
:104140002046FEF74BFB0028EDDA38BD6FF001008A
:10415000FBE7000003691960C268013AC260C269E6
:10416000134482699342036124BF436A03610023BD
:104170008362036B03B118477047000070B53023AA
:104180000D460446114683F31188866A2EB9FFF75F
:10419000C7FF10B186F3118870BDA36A1D70A36AB2
:1041A000E26A01339342A36204D3E16920460439F1
:1041B000FFF7D0FF002080F31188EDE72DE9F84FDD
:1041C00004460D46904699464FF0300A8AF311880E
:1041D0000026B346A76A4FB949462046FFF7A0FF1D
:1041E00020B187F311883046BDE8F88FD4E90A077B
:1041F0003A1AA8EB0607974228BF1746402F1BD94B
:1042000005F1400355F8042B9D4240F8042BF9D1E9
:10421000A36A40364033A362D4E90A239A4204D306
:10422000E16920460439FFF795FF8BF31188464575
:10423000D9D28AF31188CDE729463A46FCF7B4FE75
:10424000A36A3D443E443B44A362E5E7D0E904232E
:104250009A4217D1C3689BB1836A8BB1043B9B1A06
:104260000ED01360C368013BC360C3691A448369FD
:104270009A42026124BF436A0361002383620123DF
:10428000184670470023FBE700F0B2BA014B586AAA
:10429000704700BF000C0040034B002258631A61B6
:1042A0000222DA60704700BF000C0040014B002280
:1042B000DA607047000C0040014B5863704700BF44
:1042C000000C0040024B034A1A60034A5A607047D0
:1042D000E4480020E84B002000000220074B494240
:1042E00010B55C68201A08401968821A8A4203D304
:1042F000A24201D85A6010BD0020FCE7E44800202B
:1043000008B5302383F31188FFF7E8FF002383F318
:10431000118808BD0448054B03600023C0E9013340
:104320000C3000F017B900BFEC4800200143000832
:10433000CB1D083A23F00703591A521A10B4D208B9
:104340000024C0E9004384600C301C605A605DF8B2
:10435000044B00F0FFB800002DE9F74F364FCD1D9C
:104360008846002818BF0746082A4FEAD50538BFF7
:10437000082207F10C003C1D9146019000F02CF939
:10438000019809F10701C9F1000E2246246864B9B9
:1043900000F02CF93B68CBB308224946E800984767
:1043A000044698B340E9027830E004EB010CD4F8FD
:1043B00004A00CEA0E0C0AF10106ACF1080304EBB0
:1043C000C6069E42E1D9A6EB0C0CB5EBEC0F4FEA0A
:1043D000EC0BDAD89C421DD204F10802AB45A3EBEA
:1043E00002024FEAE202626009D9691CED4303EB65
:1043F000C1025D445560256843F8315022601C4677
:10440000C3F8048044F8087B00F0F0F8204603B0BD
:10441000BDE8F08FAA45216802D111602346EEE77E
:10442000013504EBC50344F8351003F10801761A91
:10443000F6105E601360F1E7EC48002073B50446A7
:10444000A0F1080550F8080C54F8043C061D0C3087
:1044500007330190DB0844F8043C00F0BDF8334614
:1044600001989E421A6801D0AB4228D20AB1954207
:1044700025D244F8082C54F8042C1D60013254F85D
:10448000081C05EBC206B14206D14E68324444F81E
:10449000042C0A6844F8082C5E68711C03EBC10107
:1044A0008D4207D154F8042C013232445A6054F83A
:1044B000082C1A6002B0BDE8704000F097B81346AF
:1044C000CFE70000FEE7000070B51E4B0025044654
:1044D00086B058600E4605638163FEF7EBFE04F17B
:1044E0002803A5606563C4E90A3304F11003C4E935
:1044F00004334FF0FF33C4E90044C4E90635FFF745
:10450000C5FE2B46024604F13C012046C4E90823BF
:1045100080230D4A6567FEF7DBF87368E0600B4A9D
:1045200003620123009280F824306846F268019209
:104530003269CDE90223064BCDE90435FEF7FCF8DC
:1045400006B070BD702B0020545C00084C5C000865
:10455000C54400080023C0E9000083600361704780
:1045600070B51C4B05468468DE685CB3B44213D159
:1045700003690133036170BDA36094F8243083B1F3
:10458000062B15D1A06A2146D4E9003213605A6087
:10459000FEF70AF8A36A9C68B368A2689A42EBD354
:1045A00006E0D4E90032204613605A60FEF70CF8AA
:1045B00028463146FDF7F8FFB5620620BDE8704099
:1045C000FEF704B80369866001330361336BC3608F
:1045D0003063D0E7C828002008B5302383F3118862
:1045E000FFF7BEFF002383F3118808BD194BD9687C
:1045F00083688B4210B520D1302383F31188026980
:10460000013A0261B2B90468C368A0420B631ED0CC
:104610004A6B9BB901238A60036103681A680260D0
:1046200050601A6B8360C26018631846FDF7CCFFB8
:10463000FEF71CF8002383F3118810BD1C68A34209
:1046400003D0A468A24238BF2246DB68E1E782605B
:10465000F0E700BFC8280020024A536B184350639C
:10466000704700BFC82800204B6843608B68836098
:10467000CB68C3600B6943614B6903628B6943621A
:104680000B6803607047000008B53C4B40F2FF71B7
:104690003B48D3F888200A43C3F88820D3F8882001
:1046A00022F4FF6222F00702C3F88820D3F88820A2
:1046B000D3F8E0200A43C3F8E020D3F808210A43E6
:1046C000C3F808212F4AD3F808311146FFF7CCFF71
:1046D00000F5806002F11C01FFF7C6FF00F5806065
:1046E00002F13801FFF7C0FF00F5806002F15401CC
:1046F000FFF7BAFF00F5806002F17001FFF7B4FF29
:1047000000F5806002F18C01FFF7AEFF00F58060DC
:1047100002F1A801FFF7A8FF00F5806002F1C401D3
:10472000FFF7A2FF00F5806002F1E001FFF79CFFB8
:1047300000F5806002F1FC01FFF796FF02F58C7135
:1047400000F58060FFF790FF00F01EF90E4BD3F8E4
:10475000902242F00102C3F89022D3F8942242F052
:104760000102C3F894220522C3F898204FF060524A
:10477000C3F89C20054AC3F8A02008BD0044025895
:1047800000000258805C000800ED00E01F000803F4
:1047900008B500F0E9FAFDF775FF104BD3F8DC20FF
:1047A00042F04002C3F8DC20D3F8042122F040029A
:1047B000C3F80421D3F80431094B1A6842F0080207
:1047C0001A601A6842F004021A60FEF74DFDFEF707
:1047D00085FCBDE80840FEF709BA00BF0044025856
:1047E0000018024801207047002070477047000001
:1047F000114BD3F8E82042F00802C3F8E820D3F8C0
:10480000102142F00802C3F810210C4AD3F81031ED
:10481000D36B43F00803D363C722094B9A624FF06E
:10482000FF32DA6200229A615A63DA605A6001222A
:104830005A611A60704700BF004402580010005CC3
:10484000000C0040094A08B51169D3680B40D9B281
:104850009B076FEA0101116107D5302383F31188AB
:10486000FDF72AFF002383F3118808BD000C0040E8
:10487000064BD3F8DC200243C3F8DC20D3F8042134
:104880001043C3F80401D3F80431704700440258C0
:1048900008B53C4B4FF0FF31D3F8802062F0004266
:1048A000C3F88020D3F8802002F00042C3F88020B3
:1048B000D3F88020D3F88420C3F88410D3F8842060
:1048C0000022C3F88420D3F88400D86F40F0FF4062
:1048D00040F4FF0040F4DF4040F07F00D867D86F1D
:1048E00020F0FF4020F4FF0020F4DF4020F07F00A4
:1048F000D867D86FD3F888006FEA40506FEA5050FD
:10490000C3F88800D3F88800C0F30A00C3F8880011
:10491000D3F88800D3F89000C3F89010D3F8900033
:10492000C3F89020D3F89000D3F89400C3F8941003
:10493000D3F89400C3F89420D3F89400D3F89800E7
:10494000C3F89810D3F89800C3F89820D3F89800CB
:10495000D3F88C00C3F88C10D3F88C00C3F88C20EB
:10496000D3F88C00D3F89C00C3F89C10D3F89C10AB
:10497000C3F89C20D3F89C30FCF7B8FDBDE8084094
:1049800000F0C2B90044025808B50122534BC3F8E5
:104990000821534BD3F8F42042F00202C3F8F4206C
:1049A000D3F81C2142F00202C3F81C210222D3F8E2
:1049B0001C314C4BDA605A689104FCD54A4A1A60A3
:1049C00001229A60494ADA6000221A614FF440429B
:1049D0009A61444B9A699204FCD51A6842F4807239
:1049E0001A603F4B1A6F12F4407F04D04FF48032AC
:1049F0001A6700221A671A6842F001021A60384BDF
:104A00001A685007FCD500221A611A6912F03802A0
:104A1000FBD1012119604FF0804159605A67344A37
:104A2000DA62344A1A611A6842F480321A602C4BF6
:104A30001A689103FCD51A6842F480521A601A6809
:104A40009204FCD52C4A2D499A6200225A631963BC
:104A500001F57C01DA6301F2E71199635A64284A8F
:104A60001A64284ADA621A6842F0A8521A601C4B8B
:104A70001A6802F02852B2F1285FF9D148229A61EF
:104A80004FF48862DA6140221A621F4ADA641F4AD0
:104A90001A651F4A5A651F4A9A6532231E4A1360D7
:104AA000136803F00F03022BFAD10D4A136943F088
:104AB00003031361136903F03803182BFAD14FF085
:104AC0000050FFF7D5FE4FF08040FFF7D1FE4FF0CA
:104AD0000040BDE80840FFF7CBBE00BF008000519A
:104AE000004402580048025800C000F002000001D3
:104AF0000000FF01008890081210200063020901E5
:104B0000470E0508DD0BBF0120000020000001104A
:104B10000910E00000010110002000524FF0B042E7
:104B200008B5D2F8883003F00103C2F8883023B109
:104B3000044A13680BB150689847BDE80840FEF777
:104B4000E1BB00BF0C4900204FF0B04208B5D2F8DD
:104B5000883003F00203C2F8883023B1044A936816
:104B60000BB1D0689847BDE80840FEF7CBBB00BF4B
:104B70000C4900204FF0B04208B5D2F8883003F05D
:104B80000403C2F8883023B1044A13690BB1506999
:104B90009847BDE80840FEF7B5BB00BF0C490020B0
:104BA0004FF0B04208B5D2F8883003F00803C2F8DD
:104BB000883023B1044A93690BB1D0699847BDE8A6
:104BC0000840FEF79FBB00BF0C4900204FF0B042E9
:104BD00008B5D2F8883003F01003C2F8883023B14A
:104BE000044A136A0BB1506A9847BDE80840FEF7C3
:104BF00089BB00BF0C4900204FF0B04310B5D3F87B
:104C0000884004F47872C3F88820A30604D5124AB9
:104C1000936A0BB1D06A9847600604D50E4A136BAD
:104C20000BB1506B9847210604D50B4A936B0BB11F
:104C3000D06B9847E20504D5074A136C0BB1506C52
:104C40009847A30504D5044A936C0BB1D06C9847E0
:104C5000BDE81040FEF756BB0C4900204FF0B043B2
:104C600010B5D3F8884004F47C42C3F8882062056C
:104C700004D5164A136D0BB1506D9847230504D522
:104C8000124A936D0BB1D06D9847E00404D50F4ADA
:104C9000136E0BB1506E9847A10404D50B4A936E66
:104CA0000BB1D06E9847620404D5084A136F0BB15C
:104CB000506F9847230404D5044A936F0BB1D06F0B
:104CC0009847BDE81040FEF71DBB00BF0C4900200F
:104CD00008B5034800F014FDBDE80840FEF712BB1C
:104CE0008C49002008B50348FCF768FDBDE8084082
:104CF000FEF708BB5C24002008B5FFF7A3FDBDE864
:104D00000840FEF7FFBA0000062108B50846FCF788
:104D1000DBFD06210720FCF7D7FD06210820FCF764
:104D2000D3FD06210920FCF7CFFD06210A20FCF760
:104D3000CBFD06211720FCF7C7FD06212820FCF734
:104D4000C3FD09217A20FCF7BFFD09213120FCF7C2
:104D5000BBFD07213220FCF7B7FD0C215220BDE836
:104D60000840FCF7B1BD000008B5FFF791FD00F069
:104D700015FAFCF767FF00F003FAFDF73DF9FDF7C0
:104D80000FF8FFF733FDBDE80840FFF77DBA0000DC
:104D90000379052B05BF836A002001204B6004BF07
:104DA0004FF400730B60704770B55D1E866A044651
:104DB0000D44B54205D9436B43F0800343630120A2
:104DC00070BD0625057100F04DFC05232371F7E742
:104DD00070B55D1E866A04460D44B54205D9436B25
:104DE00043F080034363012070BD0725057100F087
:104DF0005FFC05232371F7E738B505790446052DD7
:104E000005D10823037100F079FC257138BD01201C
:104E1000FCE700000323F0B5037185B0044600F001
:104E200013FA00222046114600F058FA4FF4D572CA
:104E300003AB0821204600F073FA0246B8B90123FB
:104E40002363039BC3F30323012B09D103AB372156
:104E5000204600F065FA18B9A44B039A1340ABB191
:104E60002046012500F022FA0223237137E103AB2B
:104E700000223721204600F053FA28B99B4A039BB1
:104E80001A40002A00F0A78002232363236B03F05B
:104E90000F03022B40F0A9806425954E42F210705A
:104EA000FDF778FC03AB32460121204600F022FAE0
:104EB0000028D5D1039B002B80F293805A0003D5A4
:104EC000236B43F010032363002204F10803022143
:104ED000204600F083FA02460028C1D104F13803CD
:104EE0000321204600F01CFA0028B9D104F118056E
:104EF000A26B092120462B4600F070FA0028AFD1A2
:104F000002ABA26B0721204600F00AFA06460028F1
:104F1000A6D1236B03F00F03022B40F08F807E227B
:104F20007F21284600F0FAFB012840F28780E76BDA
:104F300042F21070FDF72EFC08234FF40072394640
:104F40002046009600F066FA002889D1384600F025
:104F500033FC236BA06203F00F03022B72D103AB6F
:104F6000644A0621204600F0DBF9002871D15F4930
:104F7000039B1940B1FA81F14909204600F076F906
:104F800002AB4FF400721021204600F0C9F905462B
:104F900000287FF465AF554E029B33427FF460AF2B
:104FA000236B13F00E0F03F00F0273D0022A7FF46D
:104FB00057AFE36A1978012900F09480022900F0C4
:104FC0009380002900F089804B4F204600F074F94F
:104FD00003AB3A4676E011462046226300F07EF9A4
:104FE00054E7013D7FF45AAF3AE7444D6426444A02
:104FF0003E4F012B18BF154603AB00223721204638
:1050000000F08EF900287FF42BAF039B3B427FF426
:1050100027AF03AB2A462921204600F06BF9002870
:105020007FF41EAF039B002BFFF648AF013E3FF419
:1050300017AF42F21070FDF7ADFBDDE7284600F038
:105040008FFB86E77E227F212846E66B00F066FB19
:1050500008B9002191E70023402231462046009301
:10506000062300F0D7F90028F3D1B3895BBA9B0778
:10507000EFD5244B4022314620460093062300F012
:10508000C9F90028E5D1317C01F00F010F3918BFB3
:10509000012172E7E36A1978F9B101297FF4E0AEE2
:1050A000204600F009F903ABA26B3721204600F03F
:1050B00037F900287FF4D4AE039B33427FF4D0AE9F
:1050C00003AB02220621204600F02AF900287FF4D3
:1050D000C7AE039B33427FF4C3AE0523237128463A
:1050E00005B0F0BD084F70E7084F6EE708E0FFFD20
:1050F0000080FFC00001B9030000B7030080FF502B
:1051000000001080F1FFFF800001B7030002B70329
:1051100037B504460C4D01ABA26B0D21204600F0C3
:10512000FFF878B9019B2B420BD1C3F34323042B27
:1051300008D0053B022B04D84FF47A70FDF72AFB08
:10514000E9E7012003B030BD08E0FFFD70B5302372
:10515000054683F3118803790024022B03D184F3DD
:105160001188204670BD0423037184F31188022640
:10517000FFF7CEFF0446284600F098F82E71F0E7BE
:1051800000F048B8044B036001230371002343631C
:10519000C0E90A33704700BFB45D00080023054A28
:1051A00019460133102BC2E9001102F10802F8D1AF
:1051B000704700BF0C490020084BC26A994228BFC3
:1051C0001946836C50688B4210B506D95A1E4C00A4
:1051D00002EB4103B3FBF4F3184410BD20BCBE0046
:1051E00001F001038A0748BF43F002034A0748BFA2
:1051F00043F008030A0748BF43F00403CA0648BF48
:1052000043F010038A06426B48BF43F02003134368
:105210004363704710B5074C2046FFF7B3FF064BBA
:105220000022C4E91023054BA364054BE363054B3F
:10523000E36410BD8C4900200070005200B4C40427
:10524000E0490020E04B002010B5446C0649FFF710
:10525000B3FF6060236842F2107043F003032360E1
:10526000BDE81040FDF796BA801A06000129F8B58E
:10527000466C0B4F09D175680A493D40FFF79CFF0A
:10528000054345F480557560F8BD746806493C4097
:10529000FFF792FF044344F480547460F4E700BFC6
:1052A00000ECFFFF80F0FA0240787D01436C0022A1
:1052B0005A601A6070470000426C0129536823F459
:1052C000404304D0022905D001B95360704743F42C
:1052D0008043FAE743F40043F7E70000436C41F4EE
:1052E00080519A60D9605A6B1206FCD580229A636D
:1052F0007047000010B541F48851446CA260E16031
:10530000616B11F04502FBD0A26311F0040203D0DF
:10531000FFF766FF012010BD616910461960FAE7CA
:1053200010B541F48851446CA260E160616B11F0EA
:105330004502FBD0A26311F0050203D0FFF750FF36
:10534000012010BD616910461960FAE773B5134674
:1053500004460E46302282F31188426CD26B32B181
:105360004FF0FF3140300193FDF720FA019B606C54
:1053700000220265C263C262456B15F4807504D1D8
:1053800085F31188012002B070BD4FF0FF318163B9
:1053900082F31188012E06D90C21204602B0BDE807
:1053A0007040FFF7BDBF1046EDE7000073B5446CD9
:1053B0000E4600250192616BA1632565E562FFF74A
:1053C0000FFF012E07D9019B2A460C2102B0BDE830
:1053D0007040FFF7A5BF02B070BD000010B541F4EA
:1053E0009851446CA260E160616B11F04502FBD002
:1053F000A26311F03F0203D0FFF7F2FE012010BDBF
:10540000216A10461960E1695960A1699960616972
:10541000D960F4E72DE9F74304460191006D01A935
:105420001746984600F0D8F9064600284AD0626C24
:105430002046DDF804905568C5F3090501356B0079
:10544000A56CB5FBF3F54FF47A73B5FBF3F55D434B
:105450005562FFF75DFE50BB636C4FF0FF320125D4
:105460004146C3F8589020461D659A634FF49572E3
:10547000DA6342F207029F62DA62E36C0A9AFFF78C
:105480004FFFA0B9E26C104B11680B407BB9294665
:105490002046FFF75BFF054648B92E463A4601997C
:1054A000206D00F0D1F9304603B0BDE8F0833A46F4
:1054B0000199206D00F0C8F9E26C01212046FFF748
:1054C00075FFF0E70126EEE708E0FFFD2DE9F74361
:1054D0001F46436C01924FF47A725D680446884619
:1054E000C5F3090501356E00856CB5FBF6F5B5FB16
:1054F000F2F555435D62FFF70BFE20B1012528460A
:1055000003B0BDE8F0837E0201A9206D324600F0B1
:1055100063F905460028F1D0636C019AD4F84C90E9
:105520009A6501221A654FF0FF329A634FF4957223
:10553000DA639E62236BDB064B4658BF4FEA48286E
:10554000012F42461BD912212046FFF7E9FEC0B9C0
:10555000D9F80020104B13409BB9636C42F29302C0
:1055600039462046DA62E26CFFF7F0FE804640B929
:1055700032460199206D454600F066F9BFE71121DA
:10558000E2E732460199206D00F05EF9E26C39469F
:105590002046FFF70BFFB2E708E0FFFD2DE9F341DE
:1055A0001F46436C01924FF47A725D680446884648
:1055B000C5F3090501356E00856CB5FBF6F5B5FB45
:1055C000F2F555435D62FFF7A3FD20B101252846A2
:1055D00002B0BDE8F0817E0201A9206D324600F0E4
:1055E00041F905460028F1D0636C019A9A650122C1
:1055F0001A654FF0FF329A634FF48D72DA639E6240
:10560000236BE66CDB06334658BF4FEA4828012F70
:10561000424619D919212046FFF782FEB0B93268F7
:105620000F4B134093B9636C42F291023946204606
:10563000DA62E26CFFF78AFE064638B90199354610
:10564000206D00F04BF9C2E71821E4E70199206DC5
:1056500000F044F9E26C39462046FFF7A7FEB6E7B2
:1056600008E0FFFD12F0030F2DE9F04107460C465C
:1056700015461E4617D00E44B44202D10020BDE8A4
:10568000F0810123FA6B21463846FFF71FFF0028FF
:10569000F5D128464FF40072F96B05F50075013419
:1056A000FBF782FCE8E7BDE8F041FFF70FBF000021
:1056B00012F0030F2DE9F04107460C4615461E4631
:1056C00017D00E44B44202D10020BDE8F081294633
:1056D0004FF40072F86B05F50075FBF765FC0123CC
:1056E000FA6B21463846FFF759FF0028EDD1013407
:1056F000E8E7BDE8F041FFF751BF00000020704728
:10570000302310B583F311880024436C40302146C8
:10571000DC63FDF759F884F3118810BD01F01F0315
:10572000F0B502F01F0456095A1C0123B6EB511FB5
:1057300050F8265003FA02F34FEA511703F1FF33F2
:105740003DBF50F82720C4F12000134003EA0500B4
:105750003BBF03FA00F225FA04F0E0401043F0BD2D
:1057600070B57E227F210546FFF7D8FF18B10128CA
:1057700019D0002070BD3E2249212846FFF7CEFFF8
:105780002F22044631212846FFF7C8FF0646013480
:105790005022023653212846B440FFF7BFFF093894
:1057A00004FA00F0E6E7302245212846FFF7B6FF6D
:1057B00001308002DEE7000090F8D63090F8D72064
:1057C0001B0403EB026390F8D42090F8D500134437
:1057D00003EB002070470000F8B50F46154604465D
:1057E00048B905F11F010126386821F01F01FDF7B6
:1057F00017FD3046F8BD427B29463868FDF7A6FC08
:1058000006460028EDD13B686360A368AB4210D226
:1058100013B12068FDF796FC637B28462BB1FDF79A
:105820008DFC206020B9A060E3E7FDF753FCF8E7AA
:10583000A560206805F11F01012621F01F013860D5
:10584000FDF7EEFC2673D4E710B5044640B10068BE
:10585000884205D1606808B1FBF7A6FB00232373DB
:1058600010BD0000F8B50F461446054648B904F1CE
:105870001F010126386821F01F01FDF7E3FC3046C7
:10588000F8BD427B21463868FDF760FC06460028DB
:10589000EDD1AB68A34210D213B12868FDF752FCDA
:1058A0006B7B20462BB1FDF749FC286020B9A8602E
:1058B000E5E7FDF70FFCF8E7AC60396819B122465F
:1058C0002868FBF771FB286804F11F01012621F00D
:1058D0001F013860FDF7B6FC2E73D0E720B10368D6
:1058E0008B4204BF002303737047000053544D33B1
:1058F0003248373F3F3F0053544D333248373378B7
:105900002F3732780053544D3332483734332F37E2
:1059100035332F373530000001105A00031059007D
:1059200001205800032056001000024008000240E9
:105930000008024000000B0028000240080002405E
:105940000408024006010C0040000240080002402A
:105950000808024010020D005800024008000240F2
:105960000C08024016030E00700002400C000240BA
:105970001008024000040F00880002400C000240A2
:105980001408024006051000A00002400C0002406E
:105990001808024010061100B80002400C00024036
:1059A0001C08024016072F001004024008040240A1
:1059B0002008024000083800280402400804024081
:1059C000240802400609390040040240080402404D
:1059D00028080240100A3A00580402400804024015
:1059E0002C080240160B3B00700402400C040240DD
:1059F00030080240000C3C00880402400C040240C5
:105A000034080240060D4400A00402400C04024089
:105A100038080240100E4500B80402400C04024051
:105A20003C080240160F46000096000000000000EF
:105A30000000000000000000000000000000000066
:105A400000000000051C0008F11B00082D1C0008C8
:105A5000191C0008251C0008111C0008FD1B00086B
:105A6000E91B0008391C0008000000001D1D00088B
:105A7000091D0008451D0008311D00083D1D0008D6
:105A8000291D0008151D0008011D0008511D0008F2
:105A90000000000001000000000000006330000072
:105AA0009C5A00080000000000000000402900206F
:105AB000702B00204172647550696C6F7400254230
:105AC0004F415244252D424C002553455249414CEB
:105AD0002500000002000000000000003D1F00083B
