:020000040800F2
:1000000000060020E1020008E3020008E302000805
:10001000E3020008E3020008E3020008E30200082C
:10002000E3020008E3020008E30200085933000875
:10003000E3020008E3020008E3020008E30200080C
:10004000E3020008E3020008E3020008E3020008FC
:10005000E3020008E3020008E3020008E3020008EC
:10006000E3020008E3020008E3020008BD120008F2
:10007000E5120008111300083D1300086913000879
:1000800091130008BD130008E3020008E302000812
:10009000E3020008E3020008E3020008E3020008AC
:1000A000E3020008E3020008E3020008E30200089C
:1000B000E3020008E3020008E3020008E30200088C
:1000C000E3020008E3020008E3020008E30200087C
:1000D000E3020008E3020008E3020008E30200086C
:1000E000E3020008E3020008E3020008E30200085C
:1000F000E3020008E3020008E3020008E913000835
:10010000E30200086D4C0008954C0008E30200086B
:10011000E3020008E3020008E3020008E30200082B
:10012000151400083D14000869140008951400080F
:10013000C1140008E3020008E3020008E30200081B
:10014000E3020008E3020008E3020008E3020008FB
:10015000E91400081515000841150008E30200081D
:10016000E3020008E3020008E3020008E3020008DB
:10017000E3020008C53F0008E3020008E3020008AC
:10018000E3020008E3020008814C0008E3020008D3
:10019000E3020008E3020008E3020008E3020008AB
:1001A000E3020008E3020008E3020008E30200089B
:1001B000E3020008E3020008E3020008E30200088B
:1001C000E3020008E3020008E3020008E30200087B
:1001D000E3020008B13F0008E3020008E302000860
:1001E000E3020008E3020008E3020008E30200085B
:1001F000E3020008E3020008E3020008E30200084B
:10020000E3020008E3020008E3020008E30200083A
:10021000E3020008E3020008E3020008E30200082A
:10022000E3020008E3020008E3020008E30200081A
:10023000E3020008E3020008E3020008E30200080A
:10024000E3020008E3020008E3020008E3020008FA
:10025000E3020008E3020008E3020008E3020008EA
:10026000E3020008E3020008E3020008E3020008DA
:10027000E3020008E3020008E3020008E3020008CA
:10028000E3020008E3020008E3020008E3020008BA
:10029000E3020008E3020008E3020008E3020008AA
:1002A000E3020008E3020008E3020008E30200089A
:1002B000E3020008E3020008E3020008E30200088A
:1002C000E3020008E3020008E3020008E30200087A
:1002D000E3020008E3020008E3020008E30200086A
:1002E00002E000F000F8FEE772B6374880F30888B5
:1002F000364880F3098836483649086040F20000E5
:10030000CCF200004EF63471CEF200010860BFF36B
:100310004F8FBFF36F8F40F20000C0F2F0004EF637
:100320008851CEF200010860BFF34F8FBFF36F8F8B
:100330004FF00000E1EE100A4EF63C71CEF20001E3
:100340000860022080F31488BFF36F8F03F066F813
:1003500004F040FA4FF055301F491B4A91423CBF10
:1003600041F8040BFAE71D49184A91423CBF41F895
:10037000040BFAE71A491B4A1B4B9A423EBF51F83D
:10038000040B42F8040BF8E700201849184A914280
:100390003CBF41F8040BFAE703F07EF804F09CFA46
:1003A000144C154DAC4203DA54F8041B8847F9E7A6
:1003B00000F0CEF8114C124DAC4203DA54F8041B95
:1003C0008847F9E703F066B8000600200022002005
:1003D0000000000808ED00E00000002000060020FA
:1003E000805D000800220020642200206822002096
:1003F000704B0020E0020008E0020008E002000864
:10040000E00200082DE9F04F2DED108AC1F80CD064
:10041000D0F80CD0BDEC108ABDE8F08F002383F338
:1004200011882846A047002002F010FAFEE702F0EB
:1004300061F900DFFEE70000032A30B412D941EA77
:100440000004A40784460B4621D11946604653F8A0
:10045000044B5CF8045BA54219D1043A032AF4D892
:1004600060461946541E7AB1431E0139021901E053
:100470009A4209D013F8010F11F801CF6045F7D067
:10048000A0EB0C0030BC7047002030BC7047541EFD
:10049000EAE700BF80EA0102844612F0030F4FD161
:1004A00011F0030F32D14DF8044D11F0040F51F843
:1004B000043B0BD0A3F101329A4312F0803F04BFFA
:1004C0004CF8043B51F8043B16D100BF51F8044BE3
:1004D000A3F101329A4312F0803FA4F101320BD113
:1004E0004CF8043BA24312F0803F04BF51F8043B98
:1004F0004CF8044BEAD023460CF8013B13F0FF0FF5
:100500004FEA3323F8D15DF8044B704711F0010F27
:1005100006D011F8012B0CF8012B002A08BF7047F8
:1005200011F0020FBFD031F8022B12F0FF0F16BFEF
:100530002CF8022B8CF8002012F47F4FB3D17047B7
:1005400011F8012B0CF8012B002AF9D1704700BFDC
:1005500038B500F0D1FC00F089FE02F0A7FE054698
:1005600002F0ECFE0446A8B90E4B9D4215D00133B3
:100570009D4214D041F28835002002F0A1FE0CB15A
:1005800000F076F800F00EFE284600F01FF900F0AB
:100590006FF8F9E700250124EEE70546ECE705468C
:1005A000F9E700BF010007B008B500F073FCA0F147
:1005B00020035842584108BD07B5042101900DEBB6
:1005C000010000F083FC03B05DF804FB38B5302374
:1005D00083F31188174803680BB102F01BFA00235C
:1005E000154A4FF47A71134802F00AFA002383F394
:1005F0001188124C236813B12368013B23606368A0
:1006000013B16368013B63600D4D2B7833B96368A8
:100610007BB9022000F036FD322363602B78032B78
:1006200007D163682BB9022000F02CFD4FF47A73D8
:10063000636038BD78230020CD0500086C230020BE
:1006400074230020084B187003280CD8DFE800F052
:1006500008050208022000F00DBD022000F000BDD8
:10066000024B00225A607047742300206C23002044
:10067000F8B5504B504A1C461968013100F099807A
:1006800004339342F8D162684C4B9A4240F2918015
:100690004B4B9B6803F1006303F500339A4280F0F3
:1006A0008880002000F04EFC0220FFF7CBFF454B76
:1006B0000021D3F8E820C3F8E810D3F81021C3F8DC
:1006C0001011D3F81021D3F8EC20C3F8EC10D3F8B4
:1006D0001421C3F81411D3F81421D3F8F020C3F86F
:1006E000F010D3F81821C3F81811D3F81821D3F853
:1006F000802042F00062C3F88020D3F8802022F0EE
:100700000062C3F88020D3F88020D3F8802042F024
:100710000072C3F88020D3F8802022F00072C3F862
:100720008020D3F8803072B64FF0E023C3F8084D34
:10073000D4E90004BFF34F8FBFF36F8F224AC2F892
:100740008410BFF34F8F536923F480335361BFF399
:100750004F8FD2F8803043F6E076C3F3C905C3F378
:100760004E335B0103EA060C29464CEA81770139D6
:10077000C2F87472F9D2203B13F1200FF2D1BFF30B
:100780004F8FBFF36F8FBFF34F8FBFF36F8F5369DF
:1007900023F4003353610023C2F85032BFF34F8F6C
:1007A000BFF36F8F302383F31188854680F3088869
:1007B0002047F8BD0000020820000208FFFF0108E2
:1007C000002200200044025800ED00E02DE9F04F27
:1007D00095B0DFF8E0822022FF21019004A8D8F82C
:1007E000086000F089FCAA4A1378A3B90121A9483E
:1007F00011700360302383F3118803680BB102F09A
:1008000009F90023A44A4FF47A71A24802F0F8F8DB
:10081000002383F31188019B13B1A04B019A1A6046
:100820009F4A1378032B03D0002313709B4A536015
:100830004FF0000A019DD3465446D146012000F0F6
:1008400019FC25B1954B1B68002B00F02A82002073
:1008500000F020FB071EF4DB012000F001FCA7F1F3
:1008600021031F2BEAD801A252F823F0ED0800085B
:1008700009090008870900083D0800083D0800082C
:100880003D080008210A0008150C0008090B0008A3
:10089000630B0008890B0008AF0B00083D08000837
:1008A000C10B0008E50B00085D0C00087709000883
:1008B0003D080008A90C0008630A00087709000831
:1008C0003D080008630B00083D0800083D080008CB
:1008D0003D0800083D0800083D0800083D080008E4
:1008E0003D0800083D080008870900080220FFF7BE
:1008F0005BFE002800F0B58000F04AFC0BF00B0313
:1009000001240B2B72D1FDE04FF47A7000F0C2FA93
:10091000071EC0F2A6800220FFF746FE002800F066
:10092000A080013F052F00F2E981DFE807F003070F
:100930000A0D10290520FFF73FFE14E0D8F800004B
:10094000F9E7D8F80400F6E7D8F80800F3E74FF025
:100950001C09484609F1040900F0F6FAFFF72CFEDD
:10096000B9F12C0FF5D101234FF00009BB404BEA40
:1009700003035FFA83FB00F00BFC002C36D0BDE7CD
:10098000D8F80C00D7E7002C6BD00BF00B030B2B27
:1009900066D10220FFF708FE0446002860D001203F
:1009A0004FF0000A00F0CEFA0220FFF74BFEA7F14D
:1009B00040025342534102931FFA8AF7384600F02F
:1009C000D1FA0546C0B9364B01222E4602201A70D4
:1009D00000F046FBD8F80830B3421AD80026304B56
:1009E000A2461E702D4B5E6000F0D2FB02212D4806
:1009F00000F06CFA23467FE10299384600F0C2FA13
:100A00000AF1010A05460028D6D1A246022126484D
:100A1000EEE7304600F098FA0130F6D10436D9E717
:100A2000FCB10BF00B030B2B1AD10220FFF70AFECF
:100A3000322000F02FFA071E12DB17F003030FD14C
:100A4000BA19D8F808108A420AD8B7F5807F07D8B3
:100A5000164A9F420DDCC820FFF7A6FD044658BB8E
:100A60000124019B02211248BAF1000F08BF1D4664
:100A7000BEE74FF47A70CDE9023200F00BFA00289D
:100A8000EFDB039A029B02F8010B0133E1E700BFA1
:100A90006823002078230020CD0500086C23002067
:100AA000742300200C590008045900086822002013
:100AB00008590008002200201F2E11D8C6F120027C
:100AC00004AB26F003008F49BA42184428BF3A46C7
:100AD000029200F0F1FA029AFF218A4800F00CFB22
:100AE000BB10C7F3870287493046029300F00CFB26
:100AF000074600288AD00422029B3C4613FB02666C
:100B000000F046FB002571E70220FFF74DFD0028AD
:100B1000A7D000F055FA0028A3D000273B4612E0EA
:100B20001F2F18D8049A013215D027F00302503233
:100B30006A4452F8400C0C90042218460CA900F0AC
:100B4000A7FB04370346D8F80820BA42E8D818466D
:100B5000FFF732FD0FE73846029300F0F5F9029BEC
:100B6000E9E7002364210CA80C9300F0A7F9002802
:100B70007FF477AF0220FFF717FD00283FF471AF35
:100B80000C9800F013FAE3E7002364210CA80C93FF
:100B900000F094F900287FF464AF0220FFF704FD11
:100BA00000283FF45EAF0C9800F002FAD0E7022074
:100BB000FFF7FAFC00283FF454AF00F011FAC7E742
:100BC0000220FFF7F1FC00283FF44BAF0CA91420E2
:100BD00000F00CFA0746FFF7EFFC39460CA800F0CE
:100BE00075F9C8E60220FFF7DFFC00283FF439AFB3
:100BF000454B0CAF03F1100C1868083353F8041C74
:100C00003A46634503C21746F6D11020FFF7D4FCDD
:100C10001021E3E7322000F03DF9071EFFF621AF77
:100C2000BB077FF41EAF07EB0903D8F808209342F7
:100C30003FF617AF0220FFF7B7FC00283FF411AFD3
:100C400027F003074F44B9453FF495AE484609F1F4
:100C5000040900F079F9FFF7AFFCF4E74FF47A707C
:100C6000FFF7A2FC00283FF4FCAE00F0A9F9002831
:100C70003FF4CCAE049B01330CD0082204A9002021
:100C800000F042FA00283FF4C1AE2022FF2104A860
:100C900000F032FA1D48022100F018F91C4801F05A
:100CA000DBFD15B0BDE8F08F002C3FF4DAAE0BF0A1
:100CB0000B030B2B7FF4D5AE002364210CA80C93FF
:100CC00000F0FCF8074600287FF4CBAE0220FFF7C7
:100CD0006BFC029000283FF4C4AE02210B4800F0E8
:100CE000F5F841F2883001F0B7FD0C9800F09CFA5D
:100CF0003D4600F04DFA029B1C469FE54FF000096F
:100D0000AFE600BF68220020785800080C590008A0
:100D1000A08601002DE9F0474FF47A7706460D468C
:100D200000245743DFF84880DFF8489098F90030F6
:100D30005A1C01D0A3420FD159F824002A4631464B
:100D40000368D3F820A03B46D047854204D1074B27
:100D500001201C70BDE8F087631C0124022BE5D143
:100D60004FF4FA7001F078FD0020F3E7C023002073
:100D7000102200201422002000232DE9F0471A46FB
:100D8000054688460120194600F080FC0446802074
:100D900002F0FEF9074668B364B33C4E28464FF0B4
:100DA000800A736943F0C0637361D6F8143143F06D
:100DB000C063C6F8143102F06BF805EB080200FBC3
:100DC00005F34FF03D0C00FB02FE4FF4D06073457D
:100DD00012D3204600F09AFC384602F011FA2B4B51
:100DE0005A6942F0C0625A61D3F8142142F0C062DD
:100DF000C3F81421BDE8F08731694A012CD4D6F834
:100E00001011490128D4226803F100619160216822
:100E1000CF602168C1F804A021680860D4F8009070
:100E2000D9F8001041F00101C9F80010D4F8009081
:100E3000D9F8001021F01E01C9F80010D4F8009074
:100E4000D9F80010CA07FBD494F80C90803362687C
:100E50000CFA09F11160BAE70D4B9A6A42F400727C
:100E60009A629A6A42F400429A6261B600260120B0
:100E700002F0F2F8B04503D8002002F0EDF8A8E740
:100E8000A819013602F01CF8F4E700BF0020005258
:100E900000ED00E0002307B5024601210DF1070037
:100EA0008DF80730FFF736FF20B19DF8070003B03B
:100EB0005DF804FB4FF0FF30F9E700000A4604211B
:100EC00008B5FFF727FF013808BD0000074B0A46A9
:100ED00030B419780546064B53F8210029460368BB
:100EE000DC69044BA44630BC604700BFC02300202F
:100EF00014220020A086010070B5104C0026104D71
:100F000001F0CAFF208028682388834208D901F0B5
:100F1000BFFF2B6806440133B6F5003F2B60F2D3C8
:100F200000252088013801F0B3FF23880544013BE8
:100F3000B5F5802F2380F4D370BD00BFB823002007
:100F4000BC23002002F088B800F1006000F50030FA
:100F50000068704700F10060920000F5003001F079
:100F6000F7BF0000054B1A68054B1B889B1A83428C
:100F700002D9104401F08CBF00207047BC23002030
:100F8000B823002038B50446074D29B1286820440D
:100F9000BDE8384001F094BF2868204401F07EFF8E
:100FA0000028F3D038BD00BFBC23002000207047CC
:100FB00000F1FF5000F58F10D0F8000870470000D6
:100FC000064991F8243033B100230822086A81F8D9
:100FD0002430FFF7BFBF0120704700BF90230020DF
:100FE000014B1868704700BF0010005C194B1A4A8B
:100FF00070B51D68431E0420C5F30B040B442D0C73
:10100000013808D19942084610D30524134A013CFF
:1010100015D1401A70BD1688A6420ED152680846F6
:10102000013A9842F1D212F9014F1CB92C2200F872
:10103000012BEAE700F8014BF3E70832E0E71688F6
:10104000AE4204D198423CBF967800F8016B04325E
:10105000DDE700BF0010005C1C22002010590008D2
:10106000022803D1024B4FF480129A61704700BFEF
:1010700000100258022802D1014B10229A617047D9
:1010800000100258022804D1024A536983F0100369
:10109000536170470010025870B504464FF47A76D9
:1010A00004B970BD412C254628BF412506FB05F03B
:1010B000641B01F0D1FBF3E7002310B5934200D18C
:1010C00010BDCC5CC4540133F8E70000013810B502
:1010D00010F9013F3BB191F900409C4203D11AB194
:1010E0000131013AF4E71AB191F90020981A10BDC4
:1010F0001046FCE7FFF7FEBF02440346934200D1CF
:10110000704703F8011BF9E72DE9F0471F4D14461E
:101110000746894695F824209AB32B6A03EB82038D
:1011200083422ED0FFF74CFF58BB0020BDE8F0876C
:1011300095F824302BB92022FF2114482F62FFF7A5
:10114000DBFF95F824004946C0F1080805EB800054
:10115000A04528BFA0464FEA8802FFF7ADFF95F8EB
:1011600024305FFA88F60FFA88FAA41B1E4407EBB6
:101170008A07F6B209EB8809082EE4B285F82460E4
:10118000D0D0002CD4D10120D0E700BF9023002084
:10119000024B1A78024B1A70704700BFC023002020
:1011A0001022002038B51B4C1B4D204600F03CFEA1
:1011B0002946204600F064FE2D684FF47A70D5F879
:1011C0009020D2F8043843F00203C2F80438FFF745
:1011D00063FF2846114900F085FFD5F89020104D97
:1011E000D2F80438286823F00203A042C2F8043879
:1011F0004FF4E1330B4A136002D0114600F06EFD4C
:101200006868A04204D00749BDE8384000F066BDD8
:1012100038BD00BF102E0020A85A0008B05A0008A0
:1012200014220020C4230020F8B50C4B05460C4EB8
:101230001F780C4B56F827209A420DD00A4C0021FB
:1012400018222046FFF758FF214656F82700256050
:10125000BDE8F84000F042BDF8BD00BFC02300204B
:1012600014220020102E0020C423002008B571B6DF
:10127000054B1988054B1888FFF77EFD02210E20CB
:10128000FFF77AFD61B608BDB8230020BC2300201B
:1012900030B50A44084D914200D130BD11F8013BF0
:1012A0005840082340F30004013B2C4013F0FF0397
:1012B00084EA5000F6D1EEE72083B8ED08B5074B7D
:1012C000074A196801F03D01996053680BB19068B5
:1012D0009847BDE8084002F077B800BF0000024020
:1012E000DC23002008B5084B1968890901F03D018D
:1012F0008A019A60054AD3680BB110699847BDE826
:10130000084002F061B800BF00000240DC2300206A
:1013100008B5084B1968090C01F03D010A049A60F0
:10132000054A53690BB190699847BDE8084002F03F
:101330004BB800BF00000240DC23002008B5084B7A
:101340001968890D01F03D018A059A60054AD36943
:101350000BB1106A9847BDE8084002F035B800BFED
:1013600000000240DC23002008B5074B074A5968FB
:1013700001F03D01D960536A0BB1906A9847BDE80E
:10138000084002F021B800BF00000240DC2300202A
:1013900008B5084B5968890901F03D018A01DA60F6
:1013A000054AD36A0BB1106B9847BDE8084002F0BC
:1013B0000BB800BF00000240DC23002008B5084B3A
:1013C0005968090C01F03D010A04DA60054A536BC3
:1013D0000BB1906B9847BDE8084001F0F5BF00BF26
:1013E00000000240DC23002008B5084B5968890D35
:1013F00001F03D018A05DA60054AD36B0BB1106C30
:101400009847BDE8084001F0DFBF00BF0000024080
:10141000DC23002008B5074B074A196801F03D019D
:101420009960536C0BB1906C9847BDE8084001F08F
:10143000CBBF00BF00040240DC23002008B5084BEE
:101440001968890901F03D018A019A60054AD36C47
:101450000BB1106D9847BDE8084001F0B5BF00BF63
:1014600000040240DC23002008B5084B1968090C71
:1014700001F03D010A049A60054A536D0BB1906D6D
:101480009847BDE8084001F09FBF00BF000402403C
:10149000DC23002008B5084B1968890D01F03D01D7
:1014A0008A059A60054AD36D0BB1106E9847BDE866
:1014B000084001F089BF00BF00040240DC23002087
:1014C00008B5074B074A596801F03D01D960536ED2
:1014D0000BB1906E9847BDE8084001F075BF00BFA2
:1014E00000040240DC23002008B5084B5968890934
:1014F00001F03D018A01DA60054AD36E0BB1106F2D
:101500009847BDE8084001F05FBF00BF00040240FB
:10151000DC23002008B5084B5968090C01F03D0197
:101520000A04DA60054A536F0BB1906F9847BDE823
:10153000084001F049BF00BF00040240DC23002046
:1015400008B5084B5968890D01F03D018A05DA603C
:10155000054AD36F13B1D2F880009847BDE8084020
:1015600001F032BF00040240DC23002000230C4ABB
:1015700010B519460B4C42F8043B54F823000160A7
:1015800042F813100433402BF7D1074A4FF0FF33D2
:101590009360D360C2F80834C2F80C3410BD00BFA9
:1015A000DC230020205900080000024011282DE90A
:1015B000F041884611D004D8102810D10F24002003
:1015C00003E0122807D10F2407202D4F4FF0010C04
:1015D0003D68A04205D900203BE00724EFE7044620
:1015E000F3E70CFA00F6354248D107EBC004354367
:1015F000C4E90123F3B23D606BBB224BD3F8D84062
:1016000044F00204C3F8D840D3F8004144F0020487
:10161000C3F80041D3F8003105011B4C6359186829
:1016200020F01F001860186810F00100FBD1661947
:101630004FF03D0C96F80CE071680CFA0EF70F6055
:101640001860212058611AB14146B07B00F074F94E
:101650006019BDE8F0810B4B16F47F4FD3F8D840EA
:1016600044F00104C3F8D840D3F8004144F0010429
:10167000C3F80041D3F80031CED0BEE70130A8E76F
:10168000DC230020004402582059000810B5302403
:1016900084F31188FFF78AFF002383F3118810BDBC
:1016A00010B50446807B00F05DF91649637B01228A
:1016B0009A400B6823EA0203DAB20B6072B9124A4D
:1016C000D2F8D81021F00101C2F8D810D2F80011D8
:1016D00021F00101C2F80011D2F8002113F47F4F6C
:1016E0000ED1094BD3F8D82022F00202C3F8D8203B
:1016F000D3F8002122F00202C3F80021D3F8003110
:1017000010BD00BFDC2300200044025808B5302380
:1017100083F31188FFF7C4FF002383F3118808BD0A
:10172000026843680A43026003B11847704700002B
:10173000024A136843F0C00313607047007800400A
:1017400013B50E4C204600F0BDFA04F1140000233E
:101750004FF400720A49009400F07AF9094B4FF4F3
:101760000072094904F13800009400F0F3F9074AC7
:10177000074BC4E9172302B010BD00BF602800204A
:101780006026002031170008602400200078004007
:1017900000E1F505264B30B5002914BF0C461C4668
:1017A000037C012B11D1234B98420ED1224BD3F84D
:1017B000E82042F08042C3F8E820D3F8102142F03C
:1017C0008042C3F81021D3F810312268036EC16D36
:1017D00003EB52038466B3FBF2F36268150442BF65
:1017E00023F0070503F0070343EA4503CB60A36832
:1017F00043F040034B60E36843F001038B6042F425
:10180000967343F001030B604FF0FF330B625105F9
:101810000AD512F0102209D0B2F1805F14BFFF2365
:101820003F2380F8643030BDFF23FAE77F23F8E7D9
:10183000205A000860280020004402582DE9F04793
:10184000C66D0446F5692B07356214D06901AF07F0
:101850004FF0300301F4907148BF41F04001680738
:1018600048BF41F0800183F31188201DFFF758FF26
:10187000002383F31188EA050AD5302383F3118806
:101880004FF48061201DFFF74BFF002383F3118885
:1018900030274FF000090BE087F31188736A204668
:1018A00094F86410194000F027FA89F31188F5695B
:1018B00015F02008F0D137683B0615D54FF0300AF7
:1018C00004F1380928060FD58AF31188484600F03C
:1018D00075F9002828DA0821201DFFF721FF27F0DD
:1018E0008007002383F31188790613D56A0611D582
:1018F000302383F31188D4E913239A4207D1236C50
:101900002BB127F040071021201DFFF709FF00230E
:1019100083F31188EB0637600BD5A26E136943B1D0
:101920005069BDE8F0471847B06288F31188F5693F
:10193000C8E7BDE8F0870000090100F1604301221B
:1019400003F56143C9B283F8001300F01F039A4006
:1019500043099B0003F1604303F56143C3F8802111
:101960001A60704700F01F0301229A40430900F1FA
:1019700060409B0000F5614003F1604303F5614363
:10198000C3F88020C3F88021002380F8003370471B
:10199000F8B51546826804460B46AA4200D285680F
:1019A000A1692669761AB5420BD22A461846FFF776
:1019B00083FBA2692A44A3682846A2615B1BA3603B
:1019C000F8BD0CD9AF1B18463246FFF775FB3A46F7
:1019D000E1683044FFF770FBE368DA19EBE72A4669
:1019E0001846FFF769FBE268E5E700008368934269
:1019F0002DE9F04104460E46154600D28568D4E92B
:101A000004703F1ABD420CD22A463146FFF754FB00
:101A100062692A44A368284662615B1BA360BDE833
:101A2000F0810ED9A5EB07083A463146FFF744FB93
:101A30004246F119E068FFF73FFBE36803EB080259
:101A4000E8E72A463146FFF737FBE268E2E70000A5
:101A500010B50024C160C361029B84600362C0E9C9
:101A600005111144C0E90000016110BD08B5D0E9BD
:101A70000532934201D1826882B982680132826064
:101A80005A1C426119700021D0E904329A4224BFE5
:101A9000C368436100F014FF002008BD4FF0FF3021
:101AA000FBE7000070B5302304460D4683F3118830
:101AB000A668A6B1A368A269013BA360531CA361F9
:101AC00015782269934224BFE368A361E3690BB1EF
:101AD00020469847002383F31188284607E02946CB
:101AE000204600F0DDFE0028E2DA86F3118870BDA2
:101AF0002DE9F74F05460F4614469946D0F81CA02D
:101B00004FF0300888F311884FF0000B164666B18D
:101B1000324639462846FFF73BFF034660B949463F
:101B2000284600F0BDFE0028F2D0002383F3118880
:101B3000A01B03B0BDE8F08FBAF1000F03D00190F5
:101B40002846D047019B8BF31188F61A1F4488F36F
:101B50001188DCE7C160C361009B82600362C0E959
:101B600005111144C0E9000001617047F8B5044651
:101B70000D461646302383F31188A768A7B1A368E2
:101B8000013BA36063695A1C62611D70D4E9043291
:101B90009A4224BFE3686361E3690BB1204698472A
:101BA000002080F3118807E03146204600F078FEDF
:101BB0000028E2DA87F31188F8BD0000D0E9052398
:101BC00010B59A4201D182687AB982680021013247
:101BD00082605A1C82611C7803699A4224BFC368E0
:101BE000836100F06DFE204610BD4FF0FF30FBE733
:101BF0002DE9F74F05460F4614469946D0F81CA02C
:101C00004FF0300888F311884FF0000B164666B18C
:101C1000324639462846FFF7E9FE034660B9494691
:101C2000284600F03DFE0028F2D0002383F31188FF
:101C3000A01B03B0BDE8F08FBAF1000F03D00190F4
:101C40002846D047019B8BF31188F61A1F4488F36E
:101C50001188DCE7026843680A43026003B1184751
:101C6000704700001430FFF743BF00004FF0FF3310
:101C70001430FFF73DBF00003830FFF7B9BF000058
:101C80004FF0FF333830FFF7B3BF00001430FFF7D9
:101C900009BF00004FF0FF311430FFF703BF000011
:101CA0003830FFF763BF00004FF0FF323830FFF7E6
:101CB0005DBF0000012914BF6FF0130000207047C2
:101CC000FFF73EBD044B036000234360C0E90233CD
:101CD00001230374704700BF385A000810B5302341
:101CE000044683F31188FFF755FD02230020237477
:101CF00080F3118810BD000038B5C36904460D4655
:101D00001BB904210844FFF7A5FF294604F114007C
:101D1000FFF7ACFE002806DA201D4FF40061BDE895
:101D20003840FFF797BF38BD026843680A43026036
:101D300003B118477047000013B5406B00F580549D
:101D4000D4F8A4381A681178042914D1017C022926
:101D500011D11979012312898B4013420BD101A9AA
:101D60004C3002F05BFAD4F8A4480246019B21797A
:101D7000206800F007FA02B010BD0000143002F035
:101D8000E3B900004FF0FF33143002F0DDB900007A
:101D90004C3002F0AFBA00004FF0FF334C3002F08D
:101DA000A9BA0000143002F0B1B900004FF0FF31C1
:101DB000143002F0ABB900004C3002F07BBA0000E6
:101DC0004FF0FF324C3002F075BA000010B500F54C
:101DD0008054D4F8A4381A681178042917D1017CEA
:101DE000022914D15979012352898B4013420ED113
:101DF000143002F045F9024648B1D4F8A4084FF473
:101E0000407341790068BDE8104000F0A9B910BDE9
:101E1000406BFFF7DBBF000000290CBF6FF0130021
:101E200000207047704700007FB5124B0125042643
:101E3000044603600023057400F1840243602946D0
:101E4000C0E902330C4B0290143001934FF44073FD
:101E5000009602F0F1F8094B04F69442294604F189
:101E60004C000294CDE900634FF4407302F0B2F9E4
:101E700004B070BD605A0008111E0008391D00082A
:101E8000302383F311880B790A680B3342F823005F
:101E90004B79133342F823008B7913B10B3342F89B
:101EA000230000F58053C3F8A41802230374002014
:101EB00080F311887047000038B5037F044613B1E2
:101EC00090F85430ABB90125201D0221FFF72CFFFB
:101ED00004F114006FF00101257700F0FDFC04F11E
:101EE0004C0084F854506FF00101BDE8384000F018
:101EF000F3BC38BD10B5012104460430FFF714FFD0
:101F00000023237784F8543010BD000038B5044610
:101F10000025143002F0A8F804F14C00257702F0F7
:101F200071F9201D84F854500121FFF7FDFE204671
:101F3000BDE83840FFF74ABF90F88020034602F022
:101F40006002202A14D190F881200020212A02D892
:101F50001F2A03D87047222A07D07047054A5A67BC
:101F600007229A67D86701207047C3E91D00F9E787
:101F7000002070473422002037B500F58055D5F891
:101F8000A4381A68117804291AD1017C022917D1C2
:101F90001979012312898B40134211D100F14C04AD
:101FA000204602F0EDF958B101A9204602F036F9B9
:101FB000D5F8A4480246019B2179206800F0E2F898
:101FC00003B030BD2DE9F34104460D4621B301F1C4
:101FD0000B0350F82360FEB1302383F3118800EB2C
:101FE000810706F14C08FB685B691B6833B140460A
:101FF00002F022F90821301DFFF796FE01A94046A4
:1020000002F00CF9024650B1019B2946204600F02F
:10201000B9F8002383F3118802B0BDE8F081FB68B2
:102020005A69126832B11B8A013B134002D104F194
:102030008002EAE71021301DFFF776FEE9E7000095
:1020400038B509B3133150F82140ECB1302383F394
:10205000118804F58053D3F8A4281368527903EB50
:102060008203DB689B695D6845B104216018FFF756
:102070005BFE294604F1140002F00CF82046FFF73D
:10208000A5FE002383F3118838BD000070470000CF
:1020900010B50446002101F0ABFF0021204601F0FD
:1020A0009BFF63681B6813B1062120469847A3680D
:1020B00023F00113A3600023A367062384F8703084
:1020C00010BD000001F096BA01234022002110B596
:1020D000044600F8303BFFF70FF80023C4E9013352
:1020E00010BD000010B53023044683F3118824226C
:1020F000416000210C30FEF7FFFF204601F09CFA02
:1021000002230020237080F3118810BD70B500EB0E
:102110008103054650690E461446DA6018B1102254
:102120000021FEF7E9FFA06918B110220021FEF797
:10213000E3FF31462846BDE8704001F085BB000052
:1021400083682022002103F0011310B50446836048
:102150001030FEF7D1FF2046BDE8104001F0FCBB77
:10216000F0B4012500EB810447898D40E4683D43CC
:10217000A469458123600023A2606360F0BC01F084
:1021800019BC0000F0B4012500EB810407898D40E3
:10219000E4683D436469058123600023A2606360B5
:1021A000F0BC01F08BBC000070B502230025044692
:1021B000242203702946C0F888500C30C56640F8C8
:1021C000045CFEF799FF204684F8705001F0CEFAC7
:1021D00063681B6823B129462046BDE87040184754
:1021E00070BD00000378052B10B504460AD080F8B6
:1021F0008C300523037043681B680BB1042198479A
:102200000023A36010BD00000178052906D190F8D5
:102210008C20436802701B6803B1184770470000A8
:1022200070B590F8703004463BB1836823F0011319
:1022300083600023836780F8703004F180020021FE
:10224000204601F0ADFB63689B684BB994F8803081
:1022500013F0600528D02046BDE87040FFF718BF96
:10226000204698470028F1D0B4F88630A56F9D42EB
:1022700084BF1D46A36794F98030002B4FF03003D4
:1022800080F20281002D00F0F180092284F8702094
:1022900083F3118800212046D4E91D23FFF772FF44
:1022A000002383F3118870BD94F8812003F07F032D
:1022B00043EA022340F20232934200F0C48021D864
:1022C000B3F5807F47D00DD8012B3ED0022B00F014
:1022D0009280002BBFD104F1880262670222A267BC
:1022E000E367C1E7B3F5817F00F09A80B3F5407FE3
:1022F000B1D194F88230012BADD1B4F8883043F0DD
:10230000020331E0B3F5006F4CD017D8B3F5A06FDE
:1023100030D0A3F5C063012B9DD86368204694F8A4
:1023200082205E6894F88310B4F88430B0470028A7
:1023300091D0436863670368A36719E0B3F5106F32
:1023400035D040F60242934285D15C4B636702234D
:10235000A3670023C4E794F88230012B7FF47BAF9E
:10236000B4F8883023F00203A4F88830C4E91D557E
:10237000E56779E7B4F88030B3F5A06F0ED194F833
:102380008230204684F88A3001F050FA63681B6876
:1023900013B1012120469847032323700023C4E989
:1023A0001D339DE704F18B0363670123C4E72378A2
:1023B000042B10D1302383F311882046FFF7C0FE91
:1023C00085F311880321636884F88B5021701B68A2
:1023D0000BB12046984794F88230002BDED084F869
:1023E0008B300423237063681B68002BD6D0022136
:1023F00020469847D2E794F8843020461D0603F023
:102400000F010AD501F0BEFA012804D002287FF49A
:1024100022AF2B4B9AE72B4B98E701F0A5FAF3E795
:1024200094F88230002B7FF416AF94F8843013F0C8
:102430000F01B3D01A06204602D501F0F1FDADE739
:1024400001F0E2FDAAE794F88230002B7FF403AF9D
:1024500094F8843013F00F01A0D01B06204602D55B
:1024600001F0C6FD9AE701F0B7FD97E7142284F862
:10247000702083F311882B462A4629462046FFF711
:102480006FFE85F311880EE75DB1152284F8702088
:1024900083F3118800212046D4E91D23FFF760FE55
:1024A000FEE60B2284F8702083F311882B462A461F
:1024B00029462046FFF766FEE3E700BF905A000872
:1024C0008C5A0008885A000838B590F870300446D5
:1024D0000B2B09D80B2B37D8DFE803F0083636363C
:1024E00036360836360D2737152B2DD12046BDE858
:1024F0003840FFF7CDBD856FB0F886309D4214D2CD
:10250000C3681B8AB5FBF3F203FB12556DB9302388
:1025100083F311882B462A462946FFF733FE85F3BD
:1025200011880A2384F870300EE0142384F8703088
:10253000302383F31188002320461A461946FFF7FB
:102540000FFE002383F3118838BDC36F03B1984792
:10255000A36823F00113A3600023A367E2E7000050
:1025600010B590F870300446142B1ED00CD8062BF2
:1025700005D001D81BB110BD0A3B012BFBD820466A
:10258000BDE81040FFF784BD152BF4D10B2380F874
:102590007030302383F3118800231A461946FFF761
:1025A000F1FD002383F31188E5E7C3689B695B684D
:1025B000002BE0D1C36F03B19847A36823F0011348
:1025C000A3600023A36784F87030D4E700238268F7
:1025D00080F8243083691B6899689142FBD25A685D
:1025E00003604260106058607047000000238268FA
:1025F00080F8243083691B6899689142FBD85A6837
:1026000003604260106058607047000008B50846DB
:10261000302383F3118891F82430032B05D0042B49
:102620000DD02BB983F3118808BD8B6A00221A6084
:102630004FF0FF338362FFF7C9FF0023F2E7D1E9D0
:10264000003213605A60F3E7034610B51B689842E6
:1026500003D09C688A689442F8D25A680B604A603A
:102660001160596010BD0000FFF7B0BF38B50B4BCB
:102670001C68DD6885F82400226853601A60012216
:10268000DC60A36884F82420934201D100F060FE4E
:1026900029462046BDE83840FDF7B4BE002B002097
:1026A0000C4B30B5DD684B1C87B004460FD02B4671
:1026B000094A684600F0A4F92046FFF7D7FF009BBF
:1026C00013B1684600F0A6F9A86A07B030BDFFF75D
:1026D000CDFFF9E7002B00200D260008044B1A68F7
:1026E000DB6890689B68984294BF00200120704787
:1026F000002B002038B50C4B1C68DD682268536045
:102700001A600122DC6084F82420AB68934201D176
:1027100000F020FE2846FFF769FF01462046BDE88D
:102720003840FDF76FBE00BF002B0020044B1A6835
:10273000DB6892689B689A4201D9FFF7DBBF70475C
:10274000002B002038B50123084C0025237065605C
:1027500001F052FE01F07CFE0549064801F05AFFE7
:102760000223237085F3118838BD00BF782B002029
:10277000945A0008002B002000F082B9034A5168E7
:1027800053685B1A9842FBD8704700BF001000E006
:1027900010B58B6004464B630023CA6104F1280224
:1027A0000B6302230A6108468B8401238C6181F844
:1027B000263001F11003E26A4A611360E36201F11D
:1027C0002C03CB6210BD0000D0E90131026841F852
:1027D000183CA1F19C033839CB60036941F8243CD3
:1027E000436941F8203C034B41F8043CC36802486C
:1027F000FFF7CEBF1D040008002B002008B5FFF72F
:10280000E3FFBDE80840FFF72FBF000038B50E4BCF
:10281000DC6804F12C05A062E06AA8420FD194F8AC
:1028200026303BB994F825309B0702BFD4E9043227
:1028300013605A600F20BDE83840FFF717BF0368E8
:10284000E362FFF711FFE7E7002B0020302383F35B
:102850001188FFF7DBBF000008B50146302383F382
:1028600011880820FFF71CFF002383F3118808BD9F
:10287000054BDB6821B1036098620320FFF710BFAE
:102880004FF0FF30704700BF002B00200346006868
:1028900020B100221A608162FFF7E6BE7047000097
:1028A000064BDB6839B1426818605A6013604360B8
:1028B0000420FFF7F5BE4FF0FF307047002B0020DB
:1028C00003460068834205D002681A605360816243
:1028D000FFF7CABE7047000038B504460D462068B1
:1028E000844200D138BD036823605C608562FFF7D5
:1028F000BBFEF4E7036810B59C68A2420CD85C6884
:102900000B608A604C60216059609968891A9960EF
:102910004FF0FF33836010BD121B1B68ECE7000013
:102920000A2938BF0A2170B504460D460A266019E7
:1029300001F05CFD01F044FD041BA54203D8751CA9
:1029400004462E46F3E70A2E04D90120BDE8704064
:1029500001F028BF70BD0000F8B5144B14460A27DB
:102960000D46D9610A2C826003F1100238BF0A2497
:1029700042601A69026050601861081901F026FD72
:1029800001F01EFD431B0646A34206D37C1C2819FA
:102990002746354601F02AFDF2E70A2F04D9012027
:1029A000BDE8F84001F0FEBEF8BD00BF002B0020DE
:1029B00070B50D46064601F003FD0F490B4653F86E
:1029C000102F9A4206D12A4601463046BDE8704093
:1029D000FFF7C2BFCB69C41A93682C1928BF2C46D5
:1029E000A34202D92946FFF79BFF224631460348FE
:1029F000BDE87040FFF77EBF002B0020102B0020A9
:102A000010B4C0E9032300235DF8044B4361FFF7D2
:102A1000CFBF000010B5194C236998420DD08168D2
:102A2000D0E9003213605A609A680A449A60002321
:102A300003604FF0FF33A36110BD0268234643F8E3
:102A4000102F53600022026022699A4203D1BDE830
:102A5000104001F0C5BC936881680B44936001F09D
:102A6000AFFC2269E1699268441AA242E4D9114498
:102A7000BDE81040091AFFF753BF00BF002B00202C
:102A80002DE9F843284E294F356901F099FCF46986
:102A9000AA68011B8A423AD81444D5E90032F4618D
:102AA00013605A6000232B6098463269BA4201D104
:102AB00001F096FC88F31188D5E903312846984740
:102AC000302383F311886B69002BDDD001F078FC93
:102AD0006A69A0EB0408814642450CD2022001F04D
:102AE00061FE00223369BB4208D149462846BDE851
:102AF000F843FFF731BF2244121AF3E712EB08083C
:102B000029460A4838BF4246FFF7F4FEBBE7316961
:102B1000B94207D01444F061211AA960BDE8F84316
:102B2000FFF7FEBEBDE8F883002B0020102B00202D
:102B300000207047FEE70000704700004FF0FF30B4
:102B40007047000002290CD0032904D0012907484E
:102B500018BF00207047032A05D8054800EBC200C3
:102B60007047044870470020704700BF585B00085A
:102B70003C2200200C5B000870B59AB00546084660
:102B8000144601A900F0C0F801A8FEF7B3FA431CEF
:102B90000022C6B21BB210465B00C5E900342370A8
:102BA0000323023404F8013C01ABD1B202348E425B
:102BB00001D81AB070BD13F8011B013204F8010CE2
:102BC00004F8021CF1E7000008B5302383F31188F4
:102BD0000348FFF7D1F9002383F3118808BD00BF34
:102BE000102E002090F8803003F01F02012A07D138
:102BF00090F881200B2A03D10023C0E91D3315E092
:102C000003F06003202B08D1B0F884302BB990F882
:102C10008120212A03D81F2A04D8FFF78DB9222A40
:102C2000EBD0FAE7034A426707228267C3670120B5
:102C3000704700BF5C22002010B50446052916D855
:102C4000DFE801F016150316161D302383F31188F3
:102C50000E4A0121FFF75AFA20460D4A0221FFF7DA
:102C600055FA0C48FFF752F9002383F3118810BD81
:102C7000302383F311880748FFF71EF9F4E7302368
:102C800083F311880348FFF735F9EDE7E45A0008AC
:102C9000C05A0008102E002038B50B4C0B4D0A4AC4
:102CA0000B490A48FFF768FF04F1CA0205F1080062
:102CB0000849FFF761FF04F5CA7205F110000649E3
:102CC000BDE83840FFF758BFB02B00204422002059
:102CD000B7580008C1580008CC58000870B5044621
:102CE00008460D46FEF706FAC6B2204601340378C0
:102CF0000BB9184670BD32462946FEF7E7F90028A1
:102D0000F3D10120F6E70000F8B505460C46FEF7C2
:102D1000F1F9294907462846FFF7E0FF064627490B
:102D20002846C6EBC606FFF7D9FF06EB00163E4461
:102D3000F6B2632E1BD929462046BDE8F840FDF7C0
:102D4000A9BB252E34D107221B492846FEF7BEF920
:102D500090B91B4B224603F10C0153F8040B8B4234
:102D600042F8040BF9D11B8807350E3413802E78F6
:102D7000002EE6D12670F8BD082210492846FEF73D
:102D8000A5F9A8B9A21C0F4B0F48104E19780232B2
:102D90000909415C02F8041C13F8011B01F00F0142
:102DA000B342415C02F8031CF0D118340835DEE769
:102DB000013504F8016BDAE7D5580008CC58000853
:102DC000DD58000800E8F11FEC5800080CE8F11F7E
:102DD000BFF34F8F044B1A695107FCD1D3F8102170
:102DE0005207F8D1704700BF0020005208B50D4BC4
:102DF0001B78ABB9FFF7ECFF0B4BDA68D10704D5B2
:102E00000A4A5A6002F188325A60D3F80C21D2077C
:102E100006D5064AC3F8042102F18832C3F804211A
:102E200008BD00BFB84600200020005223016745BE
:102E300008B5114B1B78F3B9104B1A69510703D52C
:102E4000DA6842F04002DA60D3F81021520705D563
:102E5000D3F80C2142F04002C3F80C21FFF7B8FF71
:102E6000064BDA6842F00102DA60D3F80C2142F036
:102E70000102C3F80C2108BDB84600200020005212
:102E80000F289ABF00F580604004002070470000C2
:102E90004FF4003070470000102070470F2808B52D
:102EA0000BD8FFF7EDFF00F500330268013204D1C3
:102EB00004308342F9D1012008BD0020FCE7000066
:102EC0000F2838B505463FD8FFF782FF1F4CFFF7A4
:102ED0008DFF4FF0FF3307286361C4F814311DD80C
:102EE0002361FFF775FF030243F02403E360E36807
:102EF00043F08003E36023695A07FCD42846FFF7B8
:102F000067FFFFF7BDFF4FF4003100F0E7F92846F7
:102F1000FFF78EFFBDE83840FFF7C0BFC4F810319F
:102F2000FFF756FFA0F108031B0243F02403C4F887
:102F30000C31D4F80C3143F08003C4F80C31D4F8D0
:102F400010315B07FBD4D9E7002038BD00200052C8
:102F50002DE9F74F04468846104644EA0203DB0693
:102F600003D0002003B0BDE8F08F20F01F00334DE8
:102F7000334EFFF73BFF08EB000A324FD04503D139
:102F80000120FFF755FFEDE7202241462046FDF7DF
:102F900053FA18B9203408F12008EFE7234604F16A
:102FA000200219680131DCD104339342F9D104F1D4
:102FB0007843B3F5801F35BF234A2A462348384655
:102FC00034BFDFF890B0B3460192FFF701FF4FF036
:102FD000FF33A4EB080E08F11C0C019ACBF800306B
:102FE000036843F002030360A8F10403116811F0C1
:102FF0000509FBD153F8041F63454EF80310F5D1C2
:10300000BFF34F8FFFF7E4FE4FF0FF33CBF80030F4
:10301000036823F002030360BFF34F8F0C4BC3F828
:103020005C42BFF34F8FBFF36F8F20224146204693
:10303000FDF702FA0028ADD04846A2E71021005261
:10304000142100520C210052102000520C2000527A
:1030500000ED00E01420005210B5084C237828B190
:103060001BB9FFF7C3FE0123237010BD002BFCD05A
:103070002070BDE81040FFF7DBBE00BFB84600205F
:103080002DE9F74F0E460546002877D011F00D08C0
:1030900039D1002944D04FF0080A4FF00109384FC8
:1030A00006F0040306EA090BBBF1000F44D079696E
:1030B000CC0741D409F101090C37B9F1060FF3D15E
:1030C000B8F1000F13D12F4E5246294606EB0800E7
:1030D00001F0E0F9044658BB08F12008B8F1A00F50
:1030E000F2D15246294601F0D5F9044600BB5246BA
:1030F0002946254801F0CEF90446002839D120465A
:1031000003B0BDE8F08F0F0707D5431E034235D14A
:1031100082461F3525F01F05BFE74FF0200AF8E76C
:1031200001460822304601F0B5F904460028B2D025
:103130002A46002120461EE0ABB1796911F0040F48
:10314000B8D0310702D579690A07B3D50193524641
:103150000E4B294603EB491001F09CF9019B0446F4
:103160000028A7D0E4E7B007EBD5796911F0020F8A
:10317000E6E72A460021FDF7BFFFC0E70024BEE7CF
:10318000745B0008FC460020BC460020DC460020A2
:103190000121FFF775BF000000231A4670B51A60C1
:1031A0000433B3F5806FFAD1104D0124104E06EBB5
:1031B000441001342A6955F80C1F01F057F9062C08
:1031C000F5D137254FF4C0542046FFF7E1FF014603
:1031D00028B122460748BDE8704001F047B9C4EB6A
:1031E000C404013D4FEAD404EED170BD745B000805
:1031F000DC460020BC4600200421FFF741BF000050
:1032000008B101F0C3B9704770B504461046AAB1C1
:1032100044EA010313F01F030FD1094A21449568C2
:103220006D0706D51568AC4203D356683544A942EC
:1032300004D903330C32122BF1D1002070BD00BF32
:10324000745B00080244064BD2B210B5904200D124
:1032500010BD441C53F8200041F8040BE0B2F5E720
:10326000504000580E4B30B51C6F240405D41C6F21
:103270001C671C6F44F400441C670A4C024423681A
:10328000D2B243F480732360074B904200D130BD2B
:10329000441C51F8045B43F82050E0B2F5E700BF4E
:1032A00000440258004802585040005807B5012217
:1032B00001A90020FFF7C6FF019803B05DF804FBE9
:1032C00013B50446FFF7F2FFA04205D0012201A981
:1032D00000200194FFF7C6FF02B010BD0144BFF308
:1032E0004F8F064B884204D3BFF34F8FBFF36F8FCE
:1032F0007047C3F85C022030F4E700BF00ED00E047
:103300000144BFF34F8F064B884204D3BFF34F8F66
:10331000BFF36F8F7047C3F870022030F4E700BF2F
:1033200000ED00E0034B1A681AB9034AD2F8D02422
:103330001A6070479C4700200040025808B5FFF70C
:10334000F1FF024BD878C0F3800008BD9C470020F5
:103350007047000070470000EFF3098305496833A8
:103360004A6B22F001024A6383F30988002383F346
:103370001188704700EF00E0302080F3118862B6BA
:103380000D4B0E4AD96821F4E0610904090C0A4387
:103390000B49DA60D3F8FC2042F08072C3F8FC20BD
:1033A000084AC2F8B01F116841F0010111602022E3
:1033B000DA7783F82200704700ED00E00003FA0599
:1033C00055CEACC5001000E0302310B583F3118852
:1033D0000E4B5B6813F4006314D0F1EE103AEFF378
:1033E00009844FF08073683CE361094BDB6B236613
:1033F00084F30988FFF772F910B1064BA36110BD81
:10340000054BFBE783F31188F9E700BF00ED00E00F
:1034100000EF00E02F0400083204000870B5BFF38D
:103420004F8FBFF36F8F1A4A0021C2F85012BFF3BB
:103430004F8FBFF36F8F536943F400335361BFF372
:103440004F8FBFF36F8FC2F88410BFF34F8FD2F846
:10345000803043F6E074C3F3C900C3F34E335B011D
:1034600003EA0406014646EA81750139C2F8605252
:10347000F9D2203B13F1200FF2D1BFF34F8F5369E4
:1034800043F480335361BFF34F8FBFF36F8F70BD31
:1034900000ED00E0FEE700001E4A1F4B1F4970B51B
:1034A0008B422ED31E4A002193422FD31D4AC2F8CD
:1034B0008410BFF34F8FD2F8803043F6E074C3F32B
:1034C000C900C3F34E335B0103EA0406014646EA32
:1034D00081750139C2F86C52F9D2203B13F1200FEB
:1034E000F2D1BFF34F8FBFF36F8FBFF34F8FBFF397
:1034F0006F8F0023C2F85032BFF34F8FBFF36F8F2F
:1035000070BD52F8040B43F8040BC9E743F8041BE1
:10351000CAE700BFE45D0008704B0020704B00203C
:10352000704B002000ED00E0074BD3F8D82022EAD2
:103530000002C3F8D820D3F8002122EA0002C3F821
:103540000021D3F8003170470044025870B5D0E92B
:10355000244300224FF0FF359E6804EB42135101D3
:10356000D3F80009002805DAD3F8000940F08040BC
:10357000C3F80009D3F8000B002805DAD3F8000BD4
:1035800040F08040C3F8000B013263189642C3F844
:103590000859C3F8085BE0D24FF00113C4F81C3897
:1035A00070BD0000F0B5D0E92463012508309F68A4
:1035B00000231A4650F8041F59B18C6924B103F155
:1035C000100405FA04F42243496911B105FA03F124
:1035D0000A4301339F42EDD2C6F81C28F0BD00001B
:1035E000890141F02001016103699B06FCD412208E
:1035F000FFF7C4B808B50A48FEF766FD084A094B4C
:103600000948C2F89030094BC2F89430FEF75CFDCF
:10361000074B054AC2F89030064BC2F8943008BDFB
:103620005448002000000840B8470020C85B00084C
:1036300000000440BC5B000870B503780546012B10
:103640005CD1434BD0F89040984258D1414B0E2169
:103650006520D3F8D82042F00062C3F8D820D3F810
:10366000002142F00062C3F80021D3F80021D3F812
:10367000802042F00062C3F88020D3F8802022F03E
:103680000062C3F88020D3F88030FEF755F9324B42
:10369000E360324BC4F800380023D5F89060C4F8DA
:1036A000003EC02323604FF40413A3633369002B4F
:1036B000FCDA01230C203361FFF760F83369DB0784
:1036C000FCD41220FFF75AF83369002BFCDA0026ED
:1036D0002846A660FFF73AFF6B68C4F81068DB68FD
:1036E000C4F81468C4F81C6883BB1D4BA3614FF079
:1036F000FF336361A36843F00103A36070BD194BFE
:103700009842C9D1134B4FF080600E21D3F8D820D6
:1037100042F00072C3F8D820D3F8002142F00072C2
:10372000C3F80021D3F80021D3F8802042F00072C2
:10373000C3F88020D3F8802022F00072C3F88020E4
:10374000D3F88030FFF7F0FE4D209EE7064BCDE723
:103750005448002000440258401400400300200256
:10376000003C30C0B8470020083C30C0F8B5D0F865
:103770009040054600214FF000662046FFF730FFDD
:10378000D5F8941000234FF001128F684FF0FF30EE
:10379000C4F83438C4F81C2804EB431201339F42A8
:1037A000C2F80069C2F8006BC2F80809C2F8080B39
:1037B000F2D20B68D5F89020C5F8983063621023D8
:1037C0001361166916F01006FBD11220FEF7D6FF22
:1037D000D4F8003823F4FE63C4F80038A36943F436
:1037E000402343F01003A3610123C4F810380923D8
:1037F000C4F814380B4BEB604FF0C043C4F8103BD7
:10380000094BC4F8003BC4F81069C4F80039D5F876
:10381000983003F1100243F48013C5F89820A36296
:10382000F8BD00BFD45B000840800010D0F89020A5
:1038300090F88A10D2F8003823F4FE6343EA0113AB
:10384000C2F800387047000000EB8103DA682DE908
:10385000F04716688046D0F890500C4606F00306F4
:103860004FEA810905EB4110731E4FEA411A1031EE
:10387000022B4FF0000398BFB604C0F8103B4FF086
:1038800001038CBF324E06F1805603FA01F39169B1
:1038900098BF06F5004600293AD0508A04F1580135
:1038A000304349016850D5F81C180B43C5F81C3843
:1038B000AA4400230127611ECAF81039A7405369A2
:1038C0008BB3138A928B9B08012A88BF5343D8F885
:1038D0009820981842EA034201F140032146C8F8B3
:1038E0009800284605EB83035A60FFF779FE08EB42
:1038F0000900C3681B8A43EA845348343343640194
:103900002B51D5F81C383B43C5F81C38BDE8F0876F
:10391000D0F8001B21F40041C0F8001BD5F81C189A
:1039200021EA0303C2E704F13F030A4A214628467D
:1039300005EB83035A60FFF753FEDAF8003923F4EE
:103940000043CAF80039D5F81C3823EA0703DBE73F
:103950000080001000040002D0F894201268C0F823
:103960009820FFF7F3BD00005831D0F8903049019E
:103970005B5813F4004004D013F4001F14BF01205F
:10398000022070474831D0F8903049015B5813F459
:10399000004004D013F4001F14BF01200220704720
:1039A00000EB8100C368196A0B6813604B685360B1
:1039B0007047000000EB810330B5DD68AB691A6821
:1039C000DA6019B9402A84BF40221A606B8A5C1EF3
:1039D0001444D0F89020480102EB4111B4FBF3F4F9
:1039E0006343033323F0030343EAC44343F0C04378
:1039F000C1F8103B2B6803F00303012B0CD1D2F864
:103A0000083813F4807FD1F8003B14BF43F0805393
:103A100043F00053C1F8003B0244D2F8003B43F0AE
:103A20000443C2F8003B30BD2DE9F041D0F890606E
:103A300005460C4606EB4113D3F8087B3A07C3F85A
:103A4000087B08D5D6F814381B0704D500EB810392
:103A5000DB685B689847FA071FD5D6F81438DB0790
:103A60001BD505EB8403D968CCB98B69488A5A68A1
:103A7000B2FBF0F600FB16228AB91868DA689042A9
:103A80000DD2121AC3E90024302383F31188214692
:103A90002846FFF78FFF84F31188BDE8F0810122EB
:103AA0006B89A24023EA02036B81CB68002BF4D020
:103AB00021462846BDE8F0411847000000EB81038D
:103AC000D0F89020480170B5DD686C692368E36028
:103AD00033BB13184FF40024C3F810492B6803F0CC
:103AE0000303012B0DD1D2F80838141813F4807F8A
:103AF000D4F8003914BF43F0805343F00053C4F8A6
:103B000000391044D0F8003943F00443C0F80039BC
:103B10000123D2F834088B400343C2F8343870BD17
:103B200019B9402B84BF402323602E8A741E1C4485
:103B3000B4FBF6F443EAC443141843F00053C4F84A
:103B40001039CBE72DE9F84FD0F8907005460C46B8
:103B50004E0107EB4113D3F8088918F0010FC3F8A1
:103B600008891CD0D7F81038DB0718D500EB810383
:103B7000D3F80CC0DCF81430D3F800E0DA689645CE
:103B80002FD2A2EB0E024FF000091A60C3F8049086
:103B9000302383F31188FFF791FF89F3118818F020
:103BA000800F1CD00120D7F83438A040034216D033
:103BB00005EB84030134D5F89050DF68E4B205EBDF
:103BC0000609796905EB0434D1F800C04E686645F2
:103BD00013D3D5F8343823EA0003C5F83438BDE8E8
:103BE000F88F012203898A4023EA02030381DCF86B
:103BF0000830002BD3D09847D1E7ACEB06033A8AC4
:103C0000934228BF1346D9F8182992B2B3EB820F1A
:103C1000E5D8D1F808E01A4603EB0E08032AA8EB12
:103C2000020A1CD813F0030214D023F0030B022A5B
:103C30004FEA930AF34418D0032A18D19BF80220C4
:103C400012049BF801B042EA0B221EF82AE04EEA69
:103C5000020222603344C1F808804B60B6E7DAF80C
:103C600000A0043AC4F800A0D8E70022E9E7002247
:103C7000EBE700002DE9F74F0446D0F890504FF0E5
:103C800040094FF0010A6F69AB691F4017F4805873
:103C90006F6105D0204603B0BDE8F04FFEF784BA4F
:103CA000002F15DAD5F8003E9E0705D0D5F8003E66
:103CB00023F00303C5F8003E2046FFF773FCD5F858
:103CC0000438204623F00103C5F80438FEF79CFAB7
:103CD000380505D52046FFF739FC2046FEF782FA65
:103CE000B9040CD5D5F8083813F0060FEB6823F4A7
:103CF00070530CBF43F4105343F4A053EB603A07E6
:103D00001AD56368DB681BB9AB6923F00803AB61A4
:103D10002378052B08D1D5F8003E204623F0030375
:103D2000C5F8003EFEF770FA2046FFF73BFC6368DB
:103D3000DB680BB120469847FB026AD4BE0209D566
:103D4000D4F890200026D4F89430F1B29B688B42CE
:103D500080F097803803D5F8186800F1B0807A03B6
:103D600035D5F30703D500212046FFF7EBFEB0075A
:103D700003D501212046FFF7E5FE710703D5022197
:103D80002046FFF7DFFE320703D503212046FFF769
:103D9000D9FEF30603D504212046FFF7D3FEB00673
:103DA00003D505212046FFF7CDFE710603D5062178
:103DB0002046FFF7C7FE320603D507212046FFF74E
:103DC000C1FEF30503D508212046FFF7BBFEFE0622
:103DD00040F1E580D4F89060336AC3F30A1203F02F
:103DE0000F0103F4F013B3F5802F00F0AD80B3F5AD
:103DF000402F09D104EB810106F58056CB680021E4
:103E00001B6A8A4240F09380B9F101097FF43BAF0D
:103E1000C9E0D4F890604FF0000BD4F894205FFA1A
:103E20008BF192688A4289D306EB4112D2F80009DD
:103E300000F44020B0F5802F20D1D2F800090028EE
:103E40001CDAD2F8000940F09040C2F80009D2F81C
:103E500000090028FBDBD4F890000191FFF7C0FBBC
:103E6000019922890AFA01F022EA0002228104EB78
:103E70008102D26892680AB1204690470BF1010B8B
:103E8000CBE702EB4110D0F8003B03F44023B3F53D
:103E9000802F12D1D0F8003B002B0EDA63890AFA8A
:103EA00001F023EA0003638104EB8103DB68DB6834
:103EB0001BB1204601929847019A013643E7F1036E
:103EC00003D500212046FFF7AFFDB20303D5012142
:103ED0002046FFF7A9FD730303D502212046FFF713
:103EE000A3FD300303D503212046FFF79DFDF1021A
:103EF00003D504212046FFF797FDB20203D5052123
:103F00002046FFF791FD730203D506212046FFF7F7
:103F10008BFD300203D507212046FFF785FDF10117
:103F20007FF51DAF08212046FFF77EFD17E78807C4
:103F300001D1D6F80080072901F101019CBF03F8E7
:103F4000018B4FEA18285CE704EB810106F58056E7
:103F5000CB689F69D7E90003C31AB8680027BA4243
:103F60000FD1C96893428969D1E901608BBF80187C
:103F7000C01892199B1987BF88604A6088604B609F
:103F800042E717F0030F01D1D6F80080BB4207F1DA
:103F9000010784BF00F8018B4FEA1828DFE7034BC5
:103FA0001F427FF431AF03B0BDE8F08F3000000452
:103FB00008B50348FFF75EFEBDE80840FFF704BA06
:103FC0005448002008B50348FFF754FEBDE80840F8
:103FD000FFF7FAB9B8470020D0F8903003EB411151
:103FE000D1F8003B43F40013C1F8003B70470000D8
:103FF000D0F8903003EB4111D1F8003943F40013AD
:10400000C1F8003970470000D0F8903003EB41113F
:10401000D1F8003B23F40013C1F8003B70470000C7
:10402000D0F8903003EB4111D1F8003923F400139C
:10403000C1F800397047000030B50433039C0172A9
:10404000002103FB0425C160C0E90653049B036300
:10405000059BC0E90000C0E90422C0E90842C0E9AC
:104060000A11436330BD00000022416AC260C0E90A
:104070000411C0E90A226FF00101FEF72DBC000017
:10408000D0E90432934201D1C2680AB9181D7047C1
:1040900000207047036919600021C2680132C260C4
:1040A000C269134482699342036124BF436A036176
:1040B000FEF706BC38B504460D46E3683BB16269BD
:1040C0000020131D1268A3621344E36207E0237A01
:1040D00033B929462046FEF7E3FB0028EDDA38BD68
:1040E0006FF00100FBE70000C368C269013BC360D9
:1040F0004369134482699342436124BF436A436125
:1041000000238362036B03B11847704770B53023F7
:10411000044683F31188866A3EB9FFF7CBFF054654
:1041200018B186F31188284670BDA36AE26A13F8B5
:10413000015B9342A36202D32046FFF7D5FF002321
:1041400083F31188EFE700002DE9F84F04460F468E
:1041500091469A464FF0300888F311880026B346FE
:10416000A56A4DB951462046FFF7A4FF20B185F35B
:1041700011883046BDE8F88FD4E90A15A9EB06038B
:104180006D1A9D4228BF1D46402D1AD93B4601F1AC
:10419000400251F8040B914243F8040BF9D1A36A91
:1041A000403740364033E26AA3629A4202D8204642
:1041B000FFF79AFF8BF311884E45DAD288F3118806
:1041C000CEE738462A46FCF777FFA36A2F442E44F1
:1041D0002B44E8E710B5029C0433017203FB042171
:1041E000C460C0E906130023C0E90A33039B0363DC
:1041F000049BC0E90000C0E90422C0E9084243630F
:1042000010BD0000026A6FF00101C260426AC0E99D
:1042100004220022C0E90A22FEF75EBB0346D0E971
:104220000420824201D1DB681BB950F8043B0B60CB
:10423000704700231846FAE7C3680021C2690133BA
:10424000C3604369134482699342436124BF436A54
:104250004361FEF735BB000038B504460D46E36800
:104260003BB1236900201A1DA262E2691344E36294
:1042700007E0237A33B929462046FEF711FB0028D0
:10428000EDDA38BD6FF00100FBE70000036919604B
:10429000C268013AC260C2691344826993420361F1
:1042A00024BF436A036100238362036B03B1184791
:1042B0007047000070B530230D460446114683F365
:1042C0001188866A2EB9FFF7C7FF10B186F31188EF
:1042D00070BDA36A1D70A36AE26A01339342A362B0
:1042E00004D3E16920460439FFF7D0FF002080F3B2
:1042F0001188EDE72DE9F84F05460C4691469A46A0
:104300004FF0300888F311880027BB46AE6A4EB9DB
:1043100051462846FFF7A0FF20B186F311883846A2
:10432000BDE8F88FD5E90A06A9EB0703361A9E42C5
:1043300028BF1E46402E1AD904F1400354F8042B1E
:104340009C4240F8042BF9D1AB6A40374033EA6A0B
:10435000AB629A4204D8E96928460439FFF796FF10
:104360008BF311884F45DAD288F31188CEE72146C6
:104370003246FCF7A1FEAB6A344437443344E6E7E7
:10438000D0E9042103468A4216D1C068A8B1986AD0
:1043900098B10438801A10D010600120D968013912
:1043A000D960D9690A4499698A421A6124BF5A6A54
:1043B0001A6100229A6270470020704700F0BCBA70
:1043C000014B586A704700BF000C0040034B0022AD
:1043D00058631A610222DA60704700BF000C004087
:1043E000014B0022DA607047000C0040014B58631B
:1043F000704700BF000C0040024B034A1A60034A9A
:104400005A607047F0480020704B002000000220E6
:10441000094B70B5D3E90054661BB04209D8201A85
:1044200049420840821A954203D8944201D35A6007
:1044300070BD0020FCE700BFF048002008B5302325
:1044400083F31188FFF7E4FF002383F3118808BD8D
:104450000448054B03600023C0E901330C3000F031
:104460001FB900BFF84800203D440008CB1D083AA2
:1044700023F00703591A521A10B4D2080024C0E9D5
:10448000004384600C301C605A605DF8044B00F0FF
:1044900007B900002DE9F84F3B4BCD1D0F46914663
:1044A000002814BF8046984625F00703994203D997
:1044B00000242046BDE8F88F082A08F10C0A4FEACC
:1044C000D50538BF4FF00809504600F02BF908F128
:1044D000040309F10700C9F1000C19461B6883B9F0
:1044E000504600F029F9D8F80030002BE0D008221F
:1044F0004946E800984704460028DAD040E9028798
:10450000D7E71A18D3F804E002EA0C020EF101060C
:10451000A2F1080403EBC606A642DED9B21AB5EB37
:10452000E20F4FEAE20BD8D8A3421BD203F10802F4
:10453000AB45A4EB02024FEAE2025A600BD9681CB9
:10454000ABEB050B04EBC0010BF1FF324A601A68BC
:1045500044F8302019606760504644F8088B00F03A
:10456000EBF8A6E7AE451A680AD0013503EBC500A3
:1045700043F8352000F10802B61A0246F6104660EC
:104580001C460A60E7E700BFF8480020F8B550F87D
:10459000043C044650F8085CA0F1080607332F1DC0
:1045A0000C35DB0840F8043C284600F0BBF83B46DD
:1045B0009F421A6801D0B34228D20AB1964225D24E
:1045C00044F8082C54F8042C1E60013254F8081CDE
:1045D00006EBC200814206D1486810440A6844F8DC
:1045E000040C44F8082C59684A1C03EBC20296429A
:1045F00007D154F8042C01320A445A6054F8082CAC
:104600001A602846BDE8F84000F096B81346CFE798
:10461000FEE7000070B5002504461D4B86B005631B
:104620000E4681635860FEF7A7FE04F12803A560DB
:104630006563C4E90A3304F11003C4E904334FF09D
:10464000FF33C4E90044C4E90635FFF7B9FE2B4641
:10465000024604F13C012046C4E9082380230D4AA8
:104660006567FEF795F87368E0600B4A0362012303
:10467000009280F824306846F26801923269CDE9F0
:104680000223064BCDE90435FEF7B8F806B070BD3D
:10469000782B0020F85B0008FD5800081146000840
:1046A0000023C0E9000083600361704770B51C4BB4
:1046B00005468468DE685CB3B44213D103690133F4
:1046C000036170BDA36094F8243083B1062B15D12B
:1046D000A06A2146D4E9003213605A60FDF7B4FFA6
:1046E000A36A9C68B368A2689A42EBD306E0D4E957
:1046F0000032204613605A60FDF7B6FF2846314667
:10470000FDF7A2FFB5620620BDE87040FDF7AEBF21
:104710000369866001330361336BC3603063D0E7A4
:10472000002B002008B5302383F31188FFF7BEFF6C
:10473000002383F3118808BD0346194AD0689A689C
:10474000824210B51FD1302282F3118819690139D4
:104750001961A9B91C68DA68A34202631DD0416BD4
:1047600092B98160012218681A6102681A60536068
:10477000026B9860DA600363FDF776FFFDF7D6FF02
:10478000002383F3118810BD1468A24203D0A468EB
:10479000A14238BF2146D268E2E79960F0E700BF46
:1047A000002B0020024A536B03435363704700BF42
:1047B000002B00204B6843608B688360CB68C3602C
:1047C0000B6943614B6903628B6943620B68036049
:1047D0007047000008B53B4B40F2FF713A48D3F8F0
:1047E00088200A43C3F88820D3F888206FF30A0290
:1047F000C3F88820D3F88820D3F8E0200A43C3F810
:10480000E020D3F808210A433049C3F808210A46BA
:10481000D3F80831FFF7CEFF00F580601C31FFF7B9
:10482000C9FF02F1380100F58060FFF7C3FF02F114
:10483000540100F58060FFF7BDFF02F1700100F543
:104840008060FFF7B7FF02F18C0100F58060FFF791
:10485000B1FF02F1A80100F58060FFF7ABFF02F1A4
:10486000C40100F58060FFF7A5FF02F1E00100F54B
:104870008060FFF79FFF02F1FC0100F58060FFF709
:1048800099FF02F58C7100F58060FFF793FF00F04F
:1048900023F90F4BD3F8902242F00102C3F8902283
:1048A000D3F8942242F00102C3F894220522C3F8FF
:1048B00098204FF06052C3F89C20064AC3F8A0200D
:1048C00008BD00BF0044025800000258245C0008E4
:1048D00000ED00E01F00080308B500F0F7F9FDF750
:1048E00031FF104BD3F8DC2042F04002C3F8DC204B
:1048F000D3F8042122F04002C3F80421D3F8043194
:10490000094B1A6842F008021A601A6842F0040261
:104910001A60FEF707FDFEF73FFCBDE80840FEF712
:10492000BBB900BF0044025800180248012070477C
:104930000020704770470000114BD3F8E82042F088
:104940000802C3F8E820D3F8102142F00802C3F8A7
:1049500010210C4AD3F81031D36B43F00803D36312
:10496000C722094B9A624FF0FF32DA6200229A6145
:104970005A63DA605A6001225A611A60704700BFB8
:10498000004402580010005C000C0040094A08B5C1
:104990001169D3680B40D9B29B076FEA010111611D
:1049A00007D5302383F31188FDF7E6FE002383F358
:1049B000118808BD000C0040064BD3F8DC200243F0
:1049C000C3F8DC20D3F804211043C3F80401D3F862
:1049D000043170470044025808B53E4B4FF0FF3198
:1049E000D3F8802062F00042C3F88020D3F8802002
:1049F00002F00042C3F88020D3F88020D3F884204E
:104A0000C3F88410D3F884200022C3F88420D3F89C
:104A10008400D86F40F0FF4040F4FF0040F4DF40D6
:104A200040F07F00D867D86F20F0FF4020F4FF00EF
:104A300020F4DF4020F07F00D867D86FD3F88800DB
:104A40006FEA40506FEA5050C3F88800D3F88800EE
:104A5000C0F30A00C3F88800D3F88800D3F89000A8
:104A6000C3F89010D3F89000C3F89020D3F89000CA
:104A7000D3F89400C3F89410D3F89400C3F89420AA
:104A8000D3F89400D3F89800C3F89810D3F898009E
:104A9000C3F89820D3F89800D3F88C00C3F88C1092
:104AA000D3F88C10C3F88C20D3F88C20D3F89C203A
:104AB00062F00202C3F89C20D3F89C2002F00202AC
:104AC000C3F89C20D3F89C30FCF750FDBDE80840AB
:104AD00000F0E8B80044025808B50122534BC3F86F
:104AE0000821534BD3F8F42042F00202C3F8F4201B
:104AF000D3F81C2142F00202C3F81C210222D3F891
:104B00001C314C4BDA605A689104FCD54A4A1A6051
:104B100001229A60494ADA6000221A614FF4404249
:104B20009A61444B9A699204FCD51A6842F48072E7
:104B30001A603F4B1A6F12F4407F04D04FF480325A
:104B40001A6700221A671A6842F001021A60384B8D
:104B50001A685007FCD500221A611A6912F038024F
:104B6000FBD1012119604FF0804159605A67344AE6
:104B7000DA62344A1A611A6842F480321A602C4BA5
:104B80001A689103FCD51A6842F480521A601A68B8
:104B90009204FCD52C4A2D499A6200225A6319636B
:104BA00001F57C01DA6301F2E71199635A64284A3E
:104BB0001A64284ADA621A6842F0A8521A601C4B3A
:104BC0001A6802F02852B2F1285FF9D148229A619E
:104BD0004FF48862DA6140221A621F4ADA641F4A7F
:104BE0001A651F4A5A651F4A9A6532231E4A136086
:104BF000136803F00F03022BFAD10D4A136943F037
:104C000003031361136903F03803182BFAD14FF033
:104C10000050FFF7D1FE4FF08040FFF7CDFE4FF080
:104C20000040BDE80840FFF7C7BE00BF008000514C
:104C3000004402580048025800C000F00200000181
:104C40000000FF0100889008121020006302090193
:104C5000470E0508DD0BBF012000002000000110F9
:104C60000910E000000101100020005208B50348BF
:104C700000F010FDBDE80840FEF7A6BB1C4B00206D
:104C800008B50348FCF7DAFDBDE80840FEF79CBB19
:104C90006028002008B5FFF779FEBDE80840FEF760
:104CA00093BB000008B509217A20FCF745FE0921D5
:104CB0003120FCF741FE07213220FCF73DFE0C219C
:104CC0005220BDE80840FCF737BE000008B5FFF7EA
:104CD00083FE00F04DFAFCF7F3FF00F03BFAFDF71E
:104CE000F1F9FDF79FF8FFF725FEBDE80840FFF753
:104CF00065BB00000379052B05BF836A00200120F6
:104D00004B6004BF4FF400730B60704773B50446EB
:104D10000D460F4EA26B01AB0D2120468DB100F068
:104D2000CFFA90B9019B33420ED1C3F34323042B36
:104D30000BD0053B022B07D84FF47A70FDF78CFDA2
:104D4000E8E700F0A7FAECE7012002B070BD00BF71
:104D500008E0FFFDF8B5856A0446A94202D26D1A43
:104D6000AB4205D9636B012043F080036363F8BD58
:104D70000625057100F040FC05232371F7E70000CC
:104D8000F8B5856A0446A94202D26D1AAB4205D92C
:104D9000636B012043F080036363F8BD0725057151
:104DA00000F050FC05232371F7E7000038B50579C2
:104DB0000446052D05D10823037100F069FC257117
:104DC00038BD0120FCE70000036B03F00F03022B4A
:104DD000F0B5054685B00C464FF000070CD10F70BA
:104DE00003AB1A4A062100F06BFA78B9184B039A04
:104DF00013405BB9012308E0C66B7E220F701830A8
:104E00007F2100F055FC18B90023237005B0F0BDD8
:104E10000623402231462846009700F0C9FA0028B0
:104E2000F2D1B3895BBA9B07F0D50A4B40223146D9
:104E300028460093062300F0BBFA0028E4D1337C17
:104E400003F00F030F2BDFD0D4E700BF0001B9033D
:104E500008E0FFFDF1FFFF800121FFF757BF0000D1
:104E600070B53023044683F311880379022B4FF089
:104E7000000303D183F3118800250CE004220271A2
:104E800083F31188FFF7E8FF05460226204625B187
:104E900000F0DCF92671284670BD00F0D7F92671C4
:104EA000EAE700000021FFF731BF00000323F0B55F
:104EB000044687B0002503718DF80F5000F09CF96F
:104EC0002A462946204600F0D9F94FF4D57205ABA1
:104ED0000821204600F0F4F90246B8B90123236303
:104EE000059B03F47063B3F5807F09D105AB3721CF
:104EF000204600F0E5F918B98F4B059A1340A3B18D
:104F00002046012500F0A2F90223ABE005AB2A46BA
:104F10003721204600F0D4F928B9874A059B1A406A
:104F2000002A00F0A38002232363236B03F00F0306
:104F3000022B40F0A580642542F21070FDF78CFC36
:104F400005AB7E4A0121204600F0A4F90028D7D104
:104F5000059B002B80F290805B0003D5236B43F010
:104F600010032363002204F108030221204600F00D
:104F700003FA02460028C3D104F138030321204676
:104F800000F09EF90028BBD104F11805A26B09219D
:104F900020462B4600F0F0F90028B1D104ABA26BFB
:104FA0000721204600F08CF90028A9D10DF10F014E
:104FB0002046FFF709FF9DF80F10204600F02EF95C
:104FC0002046FFF76FFF0646002899D1236B03F0B8
:104FD0000F03022B7DD17E227F21284600F068FB43
:104FE000012876D9E56B42F21070FDF735FC0823F5
:104FF0004FF4007229462046009600F0D9F90028A7
:105000007FF47EAF284600F09FFB0DF10F01A062F8
:105010002046FFF7D9FE9DF80F10204600F0FEF85D
:1050200004AB4FF400721021204600F049F9054608
:1050300000287FF465AF404E049B33427FF460AF9D
:10504000236B13F00E0F48D003F00F03022B7FF4F5
:1050500057AFE36A1978012963D0022968D0002983
:1050600068D105232846237107B0F0BD11462046BC
:10507000226300F003F958E7013D7FF45DAF3FE79D
:105080002F4E64252F4A2C4F012B08BF164605AB27
:1050900000223721204600F013F900287FF430AFBA
:1050A000059B3B427FF42CAF05AB324629212046BD
:1050B00000F0F0F800287FF423AF059B002BFFF6EB
:1050C0004BAF013D3FF41CAF42F21070FDF7C4FB43
:1050D000DDE7284600F00CFB97E7E36A1978002922
:1050E000BFD001297FF40CAF204600F0B5F805AB26
:1050F000A26B3721204600F0E3F800287FF400AFD0
:10510000059B33427FF4FCAE05AB0222062120460C
:1051100000F0D6F800287FF4F3AE059B3342A0D010
:10512000EEE6094F204600F097F805AB3A46EDE76A
:10513000064FF7E7064FF5E708E0FFFD0080FFC0E8
:10514000000010800080FF500001B7030002B70389
:105150000000B70300F036B8044B0360012303716D
:1051600000234363C0E90A33704700BF585D00085D
:1051700070470000836CC26A8B42506806D9013BBD
:105180004A0003EB4103B3FBF2F3184470470000FD
:1051900001F001038A0748BF43F002034A0748BFF2
:1051A00043F008030A0748BF43F00403CA0648BF98
:1051B00043F010038A06426B48BF43F020031A43B2
:1051C0004263704708B50748FFF7C6FF054A00234A
:1051D00005491364054BC2E91113054BD363054B15
:1051E000D36408BD1C4B00200070005200B4C404FE
:1051F0001C4900201849002010B5446C0649FFF7EF
:10520000B9FF6060236842F2107043F0030323602B
:10521000BDE81040FDF720BB801A060070B5456C54
:105220000129074E6C6808BF064904EA060418BF46
:105230000549FFF79FFF044344F480546C6070BD40
:1052400000ECFFFF80F0FA0240787D01436C002201
:105250005A601A6070470000426C0129536823F4B9
:10526000404304D0022905D001B95360704743F48C
:105270008043FAE743F40043F7E70000436C41F44E
:1052800080519A60D9605A6B1206FCD580229A63CD
:105290007047000010B541F48851446CA260E16091
:1052A000616B11F04502FBD0A26311F0040203D040
:1052B000FFF76EFF012010BD616910461960FAE723
:1052C00010B541F48851446CA260E160616B11F04B
:1052D0004502FBD0A26311F0050203D0FFF758FF8F
:1052E000012010BD616910461960FAE72DE9F0410F
:1052F000302304460F46164683F31188436CDB6B5C
:1053000023B14FF0FF314030FDF7B2FA606C00225C
:105310000265C263C262456B15F4807504D185F3E2
:1053200011880120BDE8F0814FF0FF33836382F3E1
:105330001188012F06D9334620460C21BDE8F041E3
:10534000FFF7BEBF1046EDE72DE9F041446C0F4674
:1053500000251646616BA1632565E562FFF718FF1E
:10536000012F06D933462A460C21BDE8F041FFF74C
:10537000A7BFBDE8F081000010B541F49851446C1E
:10538000A260E160616B11F04502FBD0A26311F0F5
:105390003F0203D0FFF7FCFE012010BD216A10463A
:1053A0001960E1695960A16999606169D960F4E7A0
:1053B0002DE9F34104460191006D01A916461F46EF
:1053C00000F0C6F900284BD0636C4FF47A72A06CE1
:1053D0005D68DDF80480C5F3090501356D00B0FB9B
:1053E000F5F0B0FBF2F0504358622046FFF734FD71
:1053F00060BB626C4FF0FF33E56C3946C2F85880F1
:105400004FF001082046C2F8508093634FF4957323
:10541000D36342F207039662D3622B46089AFFF7E2
:105420004FFF98B92A680F4B13407BB92A46414673
:105430002046FFF75BFF054640B932460199206DD3
:1054400000F0BEF9284602B0BDE8F081E26C01210F
:105450002046FFF779FF32460199206D00F0B0F940
:105460000125EFE708E0FFFD2DE9F7431F46436CF8
:10547000856C04465E68884601924FF47A72C6F3E2
:10548000090601367600B5FBF6F5B5FBF2F5554396
:105490005D62FFF7E1FC002847D14FEA472901A9E7
:1054A000206D4A4600F054F900283ED0656C019BFF
:1054B000E66CAB6501232B654FF0FF33AB634FF414
:1054C0009573EB63236BC5F82890DB06334658BF12
:1054D0004FEA4828012F42461BD912212046FFF7E8
:1054E000EFFEC0B93268124B1340A3B942F29303E6
:1054F000324639462046EB62FFF7F8FE054650B9C2
:105500004A460199206D00F05BF9284603B0BDE8DA
:10551000F0831121E2E7E26C39462046FFF714FFE1
:105520004A460199206D00F04BF90125EDE700BFD7
:1055300008E0FFFD2DE9F3411F46436C856C0446EE
:105540005E68884601924FF47A72C6F30906013606
:105550007600B5FBF6F5B5FBF2F555435D62FFF756
:105560007BFC002843D17E0201A9206D324600F069
:105570003FF900283BD0656C019BAB6501232B658F
:105580004FF0FF33AB634FF48D73EB63236BAE626D
:10559000DB06E66C58BF4FEA4828012F33464246E7
:1055A0001AD919212046FFF78BFEB8B93268114B82
:1055B00013409BB942F29103324639462046EB62D2
:1055C000FFF794FE054648B90199206D00F04CF9AB
:1055D000284602B0BDE8F0811821E3E739462046AD
:1055E000E26CFFF7B1FE0199206D00F03DF9012555
:1055F000EEE700BF08E0FFFD12F0030F2DE9F041D8
:1056000007460C4615461E4617D00E44B44202D13A
:105610000020BDE8F0810123FA6B21463846FFF7F0
:1056200023FF0028F5D128464FF40072F96B05F5E9
:1056300000750134FBF740FDE8E7BDE8F041FFF7F6
:1056400013BF000012F0030F2DE9F04107460C468E
:1056500015461E4617D00E44B44202D10020BDE8C4
:10566000F08129464FF40072F86B05F50075FBF7E1
:1056700023FD0123FA6B21463846FFF75BFF002824
:10568000EDD10134E8E7BDE8F041FFF753BF00007A
:1056900000207047302310B583F311880024436C39
:1056A00040302146DC63FDF7F1F884F3118810BD2A
:1056B00070B501F01F04550901234E090134B5EB03
:1056C000511F02F01F0203FA04F350F8254038BFBF
:1056D00050F8260003F1FF333DBFD4401840C2F11B
:1056E000200303EA040036BF9840D040204370BD39
:1056F00070B57E227F210546FFF7DAFF18B1012839
:1057000019D0002070BD3E2249212846FFF7D0FF66
:105710002F22044631212846FFF7CAFF06460134EE
:105720005022023653212846B440FFF7C1FF093802
:1057300004FA00F0E6E7302245212846FFF7B8FFDB
:1057400001308002DEE70000D0F8D400704700008E
:10575000F8B50E461546044640B905F11F013068FC
:1057600021F01F01FDF7BAFD012718E0427B294611
:105770003068FDF749FD07460028EED133686360C5
:10578000A368AB4211D213B12068FDF739FD637BEA
:10579000284633B1FDF730FD206028B9A0603846B7
:1057A000F8BDFDF7F5FCF7E7A560206805F11F01DE
:1057B000306021F01F01FDF791FD01232373D3E732
:1057C00070B50E4602F11F010446154621F01F0177
:1057D0003046FDF795FD4CB12168B14206D16068B5
:1057E00010B12A46FBF768FC0023237370BD00004C
:1057F000F8B50E461446054640B904F11F0130685D
:1058000021F01F01FDF77CFD012716E0427B2146B8
:105810003068FDF7F9FC07460028EED1AB68A342DB
:1058200011D213B12868FDF7EBFC6B7B204633B136
:10583000FDF7E2FC286028B9A8603846F8BDFDF7FE
:10584000A7FCF7E7AC60316819B122462868FBF77E
:1058500033FC286804F11F01306021F01F01FDF7BF
:105860004FFD01232B73CFE720B103688B4204BFA8
:105870000023037370470000616365663435656219
:1058800030663031343539340053544D3332483773
:105890003F3F3F0053544D3332483733782F373230
:1058A000780053544D3332483734332F3735332F44
:1058B000373530006330004172647550696C6F7425
:1058C0000025424F415244252D424C00255345525C
:1058D00049414C250025424F41524425004D7962F3
:1058E0006F78483734335F6D696E69003031323319
:1058F0003435363738394142434445460069646C93
:1059000065000000121100001213000012100000C8
:1059100001105A00031059000120580003205600BE
:1059200010000240080002400008024000000B0086
:1059300028000240080002400408024006010C0052
:1059400040000240080002400808024010020D001A
:1059500058000240080002400C08024016030E00E6
:10596000700002400C0002401008024000040F00CA
:10597000880002400C000240140802400605100096
:10598000A00002400C00024018080240100611005E
:10599000B80002400C0002401C08024016072F000D
:1059A00010040240080402402008024000083800A9
:1059B0002804024008040240240802400609390075
:1059C000400402400804024028080240100A3A003D
:1059D00058040240080402402C080240160B3B0009
:1059E000700402400C04024030080240000C3C00ED
:1059F000880402400C04024034080240060D4400B2
:105A0000A00402400C04024038080240100E450079
:105A1000B80402400C0402403C080240160F460045
:105A200000960000000000000000000000000000E0
:105A3000000000000000000000000000811C0008C1
:105A40006D1C0008A91C0008951C0008A11C00087A
:105A50008D1C0008791C0008651C0008B51C000896
:105A600000000000991D0008851D0008C11D0008E8
:105A7000AD1D0008B91D0008A51D0008911D0008F6
:105A80007D1D0008191E0008010000000000000034
:105A900000000000B45800080000000000000000F2
:105AA000D0280020002B00205448002001010200D3
:105AB000392C0008452B0008E52B0008C92B0008ED
:105AC00003000000000000008D200008000000001E
:105AD00010000000802B00200000000001000000EA
