:020000040800F2
:1000000000200020C90E0008C70E0008C50E000819
:10001000C50E0008C50E0008C50E0008000000004F
:10002000000000000000000000000000C70E0008F3
:10003000C70E000800000000C70E000835020008C7
:10004000C50E0008C50E0008C50E0008C50E000844
:10005000C50E0008C50E0008C50E0008C50E000834
:10006000C50E0008C50E0008C50E0008C50E000824
:10007000C50E0008C50E0008C50E0008C50E000814
:10008000C50E0008C50E0008C50E0008C50E000804
:10009000C50E0008C50E0008C50E0008C50E0008F4
:1000A000C50E0008C50E0008C50E0008C50E0008E4
:1000B000C50E0008C50E0008C50E0008C50E0008D4
:1000C000C50E0008C50E0008C50E0008C50E0008C4
:1000D000C50E0008C50E0008C50E0008C50E0008B4
:1000E000C50E0008C50E0008C50E0008C50E0008A4
:1000F000C50E0008C50E0008C50E0008C50E000894
:10010000C50E0008C50E0008C50E0008C50E000883
:10011000C50E0008C50E0008C50E0008C50E000873
:10012000C50E0008C50E0008C50E0008C50E000863
:10013000C50E0008C50E0008C50E0008C50E000853
:10014000C50E0008C50E0008C50E0008950600087B
:10015000012901D100F0A6BA7047000010B5074C84
:100160002378012B02D94FF0FF3010BD00F0C2FA06
:100170000028F8DB0123637010BD00BF18000020C9
:10018000084B10B51C465860FFF7E8FF002804DB59
:10019000054A53680133536010BD6368002BF3D1E7
:1001A00010BD00BFB00600201800002008B5FFF702
:1001B000E7FFA0F120035842584108BD034B1B78CC
:1001C000012B01D800F0A4BA704700BF180000202E
:1001D00038B5134C2368013320D0124D124B2A68D6
:1001E0009A421BD9114B9B6803F1006303F58053BE
:1001F0009A4213D200F046FE00F0C2FE00F0D0FE9C
:1002000000F072FA00F0C4FA00F092FA084B1C6099
:1002100023682A6883F308881047FEE738BD00BFCB
:100220000010000804100008FF0F00080000002064
:1002300008ED00E008B500230C4A52F823101046E0
:1002400021B152F82310013942F823100133042B55
:10025000F2D1074B93F810313BB983682BB90220D8
:1002600000F01EFB014B32229A6008BDB006002050
:1002700018000020024BD860DA68002AFCD17047D1
:10028000B00600202DE9F04F8146C34EC34F002435
:100290008FB034700420BD6800F05EFEFB684FF440
:1002A0007A70584300F050FEDFF80CA300F060FEB7
:1002B00000F06EFEB9F1000F01D0CAF8009086F888
:1002C0001041CAF808404FF0FF38012000F0D8FA7A
:1002D000B9F1000F04D0DAF80030002B00F0CF8124
:1002E0000020FFF74DFF0390039B002BF0DB012064
:1002F00000F0B6FA039B213B102BE6D801A252F87E
:1003000023F000BF4903000857030008B7030008A3
:10031000CB020008CB020008CB020008150400083D
:10032000CB020008AD0400082F0500086505000891
:10033000BD050008CB020008D5050008CB02000867
:10034000FB050008390600080220FFF72FFF0028F0
:1003500040F0728180E14FF47A70FFF711FF041EC4
:10036000C0F27A810220FFF721FF002800F074819B
:10037000601E042800F27081DFE800F00305070921
:100380000E00874804E0854802E0864800E0864881
:100390000421FFF713FF4FE11C24204600F029FA47
:1003A0000EAB43F8140D184604210434FFF706FF82
:1003B0002C2CF2D140E10220FFF7F8FE002800F0DB
:1003C0004B810123022086F8103100F049FA00F039
:1003D00047FD0025284600F0F7F9044620B12846DD
:1003E00000F0F8F90135F5E7022086F8100100F079
:1003F00047FABB689C4207D2204600F0FAF9013068
:1004000040F033810434F4E7002586F81051CAF82F
:10041000085011E13220FFF7B3FE041EC0F21C8128
:1004200014F0030B40F01881BA686319934200F28C
:100430001381B4F5807F00F20F81A3450FD04FF4F4
:100440007A70FFF79DFE0390039B002BC0F204819E
:10045000039A564B0BF803200BF1010BEDE7C82074
:10046000FFF7A4FE002800F0F7802DB94FF0FF330E
:10047000D6F81481C6F8143124F0030404EB050BFC
:100480002C465C4510D0494B20465B1B1959019303
:1004900000F0A9F9204600F0ACF9019B1B599842E5
:1004A00040F0E3800434ECE72546C5E00220FFF786
:1004B0007DFE002800F0D0800024A146BB689C424D
:1004C00031D22CB9B8F1FF3F02D0CDF8248003E03F
:1004D000204600F08EF90990D6F8183293B91A46E2
:1004E000082112F0010F4FEA520016BF304A0246AF
:1004F00042400139F5D12F4941F823200133B3F5AA
:10050000807FECD1002209ABD35C013283EA09037E
:10051000DBB206EB8303D3F81432042A83EA1929E9
:10052000F1D10434CAE70EA840F8289D30E7002432
:100530006420FFF725FE0028C0F28E8009ABE0544E
:100540000134042CF4D10220DDF824B0FFF72EFE94
:10055000002800F08180584600F051F90EAB43F8B6
:10056000240D17E000246420FFF70AFE002873DB47
:1005700009ABE0540134042CF5D10220DDF824B09D
:10058000FFF714FE002867D0584600F063F90EAB61
:1005900043F8200D18462EE018000020000000202F
:1005A000B00F000804000020080000202C010020EB
:1005B0002083B8ED2C020020B00600200220FFF7B7
:1005C000F5FD002848D000F01DF90EAB43F81C0DD6
:1005D0001846DDE60220FFF7E9FD00283CD009A916
:1005E000142000F015F904460EA840F8184D042117
:1005F000FFF7E4FD09A82146CBE64FF47A70FFF738
:10060000D5FD48B3B8F1FF3F0BD11E4B09A81B889D
:100610000221ADF82430FFF7D1FD6420FFF72AFE58
:100620002DE00020414600F0DEF8002000F0E1F867
:100630004045EAD02C4618E03278134B0AB95A7874
:100640001A70104B09A81B880221ADF824304FF016
:100650000009FFF7B3FD38E60C4B09A81B880221FF
:10066000ADF82430FFF7AAFD2FE6094B09A81B8837
:100670000221ADF824302546FFF7A0FD25E60FB096
:10068000BDE8F08FB40F000818000020B60F000876
:10069000B80F0008024B186808B100F00DBC704795
:1006A0002C06002010B50F4C4FF4E131206000F013
:1006B0006DFB2068082100F07DFB2068002100F020
:1006C00082FB20680C2100F08AFB2068002100F0EA
:1006D00080FB2068002100F088FB2068BDE8104006
:1006E00000F089BBC0060020014B186800F088BBF1
:1006F000C006002008B5054B186803689B0602D5A4
:1007000000F092FB08BD4FF0FF3008BDC00600208E
:1007100038B504464518AC4206D0044B14F8011B0A
:10072000186800F072FBF6E738BD00BFC006002075
:1007300010B5144C0021204601224FF4404300F034
:10074000ABF9012220232046002100F0A5F9204624
:1007500004F5823420211C3400F00AFB20464FF0BF
:10076000C05100F06DFB012204230748002100F076
:1007700093F920464FF4003100F062FB034B002256
:100780001A6010BD000C0140000801401810024022
:1007900010B5042000F0F4F9042000F0BFF9084B74
:1007A00000241C60032000F015FA204600F012FA25
:1007B00000F03CFA032000F041FA024B1C6010BD2F
:1007C00004100240081002403B2894BF4FF48060A0
:1007D000002070473B2805D800F500300430800227
:1007E00000F01EB9704700F1006000F5805000F085
:1007F00057BB00F1006000F5805000687047002092
:1008000070470000014B1868704700BF002004E0EB
:10081000F0B585B005460E466A466F460C4B03F1AF
:10082000080E144618685968083303C473452246F5
:10083000F7D118681B792060237100203B5C2BB135
:100840006A1E904202DA33540130F7E705B0F0BD7A
:10085000BA0F000800F10050A0F6180000687047B9
:10086000012802D0022804D0704704484FF4804188
:1008700002E002484FF4004100F07ABA000C014057
:10088000012802D0022804D0704704484FF4804168
:1008900002E002484FF4004100F068BA000C014049
:1008A000012802D0022804D0704704484FF4804148
:1008B00002E002484FF4004100F060BA000C014031
:1008C00010B52C48082100F0B7FA00224FF440433D
:1008D0002948032100F0E0F827484FF4404100F098
:1008E00047FA2448082100F0A7FA2348202100F005
:1008F0003DFA012220232048002100F0CDF81F48B6
:100900004FF0C05100F098FA1A48042100F094FA10
:10091000022204231A48032100F0BEF817484FF4BE
:10092000003100F089FA174B17491A6842F48072B7
:100930001A60164A1068884204BF002111601A68C4
:10094000202122F480721A600B4800F014FA20284B
:1009500014BFC8244FF0FF3400F0CAF90C4801213D
:10096000FFF7F6FB2046FFF78DFC0024FFF730FC75
:10097000F8E700BF18100240000C01401C100240B4
:10098000000801400070004017037119046C00401A
:1009900000440040074B084918680A6800F0350019
:1009A000B2F5007F04D9054B196801F035021043F8
:1009B000704700BF0C200240E0F7FF1F4C200240B0
:1009C00038B504460D4600F065FA114B1868B0F5CD
:1009D000007F04D90F498C4201D90F4B00E00F4B27
:1009E0001A6842F001001860258000F053FA0849A7
:1009F0000B68B3F5007F04D9064A944201D9064832
:100A000000E00648016821F00103036038BD00BF23
:100A1000E0F7FF1FFFFF07085020024010200240B0
:100A200010B5044600F036FA154B1868B0F5007F93
:100A300009D914498C4206D9134B14491A6842F05B
:100A40000200186005E0124B12491A6842F00200D9
:100A500018600C60196841F040021A6000F01AFA40
:100A6000074B1868B0F5007F04D906498C4201D9BC
:100A7000054B00E0064B1A6822F00200186010BD1A
:100A8000E0F7FF1FFFFF07085020024054200240FC
:100A900010200240142002402DE9F0470668456806
:100AA0004FF6E07C002443FA04F717F0010F21D041
:100AB0001FFA84F8B8F1070F04D84FEA8807BFB2CD
:100AC000B14601E06746A9464FF00F0A0AFA07FA55
:100AD00029EA0A0907F1020A02FA0AFA01FA07F7F3
:100AE0004AEA070747EA0907B8F1080F28BF3D4659
:100AF00038BF3E4601340CF1040C102C1FFA8CFC5C
:100B0000D1D106604560BDE8F0870000024B1A684D
:100B100042F080701860704700100240062827D805
:100B2000DFE800F004090E13181D2200114B1868AD
:100B30008101FBD570470F490A681201FBD5704748
:100B40000C4B18688300FBD570470A490A6890036C
:100B5000FBD57047074B18688107FBD570470649DE
:100B60000A689207FBD57047044B18688307FBD5CA
:100B7000704700BF001002402010024024100240C5
:100B800006281FD8DFE800F004060B10151719001F
:100B9000FFF7BCBF0C4B186840F0806011E00A4BB7
:100BA0001A6842F080500CE0074B196841F480301D
:100BB00007E0054B02E0054B00E0054B1A6842F0E8
:100BC00001001860704700BF001002402010024072
:100BD00024100240062822D8DFE800F004090E1392
:100BE000181A1C000E4B196821F0807016E00C4B8F
:100BF000186820F0806011E0094B1A6822F08050DC
:100C00000CE0074B196821F4803007E0044B02E048
:100C1000044B00E0044B1A6822F001001860704792
:100C2000001002402010024024100240024B1A68BB
:100C300022F400201860704700100240032806D0FC
:100C4000052809D1054B1A6822F0040003E0044B83
:100C5000196821F480201860704700BF20100240FE
:100C600000100240034B1A6822F003010843186089
:100C7000704700BF04100240034B1A6822F4701141
:100C800041EA80401860704704100240034B1A6824
:100C900022F4803141EA004018607047041002409D
:100CA000034B1A6822F4404141EA803018607047D3
:100CB00004100240034B1A6822F4605141EAC0203C
:100CC0001860704704100240034B1A6822F4E06178
:100CD00041EA00201860704704100240034B1A6874
:100CE00022F0F00141EA0010186070470410024041
:100CF00008B50420FFF744FF0420FFF70FFF002092
:100D0000FFF7B0FF0020FFF7E9FF0320FFF7C8FF60
:100D10000420FFF7D9FF0020FFF7CCFF0E4B1A6825
:100D200042F480001860012000F090F80A20FFF7DC
:100D3000A3FF0020FFF7AAFFFFF7E8FE0020FFF760
:100D4000EDFE0220FFF78EFF0449054B054A0648D9
:100D50001960026008BD00BF0410024000366E0139
:100D600010000020006CDC021400002001617047BC
:100D7000090401617047806808407047C36821EA30
:100D800003020B4042EA034101617047064A074BE8
:100D900090421B6804BF064B1B6801EB43034900EC
:100DA000B3FBF1F282607047003801401000002070
:100DB00014000020C36808290CBF23F4805343F4B7
:100DC0008053C3607047036923F4405211430161AB
:100DD0007047C36823F4C0621143C1607047C368A1
:100DE00023F00C021143C1607047436923F4407241
:100DF000114341617047C36843F40051C1607047BB
:100E0000C36823F40051C160704738B504460D46ED
:100E100000F00EF820462946BDE8384000F000B842
:100E2000C905CA0D426070474068C105C80D7047CA
:100E300003681B06FCD570470368194301607047BF
:100E4000036823EA0101016070470000034B1A6840
:100E500022F0070108431860704700BF00200240DD
:100E6000064B07491A6842F0800001F18832186089
:100E700043F80C1C43F80C2C704700BF10200240B4
:100E800023016745024B1A6842F0800018607047E2
:100E90001020024008B5FFF77DFDC307FBD408BD55
:100EA00038B50C4689B20546FFF78AFDA81C210C0F
:100EB000BDE83840FFF784BD08B5D0F8D430596A92
:100EC000884708BDFEE770470023154915485A18A2
:100ED000824204D2144C1A595A500433F5E7134B8A
:100EE0009A4203D2002042F8040BF8E7104C114A52
:100EF000944203D254F8041B8847F8E70E4C0F497C
:100F00008C4203D254F8042B9047F8E7FFF7D8FC43
:100F10000B4C0C48844203D254F8043B9847F8E742
:100F20000000002018000020C80F0008C4060020A0
:100F3000C80F0008C80F0008C80F0008C80F000835
:100F4000C80F0008C80F0008024B20F07F4018604F
:100F5000704700BF14E000E0044B00F004001A6882
:100F600022F0040140EA01021A60704710E000E03C
:100F7000024B1A6842F002001860704710E000E06F
:100F8000024B1A6822F002001860704710E000E07F
:100F9000024B1A6842F001001860704710E000E050
:100FA000024B1A6822F001001860704710E000E060
:100FB0000500000012101213121153544D33324623
:100FC000317878782C3F00000A0000000000000013
:100FD00000F000001800000000127A0000127A00F1
:100FE000FFFFFFFFFFFFFFFFFFFFFFFFFFFFFFFF11
:100FF000FFFFFFFFFFFFFFFFFFFFFFFFFFFFFFFF01
:1010000080010020611A00080549000859480008BD
:10101000C94800085948000891480008631A0008A8
:10102000631A0008631A0008631A0008D57D0008D7
:10103000631A0008631A0008631A000881A20008F6
:10104000631A0008631A0008631A0008631A00088C
:10105000631A0008631A00080DA0000839A00008F0
:1010600065A0000891A00008BDA00008717F0008DD
:10107000857F0008997F0008AD7F0008C17F0008C8
:10108000D57F0008E97F0008551F0008631A000893
:10109000631A0008631A0008631A0008E9A0000830
:1010A000631A000829830008631A00083D830008BA
:1010B000631A0008631A0008631A0008631A00081C
:1010C000631A0008631A0008631A0008631A00080C
:1010D000631A00081D880008E98A000831880008A2
:1010E00051A10008631A0008631A0008631A000877
:1010F000631A0008631A0008631A0008631A0008DC
:10110000631A0008631A0008631A0008631A0008CB
:10111000631A0008631A0008631A0008631A0008BB
:10112000631A0008631A0008631A0008631A0008AB
:10113000631A0008631A0008631A0008631A00089B
:10114000631A0008631A0008631A0008631A00088B
:10115000631A0008631A0008631A0008631A00087B
:101160005530000895460008F57900080000000099
:1011700080F0004002E000BF81F0004142001FBF4C
:101180005FEA410392EA030F7FEA226C7FEA236C55
:101190006AD04FEA1262D2EB1363C1BFD21841404A
:1011A00048404140B8BF5B42192B88BF704710F0E0
:1011B000004F40F4000020F07F4018BF404211F083
:1011C000004F41F4000121F07F4118BF494292EAEB
:1011D000030F3FD0A2F1010241FA03FC10EB0C0017
:1011E000C3F1200301FA03F100F0004302D54942A4
:1011F00060EB4000B0F5000F13D3B0F1807F06D351
:1012000040084FEA310102F10102FE2A51D2B1F148
:10121000004F40EBC25008BF20F0010040EA03003D
:101220007047490040EB0000013A28BFB0F5000FBD
:10123000EDD2B0FA80FCACF1080CB2EB0C0200FA73
:101240000CF0AABF00EBC25052421843BCBFD040C2
:101250001843704792F0000F81F4000106BF80F43C
:1012600000000132013BB5E74FEA41037FEA226CFF
:1012700018BF7FEA236C21D092EA030F04D092F0CA
:10128000000F08BF0846704790EA010F1CBF0020FE
:10129000704712F07F4F04D1400028BF40F000405B
:1012A000704712F100723CBF00F50000704700F07B
:1012B000004343F0FE4040F4000070477FEA2262A2
:1012C00016BF08467FEA23630146420206BF5FEA73
:1012D000412390EA010F40F4800070474FF0000373
:1012E00004E000BF10F0004348BF40425FEA000C3A
:1012F00008BF704743F0964301464FF000001CE0E2
:1013000050EA010208BF70474FF000030AE000BF37
:1013100050EA010208BF704711F0004302D5404275
:1013200061EB41015FEA010C02BF844601460020E7
:1013300043F0B64308BFA3F18053A3F50003BCFA02
:101340008CF2083AA3EBC25310DB01FA02FC6344AF
:1013500000FA02FCC2F12002BCF1004F20FA02F2B6
:1013600043EB020008BF20F00100704702F12002A9
:1013700001FA02FCC2F1200250EA4C0021FA02F20A
:1013800043EB020008BF20EADC7070474FF0FF0C0F
:101390001CEAD0521EBF1CEAD15392EA0C0F93EA0A
:1013A0000C0F6FD01A4480EA010C400218BF5FEAAC
:1013B00041211ED04FF0006343EA501043EA51111F
:1013C000A0FB01310CF00040B1F5000F3EBF490019
:1013D00041EAD3715B0040EA010062F17F02FD2A1D
:1013E0001DD8B3F1004F40EBC25008BF20F0010000
:1013F000704790F0000F0CF0004C08BF49024CEA17
:10140000502040EA51207F3AC2BFD2F1FF0340EAA8
:10141000C250704740F400004FF00003013A5DDC19
:1014200012F1190FDCBF00F000407047C2F100025A
:10143000410021FA02F1C2F1200200FA02FC5FEA47
:10144000310040F1000053EA4C0308BF20EADC7091
:10145000704792F0000F00F0004C02BF400010F403
:10146000000F013AF9D040EA0C0093F0000F01F0B0
:10147000004C02BF490011F4000F013BF9D041EAD2
:101480000C018FE70CEAD15392EA0C0F18BF93EAD4
:101490000C0F0AD030F0004C18BF31F0004CD8D1FE
:1014A00080EA010000F00040704790F0000F17BF85
:1014B00090F0004F084691F0000F91F0004F14D0CB
:1014C00092EA0C0F01D142020FD193EA0C0F03D123
:1014D0004B0218BF084608D180EA010000F0004026
:1014E00040F0FE4040F40000704740F0FE4040F401
:1014F000400070474FF0FF0C1CEAD0521EBF1CEAA0
:10150000D15392EA0C0F93EA0C0F69D0A2EB0302BD
:1015100080EA010C49024FEA402037D04FF0805357
:1015200043EA111143EA10130CF000408B4238BF1C
:101530005B0042F17D024FF4000C8B4224BF5B1A2A
:1015400040EA0C00B3EB510F24BFA3EB510340EA78
:101550005C00B3EB910F24BFA3EB910340EA9C0026
:10156000B3EBD10F24BFA3EBD10340EADC001B0196
:1015700018BF5FEA1C1CE0D1FD2A3FF650AF8B423A
:1015800040EBC25008BF20F0010070470CF0004C47
:101590004CEA50207F32C2BFD2F1FF0340EAC25072
:1015A000704740F400004FF00003013A37E792F033
:1015B000000F00F0004C02BF400010F4000F013A91
:1015C000F9D040EA0C0093F0000F01F0004C02BF8C
:1015D000490011F4000F013BF9D041EA0C0195E7F5
:1015E0000CEAD15392EA0C0F08D142027FF47DAF8E
:1015F00093EA0C0F7FF470AF084676E793EA0C0F7E
:1016000004D14B023FF44CAF08466EE730F0004C7B
:1016100018BF31F0004CCAD130F000427FF45CAF0B
:1016200031F000437FF43CAF5FE700BF4FF0FF3C79
:1016300006E000BF4FF0010C02E000BF4FF0010CCC
:101640004DF804CD4FEA40024FEA41037FEA226C95
:1016500018BF7FEA236C11D001B052EA530C18BFB7
:1016600090EA010F58BFB2EB030088BFC81738BF1C
:101670006FEAE17018BF40F0010070477FEA226C0A
:1016800002D15FEA402C05D17FEA236CE4D15FEA06
:10169000412CE1D05DF8040B704700BF844608463A
:1016A0006146FFE70FB5FFF7C9FF002848BF10F1FB
:1016B000000F0FBD4DF808EDFFF7F4FF0CBF012040
:1016C00000205DF808FB00BF4DF808EDFFF7EAFFCA
:1016D00034BF012000205DF808FB00BF4DF808ED85
:1016E000FFF7E0FF94BF012000205DF808FB00BF7A
:1016F0004DF808EDFFF7D2FF94BF012000205DF800
:1017000008FB00BF4DF808EDFFF7C8FF34BF01200C
:1017100000205DF808FB00BF42000ED2B2F1FE4F80
:101720000BD34FF09E03B3EB126209D44FEA0023B0
:1017300043F0004323FA02F070474FF00000704777
:1017400012F1610F01D1420202D14FF0FF30704718
:101750004FF00000704700BF53B94AB9002908BFD5
:1017600000281CBF4FF0FF314FF0FF3000F076B97A
:10177000ADF1080C6DE904CE00F006F8DDF804E0E8
:10178000DDE9022304B070472DE9F047089E0D46BD
:1017900004468846002B4DD18A42944668D9B2FA55
:1017A00082F252B101FA02F3C2F1200120FA01F1F2
:1017B0000CFA02FC41EA030894404FEA1C41B8FBD2
:1017C000F1F71FFA8CFE01FB178807FB0EF0230CC4
:1017D00043EA084398420AD91CEB030307F1FF359B
:1017E00080F01E81984240F21B81023F63441B1A25
:1017F000B3FBF1F001FB103300FB0EFEA4B244EA90
:101800000344A6450AD91CEB040400F1FF3380F021
:101810000981A64540F20681644402380021A4EB08
:101820000E0440EA07401EB10023D440C6E900433D
:10183000BDE8F0878B4208D9002E00F0EE80002131
:10184000C6E900050846BDE8F087B3FA83F1002930
:101850004AD1AB4202D3824200F2FC80841A65EB8B
:10186000030301209846002EE2D0C6E90048DFE7D6
:1018700002B9FFDEB2FA82F2002A40F09180A1EBB9
:101880000C0001214FEA1C471FFA8CFEB0FBF7F356
:1018900007FB1300250C45EA00450EFB03F0A842A8
:1018A00008D91CEB050503F1FF3802D2A84200F26B
:1018B000CE8043462D1AB5FBF7F007FB10550EFB03
:1018C00000FEA4B244EA0544A64508D91CEB040472
:1018D00000F1FF3502D2A64500F2B6802846A4EBFF
:1018E0000E0440EA03409EE7C1F120078B4022FA34
:1018F00007FC4CEA030C25FA07FA4FEA1C49BAFB2D
:10190000F9F820FA07F309FB18AA8D401FFA8CFE9C
:101910001D4300FA01F308FB0EF02C0C44EA0A44C4
:10192000A04202FA01F20BD91CEB040408F1FF3AC1
:1019300080F08880A04240F28580A8F102086444CB
:10194000241AB4FBF9F009FB104400FB0EFEADB203
:1019500045EA0444A64508D91CEB040400F1FF3510
:101960006CD2A6456AD90238644440EA0840A0FB1C
:101970000295A4EB0E04AC42C846AE4656D353D0F3
:10198000002E69D0B3EB080264EB0E0422FA01F3D7
:1019900004FA07F71F43CC40C6E90074002147E76B
:1019A0000CFA02FCC2F1200125FA01F34FEA1C47B0
:1019B00020FA01F195400D43B3FBF7F107FB11331A
:1019C0001FFA8CFE280C40EA034001FB0EF3834211
:1019D00004FA02F408D91CEB000001F1FF382FD201
:1019E00083422DD902396044C01AB0FBF7F307FBDC
:1019F0001300ADB245EA004503FB0EF0A84208D93A
:101A00001CEB050503F1FF3816D2A84214D9023B9E
:101A10006544281A43EA014138E73146304607E772
:101A20002F46E4E61846F9E64B45A9D2B9EB020881
:101A300065EB0C0E0138A3E74346EAE7284694E736
:101A40004146D1E7D0467BE76444023847E7023B92
:101A500065442FE7084606E73146E9E6704700BFD0
:101A600002E000F000F8FEE772B6264880F308882E
:101A7000254880F30988254825490860022080F31D
:101A80001488BFF36F8F08F087F908F04BFA4FF016
:101A9000553020491B4A91423CBF41F8040BFAE7FC
:101AA0001D49194A91423CBF41F8040BFAE71B4912
:101AB0001B4A1C4B9A423EBF51F8040B42F8040BE0
:101AC000F8E700201849194A91423CBF41F8040B3D
:101AD000FAE708F065F908F027FA154C154DAC4205
:101AE00003DA54F8041B8847F9E701F0A3FA124C13
:101AF000124DAC4203DA54F8041B8847F9E708F0AA
:101B00004DB9000080010020D00300200010000823
:101B100008ED00E0000000208001002048AE000831
:101B2000D003002050060020500600203C14002066
:101B3000601100086C1100086C1100086C1100089D
:101B40002DE9F04FC1F80CD0C3689D46BDE8F08F79
:101B5000002383F311882846A047002007F086FE63
:101B6000FEE707F06BFD00DFFEE7000008B5C0F3FD
:101B7000C7537F3B162B014615DC002B02460BDBBF
:101B80000B481841014205D04FF48001194111441E
:101B900021EA0001084608BD013300F00041F9D1F7
:101BA00041F07E51F6E7802BF4D1FFF7E7FA08BD4C
:101BB000FFFF7F0010B5054C34B113460A460146BD
:101BC0000220AFF3008010BD204610BD00000000D1
:101BD000844641EA000313F0030349D1403A23D37A
:101BE0000B6803604B6843608B688360CB68C3609D
:101BF0000B6903614B6943618B698361CB69C36185
:101C00000B6A03624B6A43628B6A8362CB6AC3626C
:101C10000B6B03634B6B43638B6B8363CB6BC36354
:101C200040304031403ADBD230320BD30B68036096
:101C30004B6843608B688360CB68C36010301031A1
:101C4000103AF3D20C3205D351F8043B40F8043B70
:101C5000043AF9D2043208D0D2071CBF11F8013B74
:101C600000F8013B01D30B8803806046704700BF3A
:101C7000082A13D38B07B1D010F00303AED0C3F101
:101C80000403D21ADB071CBF11F8013B00F8013B2B
:101C9000A4D331F8023B20F8023B9FE7043AD9D3A2
:101CA000013A11F8013B00F8013BF9D20B780370BF
:101CB0004B7843708B78837060467047830730B5EC
:101CC00048D0541E002A3FD00346CAB201E0013C6E
:101CD0003AD303F8012B9D07F9D1032C2DD9CDB2AE
:101CE00045EA05250F2C45EA054536D9A4F1100231
:101CF00022F00F0C03F1200EE6444FEA121C03F110
:101D0000100242E9045542E9025510327245F8D1F9
:101D10000CF1010214F00C0F03EB021204F00F0C93
:101D200013D0ACF1040323F003030433134442F84B
:101D3000045B9342FBD10CF003042CB1CAB21C44E7
:101D400003F8012B9C42FBD130BD64461346002CA6
:101D5000F4D1F9E703461446BFE71A46A446E0E784
:101D600020F0030110F00300C0F1000051F8043B23
:101D700000F1040C4FEACC0C6FF000021CBF22FAF9
:101D80000CF213434FF0010C4CEA0C2C4CEA0C4CB7
:101D9000A3EB0C0222EA030212EACC1204BF51F8B0
:101DA000043B0430F4D0C2F1000102EA0102B2FAAD
:101DB00082F2C2F11F0200EBD200704730B540EA58
:101DC0000104A30722D1032A20D90B4684461946D1
:101DD00053F8045BA5F1013424EA050414F0803FB4
:101DE00015D1043A032A19464CF8045BEFD801F1E7
:101DF000FF3E52B163461EF8011F541E03F8011B3B
:101E000041B122469C46002AF4D130BD844601F1FE
:101E1000FF3EEEE76244002CF7D003F8011B93422B
:101E2000FBD130BD71B1034600EB010C01E063450D
:101E300006D01A46117801330029F8D1101A7047DC
:101E4000181A704708467047134B1A68920710D546
:101E50001A68124922F0120230B41A600A784AB99C
:101E600004200122DD6C0E4C258058630A7030BCC2
:101E7000704770470B4ADC6C0B4812780480002ACC
:101E8000F5D030BC052200205A639A6842F0010266
:101E90009A600870704700BF00240140D203002000
:101EA000D4030020D3030020D003002030B4092045
:101EB00000250124104B11499A6942F400729A617D
:101EC0009B694D608C6088608B681B07FCD4052380
:101ED0000A4A8B60936813F00403FBD14FF4D834A3
:101EE0001461D36213635368062130BC43F02003AE
:101EF0001220536006F002BE001002400024014090
:101F00000122014B1A707047D30300200022014BBD
:101F10001A707047D3030020302383F31188064AD8
:101F2000136813F0100305D1916841F0010191602D
:101F300083F31188704700BF00240140014B1888CB
:101F4000704700BFD0030020014B1888704700BFC6
:101F5000D403002008B5302383F31188FFF774FF02
:101F6000002383F31188BDE8084005F061BF00BF7E
:101F700070470000704700004FF480507047000029
:101F80004FF00E0CF0B43025826884695369016902
:101F900023F040035361D4E9007318680C4E20F01D
:101FA0000F001860607B41F082010CFA00F078604D
:101FB000101DDE605D60986019601968F0BC41F02A
:101FC00001011960536943F040035361704700BF3A
:101FD0005006002083685A6922F080025A611A680C
:101FE0005A685B68704700BF70B52D4A2D4BC0F82A
:101FF00098201B68044603B92B4BC4F89C302B4A2D
:102000002B4B1168DA682B4BC4F8A010C4F874226B
:102010009A68520405D59B681B045CBF012384F8B1
:10202000573294F85832002B34D006224FF48041B6
:102030002148204D06F024F8FFF738FF204601F034
:102040009BF906224FF40051284606F019F84FF488
:1020500000531A4E2B6133681949D86A0268526ED0
:102060008A4219D14FF48050A4F8A400DD6A2B688D
:1020700028465B68984718B195F84E30022B00D07F
:1020800070BD3368586A03681B6D9847012384F854
:10209000C43070BD0722C9E79047336880B2E3E7D8
:1020A00004000A00002004E01064032000ED00E0BA
:1020B0003012002000100140000C0140F008002008
:1020C000791F000870B5D0F81C31244EC0F8FC30E0
:1020D000D0F82C313268C0F80C31D0F820310546E8
:1020E000C0F80031D0F824310024C0F80431D0F811
:1020F0002831C0F80831D0F83031C0F81031D0F8AC
:102100003431C0F81431D0F83831C0F81831506A81
:1021100003681B6B98470DE0B5F88820E24012F089
:1021200001020ED13368586A036801345B6998472D
:10213000082C0BD095F8C43005EB440CE1B2002B11
:10214000EAD03368BCF8FC20586AEDE73368BDE894
:102150007040586A03685B6B184700BFF0080020A6
:1021600090F8572210B5D0F8803204469AB990F80A
:102170003812D0F85C22002914BF7D214FF4FA7187
:102180009A1A8A4206D91B49CA6882F48042CA60F8
:10219000C0F85C3210BDB0F88A204AB994F85832C1
:1021A000144A83F001019B0743EA8133136110BD98
:1021B00040F6B832D0F84C125B1A9342EED801F0D8
:1021C0005BFAB4F88A300C4AC3EB0343A2FB032347
:1021D000B0EB531F37BF94F8583294F8581283F07D
:1021E000010219462ABF8B07930781F00101014ABA
:1021F000DAE700BF000C01401F85EB5110B5044623
:10220000FFF78AFEB4F86030DB0707D50023A4F897
:10221000B230FFF793FEA4F8B00010BDFFF794FEB4
:10222000A4F8B200FFF78AFEA4F8B00010BD00BF0A
:1022300038B582780446042A08D8042A04D8DFE88E
:1022400002F0444A03503E00002038BD322AFBD140
:102250001A2094F8303004F1600C257894F803E0EB
:1022600005F03F010EEB010560F30503854284F89C
:102270003030E9DCA0EB0E0303F03F058D4228BFB0
:102280000D46162DA8BF16250CEB4E0184F8322002
:1022900084F833E06A0004F1340084F83050FFF72A
:1022A00097FC0023A91C84F83130490004F1300068
:1022B00001F0FAF9034684F83130012038BD1320CB
:1022C00094F8303004F1D00CC7E7062094F8303091
:1022D00004F1980CC1E7162094F8303004F1A40CF6
:1022E000BBE7102094F8303004F1FC0CB5E700BFD8
:1022F0000122D0F8803280F854220B44C0F85032CA
:10230000704700BF70B583780446C82B82B000F0D8
:1023100097800DD8362B00F0A480372B4FD1027850
:1023200002F03F03102B00F0CF80002002B070BD00
:10233000C92B00F0BC80CA2B34D1027802F03F03D5
:10234000062BF2D1C37802F03F0200F50B70211D7D
:10235000520000EB4300FFF73BFCB4F82C1231B104
:10236000BE4B1B68586A0368D3F89030984794F8BE
:102370002E12B9B1B94ABA4B1268506A0268D2F843
:10238000B0509D420ED094F835C294F83432BCF16E
:10239000000618BF01260093D4F8303294F82F229B
:1023A0000196A84700232046042140F8303F01F061
:1023B0007BF90346012084F8313002B070BD322B26
:1023C000F0D1C3781B2BEDD801A252F823F000BF47
:1023D0000B250008D324000889250008592500088A
:1023E0004526000877250008A5230008A523000836
:1023F000A5230008A52300080F260008A523000830
:10240000F3250008A5230008D3250008A52300080C
:10241000A5230008A5230008A5230008B925000866
:10242000A725000897250008DB2400082F260008B0
:10243000A5230008ED240008A52300088125000835
:102440000278C37802F03F0299185A293FF76DAF1E
:1024500000F5B9705200211D00EB4300FFF7B8FBF7
:10246000A0E790F8380200289CD1237803F03F03BE
:10247000102BA2D84FF6FF7EA3F1100CA21C9BB22A
:102480001FFA8CFC581E43B132F8021F83B271450B
:1024900018BFA2F818116345F4D1D4F88032022194
:1024A000D4F87402C4F8443206F020FF7AE70378C7
:1024B00003F03F03012B7FF438AFC37800EB4303F5
:1024C0009B88A0F826326DE7011D5A0000F59E702A
:1024D000C4E78388A0F8623064E790F88832002B64
:1024E0007FF460AF012380F888325BE75B4B818823
:1024F000C2881B68A0F88E10A0F89020586AD2B24B
:102500000368D3F8A03098474CE78388DA07A0F82F
:10251000603040F19C804FF47A72B0F8865023F01E
:102520000E03A4F86030B2FBF5F3032B38BF03238E
:102530004FF080704B49C4F840324860FFF7E6FC2A
:102540001022494B5A61B4F860305B067FF52AAF20
:10255000012384F8573225E78388182B00F2868000
:10256000B0F88C20012A00F08F800122A4F8663098
:1025700084F8552216E7D0E90123C0E9592311E771
:102580008388A0F892300DE701238288A0F86420A8
:1025900084F8563206E78288D0F88032A0F88A2084
:1025A000C0F84C32FEE62D4A83881268A0F88830C5
:1025B000526AC2F8EC30F5E64FF47A738288B3FBC6
:1025C000F2F3032B38BF0323A0F88620C0F8403273
:1025D000E8E645F20B6382889A427FF4A6AE1F4B71
:1025E0001B68586A0368DB6C9847002384F8C43082
:1025F000D8E645F20B6382889A427FF496AE174B79
:102600001B68586A03681B6D98470123EEE790F832
:10261000C40000287FF489AE43F64613A2889A428C
:102620007FF4CBAE64212046FFF762FEBAE6037862
:1026300003F03F03022B7FF4B5AE456801F068FB61
:102640000565AFE682880123A0F86820A0E7FFF7C0
:1026500057FC1022044B1A6175E700BFF0080020F8
:10266000751F000800000140000C0140B3F5C87F51
:102670007FF67BAFB0F88C20012A7FF476AF4FF461
:10268000C8721346A28070E71922FAE7F8B5474EE0
:10269000D6F8B8300133C6F8B830017801F0C0037D
:1026A000802B3DD0002201F03F01023147780446E3
:1026B0004D004270ABB1294600F0F6FFB8421BD185
:1026C000237803F03F02162A16D89B0940D0012B2D
:1026D00031D12046FFF716FE002852D08023237008
:1026E000F8BD042100F0E0FF8742E9D029462046EA
:1026F00000F0DAFFB842E3D040232046042140F83E
:10270000303F00F0D1FF84F83100D6F8B42096F8BD
:10271000C73001320133C6F8B42086F8C730F8BD9F
:10272000D6F8B42096F8C83001320133C6F8B42088
:1027300086F8C830F8BD8021D6F8B42096F8C830A5
:1027400001320133C6F8B42086F8C8302170F8BDD4
:102750002046FFF76DFD0028C0D1802320460421CC
:1027600040F8303F00F0A0FF84F83100D6F8B420E4
:1027700096F8C93001320133C6F8B42086F8C93062
:10278000ACE780232046042140F8303F00F08CFF66
:1027900084F83100D6F8B42096F8CA3001320133FB
:1027A000C6F8B42086F8CA3098E700BF500600206B
:1027B00070B53023044683F311880E2582682C4EB1
:1027C000536923F04003536183695A68136823F007
:1027D0000F03136082693046537B126805FA03F3D6
:1027E0005360FFF753FF2046FFF7CAFBA2680021A2
:1027F000536923F080035361E3695A68136823F037
:102800000F031360E3691A685B7B9D405560E369C1
:1028100006F130025B68DA6096F83030E26903F066
:102820003F03526802335B005360E269A368526859
:1028300004339360E2696369526843F09203136062
:10284000A268136823F040031360A268D36843F0C2
:102850004003D360E3695A68136843F001031360CF
:10286000A268536943F08003536181F3118870BDFE
:102870005006002040F20F1170B5826882B01368D4
:1028800004469BB2ADF80630D568BDF80630194253
:102890001FD1BDF80630580601D5690607D4BDF82A
:1028A0000630DA0601D5EB0635D402B070BDA1685A
:1028B00025F040030A6822F040020A60A268D36053
:1028C000A3685A6922F080025A611A685A685B68E4
:1028D000E5E75368302383F311886FF480768168CD
:1028E000114B0E60816845F00102CA60D3F8B42034
:1028F0000132C3F8B42093F8CB20013283F8CB2007
:102900008268536923F040035361FFF739FB0023CA
:1029100083F31188BDE72046A3685B6802B0BDE879
:102920007040FFF745BF00BF5006002070B5064657
:1029300000200A4C0A4D82B0042254F8043B0DEBEF
:102940000201019300F0D2FEAC42F5D1030CA6F8CF
:102950007600A6F8783002B070BD00BF0010000805
:102960000000010838B5144C144D2368186A036838
:102970001B6898472368124C586A03681B6898477D
:102980002846FFF731FB2846FFF7D0FF20460D49C8
:1029900006F074FB2A463021204606F07DFB3023EA
:1029A00083F31188A2680021536923F080035361E7
:1029B00081F3118838BD00BFF008002050060020C8
:1029C000E8110020D8030020D0F88022D0F860322F
:1029D000D31A632B37D93C4B10B5C0F860229B68E3
:1029E000044613F020031BD190F8C420C0F86432D1
:1029F000002A4FF6FF7308BF4FF4AA4394F86822E9
:102A0000013202F00F0284F86822D34003F0010380
:102A10005A032D4982F4005242EA43730B6110BD00
:102A200090F8C410B0F8623071B9DB042ED54FF4C1
:102A3000AA4390F86822C0F86412013202F00F0233
:102A400084F86822E1E7704713F400630CD000219A
:102A500090F868224FF6FF73013202F00F0280F8FF
:102A60006822C0F86412D0E7D0F8642201320A2A42
:102A7000C0F864221BD1154A84F8C4301368586A20
:102A80000368DB6C984794F8C420B1E7D0F864324F
:102A900001330A2BC0F8643211D101220B4B84F8A8
:102AA000C4201B68586A03681B6D9847EBE74FF614
:102AB000FF7394F86822013202F00F02C0E74FF46E
:102AC000AA4390F86822F6E7000C0140F0080020C5
:102AD000F0B590F8263290F8282204469A4283B046
:102AE00024D00025734F0FE01B6998473B6806F11F
:102AF0006501D86901220368C9B25B68013598474E
:102B0000082D94F826320FD0EB4013F0010F3B68EC
:102B1000EEB2586A31460368E6D1DB680135984762
:102B2000082D94F82632EFD184F82832B4F8923088
:102B3000B4F894209A4225D000255E4F01E0B4F805
:102B40009230EB4013F0010F3B68E9B2586A05F18F
:102B50000105036814BFDB681B699847082DEED197
:102B60000022B4F892103B68A4F894100192586ABD
:102B700001A90368D3F880309847019B84F8C60008
:102B800084F8C530B4F86411B4F86C3131EA030349
:102B900056D0B4F86651042D62D029D8023D012DDB
:102BA0005BD8444D01222B68586A03685B689847DC
:102BB0002B6894F86621586AB4F864110368DB6FD7
:102BC0009847B4F86C31B4F864112A680B43A4F840
:102BD0006C3100230193506A01A90368D3F8803057
:102BE0009847019B84F8C60084F8C53003B0F0BD57
:102BF0006B1F022B31D82F4EEAB23368586A036834
:102C0000DB6F984732682C49D06A03685B6E8B4251
:102C10004CD14FF48053B4F86C11B4F86401A4F8AB
:102C2000A4300143B4F86E31B4F86801A4F86C1113
:102C3000B4F86A110343A4F86E31A4F87011C8E720
:102C4000B4F86831B4F86E219343A2D1B4F870217E
:102C5000B4F86A319A429CD1C8E7164B1A68B8E7B3
:102C6000144E4FF4FA623368586A03685B689847F9
:102C70004FF47A7033682A46596AC8804FF4FA6074
:102C80000881586AB4F864110368DB6F98473368A9
:102C9000B4F86820586AB4F8641103685B68984710
:102CA000B4F86C31B4F8641132688FE79847326831
:102CB00083B2B0E7F0080020791F000890F8C42024
:102CC00000F58E7300F59E7152B1B3F820C0A3F8E1
:102CD00000C002338B42F7D190F8243213B9704709
:102CE0001A80F6E700F07ABA70B54E4D04462B68AC
:102CF000186A01F021FA2B68186A03689B689847E4
:102D0000002861D1D4F88032D4F8F8209B1AC82B5F
:102D100005D994F8D13060F3410384F8D13094F8A8
:102D200056325BB12B68B4F86820586AB4F8641066
:102D300003685B689847002384F8563294F855324C
:102D400053B12B68B4F86610586A0368D3F88C3016
:102D50009847002384F8553294F8243294F83822A6
:102D60003BB394F92032002B22DD94F8D11011F0FE
:102D7000020154D0102B1BDC40F2D561013B5BB249
:102D800004EB4303B3F8D400884294BF002301232B
:102D9000934284F8383216D088420DD92046FFF786
:102DA0008DFFD4F874020221BDE8704006F0B4BA79
:102DB000002384F8383232B1D4F874020221BDE81D
:102DC000704006F0A9BA70BD00F0A2FF2B6806465D
:102DD000186A0368DB68984794F8D13084F8D0000B
:102DE00043F0020384F8D1302B681022186A04F1F2
:102DF000D40103685B699847D4F880323046C4F840
:102E0000F830337884F8D23000F0B4FDA4F8F40040
:102E100094F8D13096F83C2062F300037DE784F803
:102E20003812C8E7F008002070B5002405460C4EA3
:102E300095F8263204F16501E34013F0010FC9B2A1
:102E400009D0336895F82722D869E240036802F078
:102E500001021B6998470134082CE9D170BD00BFFD
:102E6000F008002070B5012104460E2006F074FA27
:102E7000694AD2F8BC300133C2F8BC30002855D0C2
:102E8000D2F8C03005460133C2F8C03001F046FD2B
:102E9000D4F8843294F854220133C4E9A003002A00
:102EA00040F0A280AA0757D594F8C430003B18BF61
:102EB0000123204684F87832FFF704F9D4F88052D1
:102EC00001F02AFDB4F86030D4F88022DB07064612
:102ED000C4F8AC200ED594F8C4305BB1D4E98F327D
:102EE000EB1A934206D31021C4F83C5204F1FC00C3
:102EF00000F02CFAD4F84432EB1AC82B33D84FF434
:102F00000042464BC4F890521A61D4F87C32EB1A56
:102F1000322B36D8D4F87032F31AB3F57A7F3BD21D
:102F2000D4F86C32EB1A0A2B46D870BD01F0F6FCCF
:102F3000D4F8843294F854220133C4E9A0035AB17E
:102F4000D4F85032834207D2354B01211B68986A6E
:102F500003689B6B9847FEE794F8C43094F8782296
:102F60009A42A3D1AAE7D4F89032EB1A0A2B45D89B
:102F70004FF00042294B1A61D4F87C32EB1A322B05
:102F8000C8D92046C4F87C52FFF738F9D4F870321B
:102F9000F31AB3F57A7FC3D32046C4F87062FFF703
:102FA000DFF82046FFF7A0FE204600F00DFAD4F827
:102FB0006C32EB1A0A2BB8D92046C4F86C52FFF7D2
:102FC00003FD2046FFF784FD154B164A1B68586A1F
:102FD00003689B6E93421CD194F8883253B9204603
:102FE000BDE87040FFF720BFD4F8503298427FF61A
:102FF00059AFA9E7204600F0AFFAF0E72046FFF707
:103000005DFE0221D4F8740206F086F9C4F89052ED
:10301000AEE79847E0E700BF50060020000C0140F3
:10302000F0080020711F00080148FFF71BBF00BF18
:103030005006002084460A46044910B50868044B2F
:1030400001680C686146A047002010BDF008002010
:10305000E4080020C82208B5114B3221A3F86820EB
:1030600042F21072A3F86C204822A3F886204FF693
:10307000FF72A3F88A200122A3F86610A3F88C201F
:10308000A3F8601183F8582201F000FB054B064AB3
:10309000186006490648BDE8084000F0D1BA00BFF4
:1030A00050060020F008002029300008652900089B
:1030B000E408002030B5431800EB410193F80A52B0
:1030C000B1F8023293420FD2B1F8FA41A3420BD0C9
:1030D00041F29410D21A5043E31A90FBF3F000B27D
:1030E0000DB1404200B230BD934209D9B1F8F2119E
:1030F0008B4205D0D01A41F294125B1A5043ECE790
:103100000020EDE710B5431800EB410093F80A42A8
:10311000B0F8FA3193420FD3B0F8F21191420ED8C1
:10312000501A4FF47A7250435B1A90FBF3F000B2DE
:103130000CB1404200B210BD4FF47A70F8E701487C
:10314000F6E700BF18FCFFFF70B505466B1893F853
:10315000E2310C4610460BB1504200B20E4E41F225
:103160009412314600F07EFA64002C44021EB4F83A
:10317000B2310ADDB4F89201C01A504341F2941200
:1031800090FBF2F0184480B270BDB4F87201C01A1E
:10319000504390FBF6F0F5E76CEEFFFF70B5044688
:1031A000631893F8E2610D46104600214FF47A72DD
:1031B00000F058FA16B1C0F57A7000B204EB45047D
:1031C000B4F87221B4F892319B1A58434FF47A73D1
:1031D00090FBF3F0104480B270BD00002DE9F34184
:1031E000002590F8D13004469A07CDE9005524D443
:1031F00000264FF47A7704F58E7504F5E978B4F873
:103200002232F1B2F340DB075DD418F806301A2BF6
:1032100042D8002B4FD0013B192B4CD8DFE803F0EC
:10322000536A6A574B4B4B4B4B4B4B4B4B4B4B7077
:1032300076575B5B5E4B4B57575E00F21A2616F8CB
:10324000013BE9B2013BDBB20F2B0ED804EB430389
:10325000022DB3F8D4200CD194F821324BB9294671
:103260002046FFF74FFFADF804000135042DE6D1ED
:10327000BEE72046FFF71EFF2DF81500F5E7112BDE
:1032800019D8DFE803F02E18182E2E18183D434FDA
:103290005218181818183D43422B08D8322B0AD957
:1032A000333BDBB204EB4303B3F8D4300DE0463BD1
:1032B000DAB2112AE3D90136102E05F102059ED1AA
:1032C00002B0BDE8F08135F8483C2B80F3E7BDF94A
:1032D000002020460BE0BDF90220FAE7BDF90620E8
:1032E000F7E794F821322046BDF9042023B1FFF717
:1032F0002BFF03E000222046FFF750FF2880DAE78B
:10330000BDF90220BDF90030D21A04E0BDF9002059
:10331000BDF902301A44B4F81E325A4392FBF7F258
:1033200012B2D6E7BDF90620F2E7BDF90220BDF9D9
:103330000630E9E738B50446256801F0EFFA854222
:10334000FAD001F0EBFA206038BD000000B5084B60
:1033500089B01B7843B901AA00F0FAFD054819228B
:10336000036801A95B68984709B05DF804FB00BFDA
:10337000F40800204411002010B50E4C0E490F48EF
:1033800005F036FE0E49204605F032FE20230222CB
:103390000C49201D05F08AFF00F0BAFC438843F079
:1033A0000403438000F0B4FC438843F4806343800B
:1033B00010BD00BF44110020F8A20008A01000209A
:1033C0000CA30008F80800202DE9F04F87B0019009
:1033D00001F0A4FA054600F09BFC2946804600F067
:1033E0006DFA544F90B300233B705348102203688A
:1033F00002A91C6A0023A047044650B34F4B1E7815
:103400003EBB102828BF10244FF0010ADFF830918E
:10341000D9F800302344C9F8003006F118036B4492
:103420004FF4E132404613F8101C00F067FB40B146
:1034300029464046C9F8105000F040FA08B987F80C
:1034400000A00136F6B2A642E7D302E03B78012B9A
:10345000CBD93C7814F0FD0447D13A4810220368D8
:1034600002A91E6A2346B047064600283DD0DFF871
:10347000CC90DFF8CCA099F8002052B3102E28BFD2
:1034800010264FF0020BDAF804203244CAF8042068
:1034900099F800202C4B002A08BF1A4604F11803A3
:1034A0000DEB030118BF4FF4E132404611F8101C38
:1034B00000F024FB40B129464046CAF8105000F005
:1034C000FDF908B987F800B00134E4B2B442DFD3A3
:1034D0000BE01E4805F0FEFE8306CFD5DAF8082083
:1034E000CAF80C000132CAF808203B78FBB9144A2C
:1034F0001369EB1AB3F5FA6F19D9019B0F4CB3F8A6
:1035000060102378012B01D0C90710D483F0010388
:103510000C481561237005F079FD21780C4A0D4B9C
:10352000084800290CBF1146194605F061FD07B097
:10353000BDE8F08F0C090020A0100020F408002046
:103540001009002044110020A0860100F808002086
:103550000CA30008F8A200082DE9F34190F8882296
:10356000D0F88032013A04460193032A5DD8DFE89F
:1035700002F002212F512E4D062228464FF4005111
:1035800004F07EFD4FF00053A5F50065C5F8103836
:1035900006224FF48061284604F072FD4FF48063E8
:1035A0002B61022384F88832019BC4F88C3202B06C
:1035B000BDE8F081D0F88C229A1AB2F5FA7FF6D3E2
:1035C0004FF400511A4A1161032280F88822ECE777
:1035D000D0F88C229B1A472BE9D901A8FFF7AAFE45
:1035E00009254FF080684FF48067124E01A8FFF75D
:1035F000A1FE013DC6F8108001A8FFF79BFE15F063
:10360000FF053761F2D1019BC4F88C32042384F8A2
:103610008832CCE7D0F88C229B1A312BC7D90222F2
:103620004FF48061034804F02BFD0023EFE700BF57
:10363000001001400008014043681847836818479C
:1036400010B5024C8260C0E9004110BD28A30008FB
:1036500003468B42084603D3934228BF13461846BD
:103660007047000003468B42084603DB9342A8BF25
:10367000134618467047000049F26900084A13686B
:1036800099B21B0C00FB013344F250611360054BEF
:10369000186882B2000C01FB0200186080B270470B
:1036A000040400200004002003460144002010B55B
:1036B000044A8B4204D013F8014B6040105CF8E7D9
:1036C00010BD00BF30A30008082341F2210280EAA8
:1036D000012010F4004F03F1FF334FEA400018BF00
:1036E00050409BB280B2002BF3D1704730B5094DEA
:1036F0000A4491420DD011F8013B5840082340F391
:103700000004013B2C4013F0FF0384EA5000F6D183
:10371000EFE730BD2083B8ED00230144884206D096
:1037200010F8012B134403EB1323DBB2F6E7C3F1CC
:10373000FF00C0B270470000830883EA5003434093
:1037400083EAD00383EA101383EA501383EA9013C9
:1037500003F0010383EAD01070470000F8B5044677
:10376000002700F1080500F1340655F8040B20B1DC
:1037700003685B68984745F8047CB542F5D120465C
:10378000F8BD00000A2807D8DFE800F008060806A0
:10379000080606060606080000207047012070474C
:1037A00038B50446642001F0D1F8054620B1214621
:1037B00001F09EFD3B4B2B60A560842001F0C6F814
:1037C000054610B1214601F0FDFFE560802001F0C3
:1037D000BDF8054620B101222146334B02F0F2F834
:1037E0002561AC2001F0B2F8054658B1214601F040
:1037F0007FFD28462D4B00224FF4E13140F8903BED
:1038000002F032FDA561A82001F0A0F8054668B1DC
:10381000214601F06DFD0022254B4FF4E1312B6074
:1038200085F83E2005F18C0002F01EFDE561B82010
:1038300001F08CF80546A8B1214601F059FD284653
:103840001C4B2822002140F8683BFEF737FA002283
:103850004FF4E131C5E92422A5F8982005F19C0038
:1038600002F002FD2562A42001F070F8054668B15F
:10387000214601F03DFD00220F4B4FF4E1312B605A
:1038800085F83E2005F1880002F0EEFCE562942008
:1038900001F05CF8054618B10122214600F060FAFB
:1038A000256338BDBCA70008A08601003CA700081E
:1038B0005CA800080CA8000834A8000803780B2BAB
:1038C00006D1806B081AC72894BF002001207047DA
:1038D0000020704770B503780E460B2B0ED1836B1A
:1038E00063B900F1080500F1340455F8040B18B170
:1038F000036831461B699847A542F6D170BD0000A8
:1039000070B50C4605460B6801795B6C20469847FC
:10391000236820469B6C697998472368AA792046DA
:10392000D3E90D636AB1984740F00101204689B29E
:10393000B0478023204629681A46BDE8704001F050
:10394000ABB8984720F00101F0E7000003780B2B9B
:1039500004D0023350F8230001F0E4BC002070478B
:1039600003780B2B04D0023350F8230001F0DEBCA7
:103970007047000003780B2B1DBF023350F8233033
:10398000B3F93A004FF0FF307047000003780B2B7B
:103990001DBF023350F82330B3F93C004FF0FF3025
:1039A0007047000038B500F1080500F1340455F8FF
:1039B000040B10B103685B699847A542F7D138BD85
:1039C0004B1C01219940036D41F00101194214BFC4
:1039D00001200020704700002DE9F04F85B004461B
:1039E0008A46019200F09AFF014606462046FFF7FC
:1039F00065FF217802460B2905D02046FFF7E0FF3E
:103A000008B90B23237023780B2B1BD0217919B114
:103A1000C2B905B0BDE8F08FA2B9023354F8230053
:103A200051460368019A9B6898472378023354F8FB
:103A3000230001F06DFC0028EBD00123A66384F87D
:103A40003430E6E704F10809C846002563885FFAC8
:103A500085FBEB40DB0732D4D8F800707FB35946C2
:103A60002046FFF7ADFF50B33B6951460293BB6858
:103A7000019A03933B6838469B689847D8F8002022
:103A8000029B11698B421AD25846FFF77BFE08B1A0
:103A9000022914D99368039A00219B1A18BF0123A5
:103AA00084F83430234603F834BB59F8042B02B1B0
:103AB00011619945F9D10023A6632371A9E7013566
:103AC0000B2D08F10408C1D1A3E70000F8B51F468B
:103AD000D3070646154610D401F108046DB154E928
:103AE000021217B10B4611461A463046521A023DD1
:103AF000FFF772FFADB20834F0E7F8BD2DE9F04FE3
:103B000085B004468A46934600F008FF0146074602
:103B10002046FFF7D3FE217802460B2905D0204628
:103B2000FFF74EFF08B90B23237023780B2B1DD012
:103B3000257915B9D2B9002514E0BAB9023354F881
:103B400023005A4603685146DB68984723780233BE
:103B500054F8230001F0DCFB20B10123054684F872
:103B60003430A763284605B0BDE8F08F002604F185
:103B70000809CDF80490019B53F8048B0193B8F128
:103B8000000F3BD031462046FFF71AFF05460028BC
:103B900034D0D8F810305A460293D8F8083051463D
:103BA0000393D8F800304046DB689847019B53F8F0
:103BB000042C029B11698B4220D23046FFF7E2FDB4
:103BC00008B102291AD99368039A26709B1A18BF64
:103BD000012384F8343001230022A7632371343495
:103BE00059F8043B03B11A61A145F9D1064B0021F4
:103BF0001B68186A03689B6A9847B3E70136F6B2F8
:103C00000B2EB8D197E700BFF00800202DE9F8434C
:103C1000036C0446002B4FD000F080FE01460546A1
:103C20002046FFF74BFE064610B92379002B43D000
:103C300094F844302A4F63B9012384F8443000F0EB
:103C40006DFEA06494F84C00216C07EBC000FFF7F8
:103C500057FE94F84C30204657F8339000274946D9
:103C6000FFF738FE206C03685B699847FF2828BF80
:103C7000FF208046FBB298450CD9206C03689B69F5
:103C80009847011E04DB4A462046C9B2FFF736FFBB
:103C90000137EFE796B1A06C281AB0F57A7F0BD9FF
:103CA00094F84C300133DBB2022B88BF002384F838
:103CB0004C30002384F84430BDE8F88323780B2B84
:103CC000FAD0023354F823000368DB6998470028D0
:103CD000F2D1A06C2D1AB5F57A7FEAD8ECE700BFD7
:103CE00030A4000870B50446FFF790FF04F1080502
:103CF00004F1340655F8040B10B103689B6998472A
:103D0000B542F7D1002394F8340084F8343070BD04
:103D100008B5074B1A68D20708D40B220548064994
:103D2000027001221A60054A06F0E0FA014808BD57
:103D300024090020280900205D370008040E002017
:103D40007047000070470000704700000120704776
:103D50007047000010B5044600F0FEFD204610BD7F
:103D600038B50446154601F0C3FA2046084B002238
:103D70004FF4E13140F8403B02F076FA0023204650
:103D800084F8885084F8893084F8923038BD00BFB8
:103D900050A4000870B54FF4C8630C4640F26B3273
:103DA0008AB01021CDE9003205464FF47A7302AA99
:103DB000E01C01F0E3FAA07EFDF794FA0D49FDF74F
:103DC000E5FA667E0C490446C6F3C006FDF77CFCA6
:103DD00000B9094C4FF0FF3320460193FDF79CFCDE
:103DE000C0B2009033461021284602AA01F0A8FA7A
:103DF0000AB070BD3333A34000007F4308B510F80C
:103E0000611F0231C9B2FFF787FCB0FA80F04009A8
:103E100008BD000037B5D0F880300446CB1AB3F5A2
:103E2000FA6FC0F8801008D300237E2A80F87D3016
:103E300080F8843015D003B030BD7E2A03D090F8CE
:103E40007D30002BF7D094F884302BB97D2A08D12F
:103E5000012384F88430EEE7002382F0200284F806
:103E6000843094F87D30581CC0B22344022884F872
:103E70007D0083F8602005D194F86130192B0AD0B9
:103E8000082B07E0032806D194F86230EBB994F8C8
:103E90006130192B15D194F8623004F16005CBB96B
:103EA0001D28C8D10A4600902B4620460A2101F061
:103EB000DFFA2046FFF7A2FF18B129462046FFF798
:103EC00069FF002384F87D30C3E7012BF9D194F812
:103ED0006130D5E7012B0CD10C280AD10A4600909D
:103EE0002B4620460A2101F0C3FA2046FFF786FF41
:103EF000E7E71D289FD1E4E713B5436804461B6C30
:103F00009BB990F888301BB1C36DC2650A4619464B
:103F10000DF1070304F1400002F0C0F928B120467A
:103F20009DF80720216DFFF775FF02B010BD00005E
:103F3000B2F5E13F38B504460D4608D100F0ECFC7F
:103F40002A4601462046BDE83840FFF763BF38BD2A
:103F50002DE9F04714460D46064619220021204659
:103F6000FDF7ACFE102DA8BF10250F2306EB450171
:103F700030464FF0000E012240F26B3C4FF4C86710
:103F80004FF47A7640F2FF75237088423ED030F8C5
:103F9000023B4FEADE086345B8BF6346A3F26B33CA
:103FA0007B43B3FBF6F301339BB2AB4228BF2B46F6
:103FB00002EBDE02C8EB4818D2B20EEBC80E5FFA75
:103FC0008EFE14F8028003FA0EF948EA090804F894
:103FD000028002F1010914F809A0CEF1080843FAA1
:103FE00008F848EA0A0804F80980CEF1100902F13D
:103FF000020843FA09F314F808900EF10B0E43EA95
:10400000090304F808305FFA8EFEBEE7BDE8F087CA
:1040100070470000B0F94C0070470000B0F94E0046
:1040200070470000806D7047034690F8540008B157
:1040300093F830007047000013B50446FFF768FEA0
:10404000FFF7AEFB002201230649009204F1640051
:1040500000F006F9012384F8603084F8543002B08F
:1040600010BD00BF2810002080F8601011B9643026
:1040700000F064B97047000037B590F8543004463A
:104080000D46ABB190F83030122BA8BF12239942E5
:104090000EDA00F13401722201A800F063FC04EB97
:1040A000450401A8A48800F079FC204603B030BD87
:1040B0000024FAE708B5FFF72BFEFFF773FC012099
:1040C00008BD000037B590F854500446A5B100F182
:1040D0003401522201A800F045FCD4E90A51002322
:1040E000226D01A8994208BF9542C4E90A2314BF72
:1040F0000125002500F052FC284603B030BD000029
:1041000073B590F8544005460E468CB1122A28BF6C
:104110001222144600F13401882201A800F022FC8A
:1041200030466200291DFDF753FD01A800F036FC62
:10413000204602B070BD0000F7B590F85430044638
:10414000002B46D0FFF7E4FD94F860300546CBB174
:10415000002701A9D4F8B800019700F0CDFD014671
:1041600080B1019E072E0DD9F6087200284694F8FA
:10417000C03092B2FFF7AAFCD4F8B800F10000F00A
:1041800041FDE6E72846FFF7ADFD10B3C32204F179
:10419000340101A800F0E6FB00F0BEFB20652846D4
:1041A000FFF7D4FB1228A8BF1220C2B284F8302037
:1041B000211D2846FFF7D4FB2846FFF7DBFBA4F8B8
:1041C0004C002846FFF7E2FBA4F84E0001A800F0DF
:1041D000E5FB03B0F0BD000038B5044625462021BC
:1041E000006805F089FD55F8043B2A4603F12001DB
:1041F00053F8040B8B4242F8040BF9D1A36A5A68B6
:10420000136823F00F031360A36A1A68597B0E2307
:104210008B405360A36A5A68236DDB684C3393600C
:10422000A36A22685B68DA600822A36A5B685A6046
:10423000A36AE26A5B681A60A36A5A68136843F06B
:1042400001031360606D00F0C3FC1F2806D92946E6
:10425000606D2022BDE8384000F030BD38BD000060
:10426000012AF8B504460E4615461F4601D900201E
:10427000F8BD2F4B00221B682021D86A03681B6DF4
:10428000984720600028F2D03023266583F31188F8
:104290000C2123463846274A03F008FE0023A0627B
:1042A00083F31188A26A5168F2684C328A6040F642
:1042B0008A22E262A26A21685268D1600821A26A59
:1042C00052685160A26AE16A526811601A4AC4E9F0
:1042D0000E3323646263012384F844500DBB4FF412
:1042E000007284F83050A26484F85C3004F130012C
:1042F000206D04F029FC40F20D12236D2946DB6885
:104300009A64A36A5A68136843F001031360236D2B
:104310000222D86805F0B4FC206D04F023FC0120D3
:10432000A6E784F830304FF48063A364DEE700BF73
:10433000F0080020D941000840420F0010B50446A3
:10434000006D04F01DFCA36A5A68136823F00F0384
:104350001360A36A597B1A680E238B40536010BD0B
:104360007047000070470000002070470020704731
:1043700013B56C4684E8060000F1140394E80300CA
:1043800083E8050002B010BD0020704713B56C46ED
:1043900084E8060000F10C0394E8030083E80500BC
:1043A00002B010BD0023C0E90333704782B002ABF6
:1043B00003E9060002B07047704700000020704714
:1043C00070470000002070470020704770470000D1
:1043D000002070470020704782B002A901E90C005C
:1043E00002B070470F2070470F20704701207047C0
:1043F00070470000002070477047000070470000C1
:104400000120704701207047012070472830704715
:10441000002082B002A901E90C0002B07047000040
:104420000020704700207047002070470020704730
:104430000020704770470000002070477047000060
:1044400038B5084B0446036090F8BC3043B9D0F847
:10445000B8502DB1284600F093FB284600F07CFAB6
:10446000204638BD78A4000810B50446302000F07E
:104470006DFA70B100230222C0E90333C0E90533AD
:104480000371037A62F302030372034B0360034B6D
:1044900083622060204610BD4CA5000834A60008A9
:1044A0000022026070470000002202607047000096
:1044B00010B5044B04460360406A08B100F050FA9E
:1044C000204610BDB8A4000810B50446FFF7F0FF61
:1044D000204600F041FA204610BD00001B4B10B5ED
:1044E00003601B4B044643601A4B1B4A8360002346
:1044F000C3601A4BC2610361194B1A4A43611A4BDC
:10450000026283610364194B194A4364194B426286
:104510008364194B194AC364194B82620365194BB2
:10452000194A4365194BC2628365194B194AC36521
:10453000194B02630366194A194B4263436600F044
:10454000E3F9184B2046236010BD00BF0CA50008FE
:10455000000D0020040D00207C090020000E00202A
:10456000FC0C0020880900205C0C00206C0C002052
:10457000C00A00207C0C00208C0C0020080D0020BC
:104580009C0C0020AC0C0020B80B0020BC0C0020C0
:10459000CC0C00200C040020DC0C002008040020BF
:1045A000EC0C0020E8A5000808B5302383F311883F
:1045B000074B1B689A68996B8A4201D0824200D2ED
:1045C0009860986305F050F8002383F3118808BDC4
:1045D000500A002080B5234E234F3360FA68234BE6
:1045E000B4201A6005F048F905F084FB204B4FF425
:1045F000E1311C68206C00F059FA206903681B68DF
:104600009847A06A03681B6898470A20FFF7CCFF09
:1046100005F0ACFB40B11321164805F0B7FB4C2266
:1046200014498818FDF7D4FA0123134D3068AB7391
:1046300003681B68984705F065FB284602F066FD95
:10464000A06A03681B6B9847FB680C4AB420DA61C8
:1046500005F012F9306803685B689847284602F055
:1046600055FDF7E7540A002030120020500A0020C0
:10467000F0080020BC0B0020080D0020A4A40008B6
:10468000014B1868704700BF500A0020004870476F
:10469000580A002038B5384800F018FE374800F0B6
:1046A00015FE374800F012FE364800F00FFE36487F
:1046B00000F00CFE354800F009FE354800F006FE1B
:1046C000344800F003FE344800F000FE334800F0A8
:1046D000FDFD334B334A34481A60344B344A354C71
:1046E0001A6000F0ABFD344800F0DCFD334803F005
:1046F0009DF82046324B2422002140F8043BFDF770
:10470000DDFA04F1340002F0A3FD4FF0FF33E3645F
:104710000023C4E92D330123142084F8BC3000F0B9
:1047200015F9054618B14FF4816100F017FAC4F885
:10473000B85000252349244A1E4884F8BC5005F08F
:10474000D5FD3022214B22481A71224A1A604FF4BB
:10475000C872C3F8842002F079FC1B4A1E491C4829
:1047600005F0C4FD1D4B1E4A83F89C501A601D487D
:10477000BDE83840FFF7B2BE5C0C00206C0C002096
:104780007C0C00208C0C00209C0C0020AC0C002029
:10479000BC0C0020CC0C0020DC0C0020EC0C002019
:1047A000000D002018A50008000E0020040D0020B8
:1047B000ACA5000888090020FC0C00207C09002022
:1047C00078A4000841440008040E0020C00A00201C
:1047D000080D0020B8A800083D440008B80B0020D0
:1047E00034AB0008580A002070B51D46164B1B68F4
:1047F00043B35B6CDB0725D5144B1E68F46A94F851
:104800004630C3B9124BA4F84400DB6884F8461064
:10481000E26163B19A6884F84720D96939B194F9A3
:10482000483023B9042204F1480000F07BF8094B1A
:104830005B68C4E90835F06A1321BDE870400430B4
:1048400005F09EBA70BD00BF080E0020F0080020E1
:104850003012002000ED00E030B589B0EFF309839D
:104860006C4603F12005224618685968083303C2D4
:10487000AB421446F7D1EFF30581044B7B209A6BD2
:10488000C9B2059BFFF7B0FFFEE700BF00ED00E0F7
:1048900030B589B0EFF309836C4603F12005224659
:1048A00018685968083303C2AB421446F7D1EFF3D6
:1048B0000581044BBF209A6BC9B2059BFFF794FF9B
:1048C000FEE700BF00ED00E030B589B0EFF30983EB
:1048D0006C4603F12005224618685968083303C264
:1048E000AB421446F7D1EFF30581044BE3205A6B3A
:1048F000C9B2059BFFF778FFFEE700BF00ED00E0BF
:10490000FEE70000FEE70000704700000FB408B5A6
:10491000029804F015FFFEE705F080B905F088B9AC
:1049200005F02AB9F8B50D46074611462846164641
:10493000FDF778FA0446864294BF0246421C294697
:104940003846FDF745F92046F8BD000001218842B0
:1049500038BF084605F0DEB808B105F0DFB870478B
:10496000FFF7FABFF8B50C4B01601E680446B06A49
:10497000174603681B6C9847054610B1F36AA3F805
:104980004270206803689B6898471DB10022F36A53
:10499000A3F842202046F8BDF008002010B50446D8
:1049A00000680368DB689847204610BD8181B1FA32
:1049B00081F040097047000080897047704700000F
:1049C00000207047704700007047000000207047CB
:1049D00000207047704700004FF4B450704700004B
:1049E000002070470020704700207047002070476B
:1049F000002070477047000007B503688DF8071066
:104A00000122DB680DF10701984703B05DF804FB54
:104A100008B5036801225B6A98470028D4BF0020CC
:104A2000012008BD07B503680DF10701DB69984750
:104A300020B19DF8070003B05DF804FB4FF0FF3094
:104A4000F9E7000070B5044608460D46FDF788F901
:104A50002368024629462046BDE87040DB681847B7
:104A6000FFF75EBF10B444681CB9036810BCDB6F6D
:104A70001847002010BC704782681AB90368D3F841
:104A80008C3018470020704782681AB90368D3F841
:104A9000903018470020704730B4456825B9046845
:104AA000A46FA44630BC604730BC704700231A4650
:104AB000FFF7F2BF10B484680CB19C4205D10368C3
:104AC00010BCD3F8803092B21847002010BC704759
:104AD0000023FFF7EFBF000007B503680DF10701E2
:104AE000DB69984720B19DF8070003B05DF804FB2F
:104AF0004FF0FF30F9E70000F8B506460F461446C0
:104B00000025AC420AD0336830469B699847431C65
:104B100001D12846F8BD78550135F2E72046F9E77E
:104B20000EB403B503AA52F8041B036801925B6834
:104B3000984702B05DF804EB03B0704700F0F8B896
:104B400070B5044608460D46FDF70AF9236802468B
:104B500029462046BDE87040DB68184770B500263E
:104B60000446C0E9026601200D4604F0D3FFB042BE
:104B700008BF3546206065602046267470BD000081
:104B800010B5037C044613B9006804F0C7FF204643
:104B900010BD0000BFF35B8F0068BFF35B8F7047F1
:104BA00070B505460C30FFF7F5FF05F10806044621
:104BB0003046FFF7EFFFA04206D930466D68FFF799
:104BC000E9FF2C44201A70BD3046FFF7E3FFF9E7F8
:104BD00070B505464068A0B105F10800FFF7DAFF9F
:104BE00005F10C0604463046FFF7D4FF844288BF27
:104BF0000025304698BF6D68FFF7CCFF013C2C4480
:104C0000201A70BD38B50C460546FFF7C9FFA04213
:104C100010D305F10800FFF7BDFF04446868BFF337
:104C20005B8FB4FBF0F100FB1144AC60BFF35B8F12
:104C3000012038BD0020FCE72DE9F041144607466D
:104C40000D46FFF7C5FF844228BF0446D4B1B846DD
:104C500058F80C6B4046FFF79DFF06442E60404617
:104C60007E68FFF797FF331A9C4203D801206C60DF
:104C7000BDE8F0816B603B68A61B0644AB60022078
:104C8000EE60F5E72046F3E738B50C460546FFF73A
:104C90009FFFA04210D305F10C00FFF77BFF0444F7
:104CA0006868BFF35B8FB4FBF0F100FB1144EC606C
:104CB000BFF35B8F012038BD0020FCE72DE9FF41E9
:104CC0000F46694606466C46FFF7B6FF002504EB23
:104CD000C008444508D0626820687919FCF778FF5D
:104CE000636808341D44F4E729463046FFF7CCFFDB
:104CF000284604B0BDE8F081F8B505460C300F46F3
:104D0000FFF748FF05F1080604463046FFF742FF6B
:104D1000A042304688BF6C68FFF73CFF201A38601D
:104D200020B130462C68FFF735FF2044F8BD000065
:104D30002DE9F04F0B468046144689B019780029BA
:104D40004BD0252908D003F1010AD8F8003040469D
:104D50009B6898475346F1E7597803F1020A2529E1
:104D6000F3D04FF000094D464E461F2E43D82B2955
:104D700036D01AD8202935D0232939D0A1F13003D3
:104D8000DBB2092B40D872064BBF09EB890905EB52
:104D9000850503EB490903EB45054EBF09F0FF0903
:104DA00005F0FF0546F0200605E02D291DD030292D
:104DB000E4D146F001061AF8011B0029D5D126F0EE
:104DC00006077029BFB200F0C28000F2B7805829F0
:104DD00000F0C0806F2900F0C48009B0BDE8F08FFA
:104DE00046F0020646F00406E5E746F00806E2E76C
:104DF00046F01006DFE77F2EC0D9370612D56C29A2
:104E000010D146F48076D6E72E2904D17306E4D477
:104E100046F04006CFE76C2902D146F08006CAE78B
:104E20006829C8D0632930D0732949D064295DD15D
:104E300026F0900716F4807FBFB202AE72D0E21D5A
:104E400022F007021446516854F8080B002904DACE
:104E5000404261EB410147F080070A23324600F0EF
:104E600067F9861BF6B27B0640F1848027F00103C8
:104E70004E459BB280F09B8007F01402102A02D1AD
:104E800027F011039BB2CB4676E0012754F8043B90
:104E90000DF1080B8DF80830300701D4BD421CD845
:104EA0005F44BB4500F0E880D8F8003040469B687E
:104EB0001BF8011B9847002DF3D0013DEDB2F0E740
:104EC00054F804BB16F0400F14BF49464FF0FF31B1
:104ED0005846FCF7A7FF0746DEE7D8F80030202148
:104EE00040469B68013D9847EDB2D7E769299FD0BE
:104EF00075297FF464AF0A2326F01007BFB217F4B8
:104F0000807FDBB202AE2ED0073424F00704324695
:104F1000F4E8020100F00CF9861B27F08007F6B2D6
:104F2000BFB2A0E754F8040B0A2200283146BCBFE8
:104F3000404247F0800700F0ABF892E778297FF411
:104F40004CAFF90601D547F004071023D7E747F027
:104F50001007F6E7F20601D547F006074FF4047391
:104F6000CDE70823CBE71A46314654F8040B00F08E
:104F70008FF8D1E7B3463B46D80624D506F1200288
:104F80006A4412F8192C302A13D123F016039BB26D
:104F900013F008022AD1DF0719D5AB454ED206EB34
:104FA0000509A9EB0B095FFA89F9002523E0B3464F
:104FB000E2E75A0702D40BF1010B01E00BF1020BFF
:104FC0005FFA8BFBE4E713F0860FE1D0F3E7D8F844
:104FD0000020AB459268E8D20193202140460BF1B6
:104FE000010B90475FFA8BFB019BF0E7AB45DCD2EE
:104FF000A5EB0B05EDB2D8F80020D80692681FD5B6
:105000000193302140469047019B5A0709D513F080
:10501000020F14BF58217821D8F80020926840462A
:105020009047D8F800304E459B6816D23021404654
:1050300009F1FF3998475FFA89F9F2E7B146B4E719
:1050400013F0860FEDD013F0020F14BF2B21202197
:1050500013F0800F18BF2D21E1E7771EFFB202ABDE
:105060001F44D8F80030013EF6B240469B6817F85E
:1050700001199847002EF4D1002D3FF46BAED8F8FB
:105080000030202140469B68013D9847EDB2F3E790
:10509000082A034630B5084606D11A46DB08FCD17B
:1050A00002F1300303700DE0102A0CD103F00F0160
:1050B00001F13002392A88BF01F137021B0900F8DB
:1050C000012BF3D130BD0022D9B223F0010302330A
:1050D00042F100025C0844EAC274E31842EB520257
:1050E0001C0944EA0274E41842EB1212230A43EA50
:1050F00002631C1942EB1222230C43EA02431B19E0
:1051000042EB1242D31842F100041B0943EA047334
:10511000C3EB4315C3EB8505303101EB450100F8C6
:10512000011B53EA14114FEA1412CDD1CAE7000053
:10513000082B30B5044610460AD12346E40844EA59
:105140004174C90854EA0102F7D13033037013E007
:10515000102B12D104F00F0202F13003392B4FEA69
:10516000141488BF02F1370344EA0174090900F8F6
:10517000013B54EA0103EDD130BDE2B224F0010459
:10518000023441F10003610841EAC371091943EB9C
:1051900053030C0944EA0374611843EB13130C0A1C
:1051A00044EA0364611843EB13230C0C44EA034400
:1051B000641843EB13431C1943F10003240944EA28
:1051C0000374C4EB4415C4EB85053032190902EBB6
:1051D000450254EA131300F8012BCED1CCE70000AE
:1051E0000020704700207047002070470368DB688C
:1051F000184700004068704708B504494068FCF74C
:10520000C5F84FF06A51FCF7C1F808BD0000A04096
:105210000120704770470000004870470000A04020
:1052200008B50820FFF792FB18B1024B0360024B50
:10523000436008BDF4A500087B148E3F014B03605A
:10524000704700BF14A60008036800211B681847B8
:105250000346007908B100221A71704703685B6841
:10526000184700000279034612B9012018717047EF
:10527000002070477047000010B50446FFF76CFB34
:10528000204610BD70470000012070470020704785
:10529000704700007047000008461A460021FCF7DE
:1052A0000DBD0000014B0360704700BF54A600080D
:1052B00070470000704700000020704700207047D2
:1052C000012070471046704700207047014B036073
:1052D000704700BF78A600087047000070470000C4
:1052E0007047000010B50446FFF736FB204610BD9E
:1052F000064AC0E900210022C0E9022280F83820D5
:105300004FF6FF7242878287704700BF14A70008DC
:105310000346D0E902218A4216BF01200020DA604C
:105320007047000090F8380070470000122A0B46C2
:1053300028BF122200F1140152001846FCF748BCA5
:1053400070B50D46122DA8BF122504461E46114603
:1053500014306A00FCF73CFC236984F838500133B0
:105360002361636883F83C60A3680133A360BDF9DF
:1053700010306387BDF91430A38770BDF0B5BDF858
:105380001460BDF81850072902F110026ED9477851
:10539000047807F0070744EA07245C43B4FBF6F4FB
:1053A0002C4422F8104C8478477804F03F046401C0
:1053B00044EAD7045C43B4FBF6F42C4422F80E4CC8
:1053C000C4788778A40044EA97140779083907F06D
:1053D000010744EA87245C43B4FBF6F42C4422F82A
:1053E0000C4C4479077904F00F04E40144EA5704B3
:1053F0005C43B4FBF6F42C4422F80A4C84794779D8
:1054000004F07F04240144EA17145C43B4FBF6F46F
:105410002C4422F8084CC4798779640044EAD714F4
:10542000077AC9B207F0030744EA47245C43B4FB98
:10543000F6F42C4422F8064C447A077A04F01F0450
:10544000A40144EA97045C43B4FBF6F42C4422F82C
:10545000044C847A477AE40044EA57145C43B4FB72
:10546000F6F42C4422F8024C0B308CE7F0BD00001F
:1054700070470000012380F84C30704770470000EF
:105480007047000010B50446FFF766FA204610BDCD
:105490004FF6FF7081420CD041FA02F000F00F008D
:1054A0001860012000FA02F2009B013A0A401A60DB
:1054B0007047002070470000F0B50C4631B1002362
:1054C000C0E91033836480F83E30F0BD4FF6FF77BB
:1054D00001269C4216D0013432F8141049BA89B220
:1054E000B942F6D0C1F3832506FA05FC056CC1F379
:1054F000C32145EA0C050564456C06FA01F1294310
:105500004164E6E7836C5A1C042B8264DDD9D0E940
:10551000106700231A4619460B4C54F8045B0133FC
:10552000AE4208BF0131BD4208BF01320C2BF4D19D
:10553000012A03D10029C2D10B23C4E70129BED11E
:10554000002ABCD10A23BEE75CA700082DE9F04F72
:105550009846D0F8843085B0CB1AC82B05460E4645
:1055600014460E9FBDF83C9006D990F83E301BB112
:1055700007230121FFF7A0FFC5F88460E36803F06B
:10558000F013B3F1E01F4AD194F90230002BB4BFFD
:105590000723052395F83E60002E42D04FF47A7B16
:1055A000023404EB43060DF10C0A2188284649BA5F
:1055B00095F83E20CDF800A002AB89B2FFF768FF56
:1055C00018B3029A914520D940F2A4613B889A42CF
:1055D00024BF531C3B8095F83E300A2B02BF039B2F
:1055E0005B000393039B012AA3F580630BFB03F38A
:1055F00093FBF1F303F2DC531CD0022A1CD00AB94E
:1056000002220292029A28F812300234B442CCD11B
:105610003B8801200D2B04BF0C233B8007E00723B0
:10562000B8E7284622463146FFF746FF304605B028
:10563000BDE8F08F0022E4E70122E2E7F7B51E465D
:1056400090F880300446102B0D4603D10023A0F8BB
:105650008030036194F8810068B1012810D1D4F83A
:10566000883094F88000EB1A042B15D9A0B10020E3
:10567000A4F880000CE0D4F88830EB1A042B01D891
:10568000002005E040F2011384F87020A4F8803077
:10569000C4F8885003B0F0BD411CC9B220440F29A2
:1056A00084F8801080F87020EAD94FF47A7204F1FF
:1056B00070073B4620466A4300910421FFF7D8FE5D
:1056C000BDF824303A46019304F18C030093294637
:1056D00033462046FFF73AFF002384F8803018B99C
:1056E00084F881002061D3E7B4F88C20089B1A80ED
:1056F000CEE70000F0B500F1580604460F463346E9
:105700008BB00DF1100C00F1700E654618685968E9
:10571000083303C57345AC46F7D10C2301930DF153
:105720000E0300933946204604ABFFF787FFC8B14C
:10573000354604AB0AAF1A4603CABA42286069600C
:10574000134605F10805F6D1BDF80E10042909D954
:105750004FF0FF333246CDE9003320460023C9B273
:10576000FFF7EEFD0BB0F0BD13B504460DF10703D6
:10577000903000F093FD50B14FF47A73D4F8A0103C
:105780002046B1FBF3F19DF80720FFF7B3FF02B00D
:1057900010BD0000B2F5E13F38B504460D4608D112
:1057A000FFF7BCF82A4601462046BDE83840FFF71F
:1057B000A1BF38BD7047000010B50446FFF7CCF814
:1057C000204610BD10B50446FFF792FD2046054B5C
:1057D00000224FF4E13140F8403B00F045FD204607
:1057E00010BD00BF94A700080878F0B5202801D0AC
:1057F0000020F0BD48784028FAD108466025023ADA
:1058000001F11C07C4788678240204F470643443E0
:1058100022F8024F8478C67802303444B8422544D6
:10582000F0D14FF6FF70CA8B2A448242E0D1CA7889
:1058300012F0F00F03D14A7A12F0F00202D00120E8
:105840001870D6E701201A70D3E7000030B504467F
:10585000D0F880008BB0081AB0F5FA6FC4F8801049
:1058600033D30023202A84F87C3034D194F87C3060
:105870009BB3581CC0B22344202884F87C0083F8D2
:105880005C2028D1002304F15C050A468DF80B301A
:1058900001212B4600902046FFF7EAFD29462046CD
:1058A0000DF10B0303AAFFF79FFF50B14FF0FF3339
:1058B0000E21CDE9003320469DF80B3003AAFFF7F7
:1058C0003FFD002384F87C3005E0202A94F87C30EA
:1058D000CCD0002BCAD10BB030BDB0F5FA6FC8D216
:1058E000F9E7000013B504460DF10703403000F05E
:1058F000D5FC28B120469DF80720216DFFF7A6FFB3
:1059000002B010BDB2F5E13F38B504460D4608D1EE
:10591000FFF702F82A4601462046BDE83840FFF767
:1059200095BF38BD7047000010B50446FFF714F866
:10593000204610BD37B5044601B122B9FF2384F8D3
:105940003E3003B030BD40F68B230A449A4290F9B2
:105950003E100DD9042909DD4FF0FF3300F140025C
:10596000CDE90033C9B20023FFF7EAFC0023E6E7E4
:10597000481CE6D06FF42F73D01840F23E63984273
:105980009FBF04EB41030131A3F8402084F83E108F
:1059900094F93E101129D4DD4FF0FF350023204645
:1059A000CDE9005504F14002C9B2FFF7C9FC84F803
:1059B0003E50C6E77047000010B50446FEF7CCFF26
:1059C000204610BD70B5044616461D46FFF790FCF4
:1059D000054B01222946236084F83E6004F1400013
:1059E00000F042FC204670BDE4A700082DE9F34119
:1059F0001E46037805460F2B0C461746BDF820803F
:105A00003ED14FF4C86340F26B320130CDE9003231
:105A10000A464FF47A735FFA88F1FFF7AFFCB8F1EA
:105A2000110F27D940F2CE7340F2E632E97D11F032
:105A3000010F14BF194611462184E97D11F0020FB0
:105A400008BF1346638412233B800023A21E063442
:105A500032F8021FB1F55B7F38BF0123A242F7D1B4
:105A6000EA7D012012F0080F06D03070012002B04C
:105A7000BDE8F0811023E7E7002BF6D13370F6E79D
:105A80000020F4E730B50446C06F8DB0081AB0F5B9
:105A9000FA6FE1673DD300230F2A84F879303ED1B5
:105AA00094F87930002B3CD05D1CEDB22344192DC5
:105AB00084F8795083F8602031D10A4604F16003FC
:105AC0000221204600951D46FFF7D2FC0023ADF8C9
:105AD0000E308DF80D301023284600930DF10E0284
